{
  "contractName": "ERCCore",
  "abi": [
    {
      "constant": false,
      "inputs": [
        {
          "name": "_newOwner",
          "type": "address"
        }
      ],
      "name": "nominateNewOwner",
      "outputs": [],
      "payable": false,
      "stateMutability": "nonpayable",
      "type": "function"
    },
    {
      "constant": false,
      "inputs": [],
      "name": "acceptOwnership",
      "outputs": [],
      "payable": false,
      "stateMutability": "nonpayable",
      "type": "function"
    },
    {
      "constant": true,
      "inputs": [
        {
          "name": "",
          "type": "uint32"
        }
      ],
      "name": "inSale",
      "outputs": [
        {
          "name": "",
          "type": "uint256"
        }
      ],
      "payable": false,
      "stateMutability": "view",
      "type": "function"
    },
    {
      "constant": true,
      "inputs": [
        {
          "name": "",
          "type": "uint256"
        }
      ],
      "name": "params",
      "outputs": [
        {
          "name": "",
          "type": "uint16"
        }
      ],
      "payable": false,
      "stateMutability": "view",
      "type": "function"
    },
    {
      "constant": true,
      "inputs": [
        {
          "name": "",
          "type": "uint256"
        }
      ],
      "name": "monsters",
      "outputs": [
        {
          "name": "atk",
          "type": "uint8"
        },
        {
          "name": "def",
          "type": "uint8"
        },
        {
          "name": "spd",
          "type": "uint8"
        },
        {
          "name": "lvl",
          "type": "uint8"
        },
        {
          "name": "rarity",
          "type": "uint8"
        },
        {
          "name": "exp",
          "type": "uint256"
        },
        {
          "name": "busy",
          "type": "bool"
        }
      ],
      "payable": false,
      "stateMutability": "view",
      "type": "function"
    },
    {
      "constant": true,
      "inputs": [],
      "name": "ERC721_RECEIVED",
      "outputs": [
        {
          "name": "",
          "type": "bytes4"
        }
      ],
      "payable": false,
      "stateMutability": "view",
      "type": "function"
    },
    {
      "constant": false,
      "inputs": [
        {
          "name": "_from",
          "type": "address"
        },
        {
          "name": "_tokenId",
          "type": "uint256"
        },
        {
          "name": "_data",
          "type": "bytes"
        }
      ],
      "name": "onERC721Received",
      "outputs": [
        {
          "name": "",
          "type": "bytes4"
        }
      ],
      "payable": false,
      "stateMutability": "nonpayable",
      "type": "function"
    },
    {
      "anonymous": false,
      "inputs": [
        {
          "indexed": true,
          "name": "_player",
          "type": "address"
        },
        {
          "indexed": false,
          "name": "_id",
          "type": "uint32"
        },
        {
          "indexed": true,
          "name": "_price",
          "type": "uint256"
        }
      ],
      "name": "ForSale",
      "type": "event"
    },
    {
      "anonymous": false,
      "inputs": [
        {
          "indexed": true,
          "name": "_attacker",
          "type": "address"
        },
        {
          "indexed": true,
          "name": "_defender",
          "type": "address"
        },
        {
          "indexed": false,
          "name": "_team1",
          "type": "uint32[20]"
        },
        {
          "indexed": false,
          "name": "_team2",
          "type": "uint32[20]"
        },
        {
          "indexed": false,
          "name": "_bonusWinner",
          "type": "uint8"
        },
        {
          "indexed": true,
          "name": "_winnerId",
          "type": "uint256"
        },
        {
          "indexed": false,
          "name": "_moneyWon",
          "type": "uint256"
        }
      ],
      "name": "Results",
      "type": "event"
    },
    {
      "anonymous": false,
      "inputs": [
        {
          "indexed": true,
          "name": "_parameter",
          "type": "uint8"
        },
        {
          "indexed": false,
          "name": "_oldValue",
          "type": "uint256"
        },
        {
          "indexed": false,
          "name": "_newValue",
          "type": "uint256"
        }
      ],
      "name": "Changed",
      "type": "event"
    },
    {
      "anonymous": false,
      "inputs": [
        {
          "indexed": false,
          "name": "_ids",
          "type": "uint32[]"
        },
        {
          "indexed": false,
          "name": "_atkMod",
          "type": "uint8[]"
        },
        {
          "indexed": false,
          "name": "_defMod",
          "type": "uint8[]"
        },
        {
          "indexed": false,
          "name": "_spdMod",
          "type": "uint8[]"
        }
      ],
      "name": "Upgraded",
      "type": "event"
    },
    {
      "anonymous": false,
      "inputs": [
        {
          "indexed": true,
          "name": "_from",
          "type": "address"
        },
        {
          "indexed": true,
          "name": "_to",
          "type": "address"
        },
        {
          "indexed": true,
          "name": "_tokenId",
          "type": "uint256"
        }
      ],
      "name": "Transfer",
      "type": "event"
    },
    {
      "anonymous": false,
      "inputs": [
        {
          "indexed": true,
          "name": "_owner",
          "type": "address"
        },
        {
          "indexed": true,
          "name": "_approved",
          "type": "address"
        },
        {
          "indexed": true,
          "name": "_tokenId",
          "type": "uint256"
        }
      ],
      "name": "Approval",
      "type": "event"
    },
    {
      "anonymous": false,
      "inputs": [
        {
          "indexed": true,
          "name": "_owner",
          "type": "address"
        },
        {
          "indexed": true,
          "name": "_operator",
          "type": "address"
        },
        {
          "indexed": false,
          "name": "_approved",
          "type": "bool"
        }
      ],
      "name": "ApprovalForAll",
      "type": "event"
    },
    {
      "anonymous": false,
      "inputs": [
        {
          "indexed": true,
          "name": "_from",
          "type": "address"
        },
        {
          "indexed": true,
          "name": "_to",
          "type": "address"
        }
      ],
      "name": "OwnershipTransferred",
      "type": "event"
    },
    {
      "constant": true,
      "inputs": [
        {
          "name": "_owner",
          "type": "address"
        }
      ],
      "name": "balanceOf",
      "outputs": [
        {
          "name": "",
          "type": "uint256"
        }
      ],
      "payable": false,
      "stateMutability": "view",
      "type": "function"
    },
    {
      "constant": true,
      "inputs": [
        {
          "name": "_tokenId",
          "type": "uint256"
        }
      ],
      "name": "ownerOf",
      "outputs": [
        {
          "name": "",
          "type": "address"
        }
      ],
      "payable": false,
      "stateMutability": "view",
      "type": "function"
    },
    {
      "constant": false,
      "inputs": [
        {
          "name": "_from",
          "type": "address"
        },
        {
          "name": "_to",
          "type": "address"
        },
        {
          "name": "_tokenId",
          "type": "uint256"
        }
      ],
      "name": "safeTransferFrom",
      "outputs": [],
      "payable": true,
      "stateMutability": "payable",
      "type": "function"
    },
    {
      "constant": false,
      "inputs": [
        {
          "name": "_from",
          "type": "address"
        },
        {
          "name": "_to",
          "type": "address"
        },
        {
          "name": "_tokenId",
          "type": "uint256"
        },
        {
          "name": "_data",
          "type": "bytes"
        }
      ],
      "name": "safeTransferFrom",
      "outputs": [],
      "payable": true,
      "stateMutability": "payable",
      "type": "function"
    },
    {
      "constant": false,
      "inputs": [
        {
          "name": "_from",
          "type": "address"
        },
        {
          "name": "_to",
          "type": "address"
        },
        {
          "name": "_tokenId",
          "type": "uint256"
        }
      ],
      "name": "transferFrom",
      "outputs": [],
      "payable": true,
      "stateMutability": "payable",
      "type": "function"
    },
    {
      "constant": false,
      "inputs": [
        {
          "name": "_approved",
          "type": "address"
        },
        {
          "name": "_tokenId",
          "type": "uint256"
        }
      ],
      "name": "approve",
      "outputs": [],
      "payable": true,
      "stateMutability": "payable",
      "type": "function"
    },
    {
      "constant": false,
      "inputs": [
        {
          "name": "_operator",
          "type": "address"
        },
        {
          "name": "_approved",
          "type": "bool"
        }
      ],
      "name": "setApprovalForAll",
      "outputs": [],
      "payable": false,
      "stateMutability": "nonpayable",
      "type": "function"
    },
    {
      "constant": true,
      "inputs": [
        {
          "name": "_tokenId",
          "type": "uint256"
        }
      ],
      "name": "getApproved",
      "outputs": [
        {
          "name": "",
          "type": "address"
        }
      ],
      "payable": false,
      "stateMutability": "view",
      "type": "function"
    },
    {
      "constant": true,
      "inputs": [
        {
          "name": "_owner",
          "type": "address"
        },
        {
          "name": "_operator",
          "type": "address"
        }
      ],
      "name": "isApprovedForAll",
      "outputs": [
        {
          "name": "",
          "type": "bool"
        }
      ],
      "payable": false,
      "stateMutability": "view",
      "type": "function"
    },
    {
      "constant": true,
      "inputs": [],
      "name": "totalSupply",
      "outputs": [
        {
          "name": "",
          "type": "uint256"
        }
      ],
      "payable": false,
      "stateMutability": "view",
      "type": "function"
    },
    {
      "constant": true,
      "inputs": [
        {
          "name": "interfaceID",
          "type": "bytes4"
        }
      ],
      "name": "supportsInterface",
      "outputs": [
        {
          "name": "",
          "type": "bool"
        }
      ],
      "payable": false,
      "stateMutability": "view",
      "type": "function"
    }
  ],
  "bytecode": "0x608060405261018060405190810160405280600261ffff168152602001600561ffff168152602001600861ffff168152602001600061ffff168152602001606461ffff16815260200160c861ffff168152602001600561ffff168152602001606461ffff168152602001602861ffff16815260200161017761ffff168152602001600161ffff168152602001600161ffff1681525060d390600c620000a6929190620000ed565b50336000806101000a81548173ffffffffffffffffffffffffffffffffffffffff021916908373ffffffffffffffffffffffffffffffffffffffff160217905550620001c5565b82600c600f016010900481019282156200017e5791602002820160005b838211156200014c57835183826101000a81548161ffff021916908361ffff16021790555092602001926002016020816001010492830192600103026200010a565b80156200017c5782816101000a81549061ffff02191690556002016020816001010492830192600103026200014c565b505b5090506200018d919062000191565b5090565b620001c291905b80821115620001be57600081816101000a81549061ffff02191690555060010162000198565b5090565b90565b611e1280620001d56000396000f3006080604052600436106100fc576000357c0100000000000000000000000000000000000000000000000000000000900463ffffffff16806301ffc9a714610101578063081812fc14610165578063095ea7b3146101d25780631627540c1461021257806318160ddd1461025557806323b872dd1461028057806342842e0e146102e05780636352211e1461034057806370a08231146103ad57806379ba5097146104045780638fbf9acc1461041b5780639d2f053c14610462578063a22cb465146104ab578063b88d4fde146104fa578063c0576b73146105a0578063e985e9c51461062d578063ecc98ce4146106a8578063f0b9e5ba14610711575b600080fd5b34801561010d57600080fd5b5061014b60048036038101908080357bffffffffffffffffffffffffffffffffffffffffffffffffffffffff191690602001909291905050506107c8565b604051808215151515815260200191505060405180910390f35b34801561017157600080fd5b5061019060048036038101908080359060200190929190505050610b56565b604051808273ffffffffffffffffffffffffffffffffffffffff1673ffffffffffffffffffffffffffffffffffffffff16815260200191505060405180910390f35b610210600480360381019080803573ffffffffffffffffffffffffffffffffffffffff16906020019092919080359060200190929190505050610ba6565b005b34801561021e57600080fd5b50610253600480360381019080803573ffffffffffffffffffffffffffffffffffffffff169060200190929190505050610df5565b005b34801561026157600080fd5b5061026a610e94565b6040518082815260200191505060405180910390f35b6102de600480360381019080803573ffffffffffffffffffffffffffffffffffffffff169060200190929190803573ffffffffffffffffffffffffffffffffffffffff16906020019092919080359060200190929190505050610ea1565b005b61033e600480360381019080803573ffffffffffffffffffffffffffffffffffffffff169060200190929190803573ffffffffffffffffffffffffffffffffffffffff1690602001909291908035906020019092919050505061121b565b005b34801561034c57600080fd5b5061036b600480360381019080803590602001909291905050506113da565b604051808273ffffffffffffffffffffffffffffffffffffffff1673ffffffffffffffffffffffffffffffffffffffff16815260200191505060405180910390f35b3480156103b957600080fd5b506103ee600480360381019080803573ffffffffffffffffffffffffffffffffffffffff169060200190929190505050611485565b6040518082815260200191505060405180910390f35b34801561041057600080fd5b50610419611509565b005b34801561042757600080fd5b5061044c600480360381019080803563ffffffff169060200190929190505050611666565b6040518082815260200191505060405180910390f35b34801561046e57600080fd5b5061048d6004803603810190808035906020019092919050505061167e565b604051808261ffff1661ffff16815260200191505060405180910390f35b3480156104b757600080fd5b506104f8600480360381019080803573ffffffffffffffffffffffffffffffffffffffff1690602001909291908035151590602001909291905050506116ab565b005b61059e600480360381019080803573ffffffffffffffffffffffffffffffffffffffff169060200190929190803573ffffffffffffffffffffffffffffffffffffffff16906020019092919080359060200190929190803590602001908201803590602001908080601f01602080910402602001604051908101604052809392919081815260200183838082843782019150505050505091929192905050506117ac565b005b3480156105ac57600080fd5b506105cb60048036038101908080359060200190929190505050611b29565b604051808860ff1660ff1681526020018760ff1660ff1681526020018660ff1660ff1681526020018560ff1660ff1681526020018460ff1660ff1681526020018381526020018215151515815260200197505050505050505060405180910390f35b34801561063957600080fd5b5061068e600480360381019080803573ffffffffffffffffffffffffffffffffffffffff169060200190929190803573ffffffffffffffffffffffffffffffffffffffff169060200190929190505050611bc8565b604051808215151515815260200191505060405180910390f35b3480156106b457600080fd5b506106bd611c5c565b60405180827bffffffffffffffffffffffffffffffffffffffffffffffffffffffff19167bffffffffffffffffffffffffffffffffffffffffffffffffffffffff1916815260200191505060405180910390f35b34801561071d57600080fd5b50610774600480360381019080803573ffffffffffffffffffffffffffffffffffffffff16906020019092919080359060200190929190803590602001908201803590602001919091929391929390505050611c83565b60405180827bffffffffffffffffffffffffffffffffffffffffffffffffffffffff19167bffffffffffffffffffffffffffffffffffffffffffffffffffffffff1916815260200191505060405180910390f35b600080600060405180807f737570706f727473496e7465726661636528627974657334290000000000000081525060190190506040518091039020915060405180807f746f74616c537570706c79282900000000000000000000000000000000000000815250600d019050604051809103902060405180807f736166655472616e7366657246726f6d28616464726573732c6164647265737381526020017f2c75696e743235362c6279746573290000000000000000000000000000000000815250602f019050604051809103902060405180807f736166655472616e7366657246726f6d28616464726573732c6164647265737381526020017f2c75696e743235362900000000000000000000000000000000000000000000008152506029019050604051809103902060405180807f7472616e7366657246726f6d28616464726573732c616464726573732c75696e81526020017f74323536290000000000000000000000000000000000000000000000000000008152506025019050604051809103902060405180807f6973417070726f766564466f72416c6c28616464726573732c6164647265737381526020017f29000000000000000000000000000000000000000000000000000000000000008152506021019050604051809103902060405180807f736574417070726f76616c466f72416c6c28616464726573732c626f6f6c2900815250601f019050604051809103902060405180807f676574417070726f7665642875696e74323536290000000000000000000000008152506014019050604051809103902060405180807f617070726f766528616464726573732c75696e743235362900000000000000008152506018019050604051809103902060405180807f6f776e65724f662875696e7432353629000000000000000000000000000000008152506010019050604051809103902060405180807f62616c616e63654f662861646472657373290000000000000000000000000000815250601201905060405180910390201818181818181818189050817bffffffffffffffffffffffffffffffffffffffffffffffffffffffff1916847bffffffffffffffffffffffffffffffffffffffffffffffffffffffff19161480610b4d5750807bffffffffffffffffffffffffffffffffffffffffffffffffffffffff1916847bffffffffffffffffffffffffffffffffffffffffffffffffffffffff1916145b92505050919050565b600060028054905082101515610b6b57600080fd5b60d1600083815260200190815260200160002060009054906101000a900473ffffffffffffffffffffffffffffffffffffffff169050919050565b33818173ffffffffffffffffffffffffffffffffffffffff1660cd600083815260200190815260200160002060009054906101000a900473ffffffffffffffffffffffffffffffffffffffff1673ffffffffffffffffffffffffffffffffffffffff161480610c7357508173ffffffffffffffffffffffffffffffffffffffff1660d1600083815260200190815260200160002060009054906101000a900473ffffffffffffffffffffffffffffffffffffffff1673ffffffffffffffffffffffffffffffffffffffff16145b80610d37575060d0600060cd600084815260200190815260200160002060009054906101000a900473ffffffffffffffffffffffffffffffffffffffff1673ffffffffffffffffffffffffffffffffffffffff1673ffffffffffffffffffffffffffffffffffffffff16815260200190815260200160002060008373ffffffffffffffffffffffffffffffffffffffff1673ffffffffffffffffffffffffffffffffffffffff16815260200190815260200160002060009054906101000a900460ff165b1515610d4257600080fd5b8360d1600085815260200190815260200160002060006101000a81548173ffffffffffffffffffffffffffffffffffffffff021916908373ffffffffffffffffffffffffffffffffffffffff160217905550828473ffffffffffffffffffffffffffffffffffffffff163373ffffffffffffffffffffffffffffffffffffffff167f8c5be1e5ebec7d5bd14f71427d1e84f3dd0314c0f7b2291e5b200ac8c7c3b92560405160405180910390a450505050565b6000809054906101000a900473ffffffffffffffffffffffffffffffffffffffff1673ffffffffffffffffffffffffffffffffffffffff163373ffffffffffffffffffffffffffffffffffffffff16141515610e5057600080fd5b80600160006101000a81548173ffffffffffffffffffffffffffffffffffffffff021916908373ffffffffffffffffffffffffffffffffffffffff16021790555050565b6000600280549050905090565b33818173ffffffffffffffffffffffffffffffffffffffff1660cd600083815260200190815260200160002060009054906101000a900473ffffffffffffffffffffffffffffffffffffffff1673ffffffffffffffffffffffffffffffffffffffff161480610f6e57508173ffffffffffffffffffffffffffffffffffffffff1660d1600083815260200190815260200160002060009054906101000a900473ffffffffffffffffffffffffffffffffffffffff1673ffffffffffffffffffffffffffffffffffffffff16145b80611032575060d0600060cd600084815260200190815260200160002060009054906101000a900473ffffffffffffffffffffffffffffffffffffffff1673ffffffffffffffffffffffffffffffffffffffff1673ffffffffffffffffffffffffffffffffffffffff16815260200190815260200160002060008373ffffffffffffffffffffffffffffffffffffffff1673ffffffffffffffffffffffffffffffffffffffff16815260200190815260200160002060009054906101000a900460ff165b151561103d57600080fd5b600073ffffffffffffffffffffffffffffffffffffffff168473ffffffffffffffffffffffffffffffffffffffff161415801561107e575060028054905083105b80156110b5575060028381548110151561109457fe5b906000526020600020906003020160020160009054906101000a900460ff16155b15156110c057600080fd5b6110c8611cb3565b8360cd600085815260200190815260200160002060006101000a81548173ffffffffffffffffffffffffffffffffffffffff021916908373ffffffffffffffffffffffffffffffffffffffff16021790555060cf60008573ffffffffffffffffffffffffffffffffffffffff1673ffffffffffffffffffffffffffffffffffffffff1681526020019081526020016000206000815480929190600101919050555060cf60008673ffffffffffffffffffffffffffffffffffffffff1673ffffffffffffffffffffffffffffffffffffffff1681526020019081526020016000206000815480929190600190039190505550828473ffffffffffffffffffffffffffffffffffffffff168673ffffffffffffffffffffffffffffffffffffffff167fddf252ad1be2c89b69c2b068fc378daa952ba7f163c4a11628f55a4df523b3ef60405160405180910390a45050505050565b33818173ffffffffffffffffffffffffffffffffffffffff1660cd600083815260200190815260200160002060009054906101000a900473ffffffffffffffffffffffffffffffffffffffff1673ffffffffffffffffffffffffffffffffffffffff1614806112e857508173ffffffffffffffffffffffffffffffffffffffff1660d1600083815260200190815260200160002060009054906101000a900473ffffffffffffffffffffffffffffffffffffffff1673ffffffffffffffffffffffffffffffffffffffff16145b806113ac575060d0600060cd600084815260200190815260200160002060009054906101000a900473ffffffffffffffffffffffffffffffffffffffff1673ffffffffffffffffffffffffffffffffffffffff1673ffffffffffffffffffffffffffffffffffffffff16815260200190815260200160002060008373ffffffffffffffffffffffffffffffffffffffff1673ffffffffffffffffffffffffffffffffffffffff16815260200190815260200160002060009054906101000a900460ff165b15156113b757600080fd5b6113d385858560206040519081016040528060008152506117ac565b5050505050565b60008073ffffffffffffffffffffffffffffffffffffffff1660cd600084815260200190815260200160002060009054906101000a900473ffffffffffffffffffffffffffffffffffffffff1673ffffffffffffffffffffffffffffffffffffffff161415151561144a57600080fd5b60cd600083815260200190815260200160002060009054906101000a900473ffffffffffffffffffffffffffffffffffffffff169050919050565b60008073ffffffffffffffffffffffffffffffffffffffff168273ffffffffffffffffffffffffffffffffffffffff16141515156114c257600080fd5b60cf60008373ffffffffffffffffffffffffffffffffffffffff1673ffffffffffffffffffffffffffffffffffffffff168152602001908152602001600020549050919050565b600160009054906101000a900473ffffffffffffffffffffffffffffffffffffffff1673ffffffffffffffffffffffffffffffffffffffff163373ffffffffffffffffffffffffffffffffffffffff1614151561156557600080fd5b600160009054906101000a900473ffffffffffffffffffffffffffffffffffffffff1673ffffffffffffffffffffffffffffffffffffffff166000809054906101000a900473ffffffffffffffffffffffffffffffffffffffff1673ffffffffffffffffffffffffffffffffffffffff167f8be0079c531659141344cd1fd0a4f28419497f9722a3daafe3b4186f6b6457e060405160405180910390a3600160009054906101000a900473ffffffffffffffffffffffffffffffffffffffff166000806101000a81548173ffffffffffffffffffffffffffffffffffffffff021916908373ffffffffffffffffffffffffffffffffffffffff160217905550565b60cc6020528060005260406000206000915090505481565b60d381600c8110151561168d57fe5b60109182820401919006600202915054906101000a900461ffff1681565b8060d060003373ffffffffffffffffffffffffffffffffffffffff1673ffffffffffffffffffffffffffffffffffffffff16815260200190815260200160002060008473ffffffffffffffffffffffffffffffffffffffff1673ffffffffffffffffffffffffffffffffffffffff16815260200190815260200160002060006101000a81548160ff0219169083151502179055508173ffffffffffffffffffffffffffffffffffffffff163373ffffffffffffffffffffffffffffffffffffffff167f17307eab39ab6107e8899845ad3d59bd9653f200f220920489ca2b5937696c3183604051808215151515815260200191505060405180910390a35050565b600033838173ffffffffffffffffffffffffffffffffffffffff1660cd600083815260200190815260200160002060009054906101000a900473ffffffffffffffffffffffffffffffffffffffff1673ffffffffffffffffffffffffffffffffffffffff16148061187b57508173ffffffffffffffffffffffffffffffffffffffff1660d1600083815260200190815260200160002060009054906101000a900473ffffffffffffffffffffffffffffffffffffffff1673ffffffffffffffffffffffffffffffffffffffff16145b8061193f575060d0600060cd600084815260200190815260200160002060009054906101000a900473ffffffffffffffffffffffffffffffffffffffff1673ffffffffffffffffffffffffffffffffffffffff1673ffffffffffffffffffffffffffffffffffffffff16815260200190815260200160002060008373ffffffffffffffffffffffffffffffffffffffff1673ffffffffffffffffffffffffffffffffffffffff16815260200190815260200160002060009054906101000a900460ff165b151561194a57600080fd5b611955878787610ea1565b61195e86611d69565b15611b20578573ffffffffffffffffffffffffffffffffffffffff1663f0b9e5ba8887876040518463ffffffff167c0100000000000000000000000000000000000000000000000000000000028152600401808473ffffffffffffffffffffffffffffffffffffffff1673ffffffffffffffffffffffffffffffffffffffff16815260200183815260200180602001828103825283818151815260200191508051906020019080838360005b83811015611a25578082015181840152602081019050611a0a565b50505050905090810190601f168015611a525780820380516001836020036101000a031916815260200191505b50945050505050602060405180830381600087803b158015611a7357600080fd5b505af1158015611a87573d6000803e3d6000fd5b505050506040513d6020811015611a9d57600080fd5b8101908080519060200190929190505050925063f0b9e5ba7c0100000000000000000000000000000000000000000000000000000000027bffffffffffffffffffffffffffffffffffffffffffffffffffffffff1916837bffffffffffffffffffffffffffffffffffffffffffffffffffffffff1916141515611b1f57600080fd5b5b50505050505050565b600281815481101515611b3857fe5b90600052602060002090600302016000915090508060000160009054906101000a900460ff16908060000160019054906101000a900460ff16908060000160029054906101000a900460ff16908060000160039054906101000a900460ff16908060000160049054906101000a900460ff16908060010154908060020160009054906101000a900460ff16905087565b600060d060008473ffffffffffffffffffffffffffffffffffffffff1673ffffffffffffffffffffffffffffffffffffffff16815260200190815260200160002060008373ffffffffffffffffffffffffffffffffffffffff1673ffffffffffffffffffffffffffffffffffffffff16815260200190815260200160002060009054906101000a900460ff16905092915050565b63f0b9e5ba7c01000000000000000000000000000000000000000000000000000000000281565b600063f0b9e5ba7c0100000000000000000000000000000000000000000000000000000000029050949350505050565b600060cf60003373ffffffffffffffffffffffffffffffffffffffff1673ffffffffffffffffffffffffffffffffffffffff168152602001908152602001600020541415611d67576040805190810160405280606460ff168152602001600060ff16815250606760003373ffffffffffffffffffffffffffffffffffffffff1673ffffffffffffffffffffffffffffffffffffffff168152602001908152602001600020906002611d65929190611d7c565b505b565b600080823b905060008111915050919050565b8260028101928215611db0579160200282015b82811115611daf578251829060ff16905591602001919060010190611d8f565b5b509050611dbd9190611dc1565b5090565b611de391905b80821115611ddf576000816000905550600101611dc7565b5090565b905600a165627a7a72305820ca4502b14a02c6845d2cb6041bc2fc9e2657b2c5d9757d2f2e4b0e1bdfc75ad40029",
  "source": "pragma solidity ^0.4.24;\n\nimport \"./CoreFunctions.sol\";\nimport \"./SafeMath.sol\";\n\n\ncontract ERCCore is CoreFunctions {\n    using SafeMath for uint;\n\n    function isContract(address addr)\n        internal\n        returns(bool)\n    {\n        uint size;\n        assembly { size := extcodesize(addr) }\n        return size > 0;\n    }\n\n\n    function balanceOf(address _owner)\n        external\n        view\n        returns(uint256)\n    {\n        require(_owner != address(0));\n        return balances[_owner];\n    }\n\n    function ownerOf(uint256 _tokenId)\n        external\n        view\n    returns(address)\n    {\n        require(owner[_tokenId] != address(0));\n        return owner[_tokenId];\n    }\n\n    function safeTransferFrom(\n        address _from,\n        address _to,\n        uint256 _tokenId,\n        bytes _data\n    )\n        public\n        payable\n        isAuthorized(msg.sender, _tokenId)\n    {\n        transferFrom(_from, _to, _tokenId);\n        if (isContract(_to)) {\n            bytes4 _retval = ERC721Receiver(_to).onERC721Received(\n                _from, _tokenId, _data\n            );\n            require(_retval == ERC721_RECEIVED);\n        }\n    }\n\n    function safeTransferFrom(\n        address _from,\n        address _to,\n        uint256 _tokenId\n    )\n        external\n        payable\n        isAuthorized(msg.sender, _tokenId)\n    {\n        safeTransferFrom(_from, _to, _tokenId, \"\");\n    }\n\n    function transferFrom(\n        address _from,\n        address _to,\n        uint256 _tokenId\n    )\n        public\n        payable\n        isAuthorized(msg.sender, _tokenId)\n    {\n        require(\n            _to != address(0) &&\n            _tokenId < monsters.length &&\n            !monsters[_tokenId].busy\n        );\n\n        firstLogin();\n\n        owner[_tokenId] = _to;\n        balances[_to]++;\n        balances[_from]--;\n\n        emit Transfer(_from, _to, _tokenId);\n    }\n\n    function approve(\n        address _approved,\n        uint256 _tokenId\n    )\n        public\n        payable\n        isAuthorized(msg.sender, _tokenId)\n    {\n        approved[_tokenId] = _approved;\n        emit Approval(msg.sender, _approved, _tokenId);\n    }\n\n    function setApprovalForAll(\n        address _operator,\n        bool _approved\n    ) external {\n        approvedForAll[msg.sender][_operator] = _approved;\n        emit ApprovalForAll(msg.sender, _operator, _approved);\n    }\n\n    function getApproved(uint256 _tokenId)\n        external\n        view\n        returns(address)\n    {\n        require(_tokenId < monsters.length);\n        return approved[_tokenId];\n    }\n\n    function isApprovedForAll(\n        address _owner,\n        address _operator\n    )\n        external\n        view\n        returns(bool)\n    {\n        return approvedForAll[_owner][_operator];\n    }\n\n    function totalSupply() external view returns (uint256) {\n        return monsters.length;\n    }\n\n    function supportsInterface(bytes4 interfaceID)\n        external\n        view\n        returns (bool)\n    {\n        bytes4 interfaceSignatureERC165 =\n            bytes4(keccak256(\"supportsInterface(bytes4)\"));\n\n        bytes4 interfaceSignatureERC721 =\n            bytes4(keccak256(\"balanceOf(address)\")) ^\n            bytes4(keccak256(\"ownerOf(uint256)\")) ^\n            bytes4(keccak256(\"approve(address,uint256)\")) ^\n            bytes4(keccak256(\"getApproved(uint256)\")) ^\n            bytes4(keccak256(\"setApprovalForAll(address,bool)\")) ^\n            bytes4(keccak256(\"isApprovedForAll(address,address)\")) ^\n            bytes4(keccak256(\"transferFrom(address,address,uint256)\")) ^\n            bytes4(keccak256(\"safeTransferFrom(address,address,uint256)\")) ^\n            bytes4(keccak256(\"safeTransferFrom(address,address,uint256,bytes)\")) ^\n            bytes4(keccak256(\"totalSupply()\"));\n\n        return(\n            interfaceID == interfaceSignatureERC165 ||\n            interfaceID == interfaceSignatureERC721\n        );\n    }\n\n}\n",
  "sourcePath": "/Users/nico/Documents/repo/soluzioni-futura/cryptomon-dapp/contracts/ERCCore.sol",
  "compiler": {
    "name": "solc",
    "version": "0.4.24+commit.e67f0147.Emscripten.clang"
  },
  "schemaVersion": "2.0.1",
  "updatedAt": "2018-07-02T09:44:22.855Z"
}