{
  "contractName": "CryptoMon",
  "abi": [
    {
      "constant": true,
      "inputs": [
        {
          "name": "interfaceID",
          "type": "bytes4"
        }
      ],
      "name": "supportsInterface",
      "outputs": [
        {
          "name": "",
          "type": "bool"
        }
      ],
      "payable": false,
      "stateMutability": "view",
      "type": "function"
    },
    {
      "constant": true,
      "inputs": [
        {
          "name": "_tokenId",
          "type": "uint256"
        }
      ],
      "name": "getApproved",
      "outputs": [
        {
          "name": "",
          "type": "address"
        }
      ],
      "payable": false,
      "stateMutability": "view",
      "type": "function"
    },
    {
      "constant": false,
      "inputs": [
        {
          "name": "_approved",
          "type": "address"
        },
        {
          "name": "_tokenId",
          "type": "uint256"
        }
      ],
      "name": "approve",
      "outputs": [],
      "payable": true,
      "stateMutability": "payable",
      "type": "function"
    },
    {
      "constant": false,
      "inputs": [
        {
          "name": "_newOwner",
          "type": "address"
        }
      ],
      "name": "nominateNewOwner",
      "outputs": [],
      "payable": false,
      "stateMutability": "nonpayable",
      "type": "function"
    },
    {
      "constant": true,
      "inputs": [],
      "name": "totalSupply",
      "outputs": [
        {
          "name": "",
          "type": "uint256"
        }
      ],
      "payable": false,
      "stateMutability": "view",
      "type": "function"
    },
    {
      "constant": false,
      "inputs": [
        {
          "name": "_from",
          "type": "address"
        },
        {
          "name": "_to",
          "type": "address"
        },
        {
          "name": "_tokenId",
          "type": "uint256"
        }
      ],
      "name": "transferFrom",
      "outputs": [],
      "payable": true,
      "stateMutability": "payable",
      "type": "function"
    },
    {
      "constant": false,
      "inputs": [
        {
          "name": "_from",
          "type": "address"
        },
        {
          "name": "_to",
          "type": "address"
        },
        {
          "name": "_tokenId",
          "type": "uint256"
        }
      ],
      "name": "safeTransferFrom",
      "outputs": [],
      "payable": true,
      "stateMutability": "payable",
      "type": "function"
    },
    {
      "constant": false,
      "inputs": [
        {
          "name": "_atk",
          "type": "uint8"
        },
        {
          "name": "_def",
          "type": "uint8"
        },
        {
          "name": "_spd",
          "type": "uint8"
        },
        {
          "name": "_lvl",
          "type": "uint8"
        },
        {
          "name": "_rarity",
          "type": "uint8"
        },
        {
          "name": "_exp",
          "type": "uint256"
        }
      ],
      "name": "createCustomMonster",
      "outputs": [
        {
          "name": "",
          "type": "uint32"
        }
      ],
      "payable": false,
      "stateMutability": "nonpayable",
      "type": "function"
    },
    {
      "constant": true,
      "inputs": [
        {
          "name": "_tokenId",
          "type": "uint256"
        }
      ],
      "name": "ownerOf",
      "outputs": [
        {
          "name": "",
          "type": "address"
        }
      ],
      "payable": false,
      "stateMutability": "view",
      "type": "function"
    },
    {
      "constant": true,
      "inputs": [
        {
          "name": "_owner",
          "type": "address"
        }
      ],
      "name": "balanceOf",
      "outputs": [
        {
          "name": "",
          "type": "uint256"
        }
      ],
      "payable": false,
      "stateMutability": "view",
      "type": "function"
    },
    {
      "constant": false,
      "inputs": [],
      "name": "acceptOwnership",
      "outputs": [],
      "payable": false,
      "stateMutability": "nonpayable",
      "type": "function"
    },
    {
      "constant": true,
      "inputs": [
        {
          "name": "",
          "type": "uint32"
        }
      ],
      "name": "inSale",
      "outputs": [
        {
          "name": "",
          "type": "uint256"
        }
      ],
      "payable": false,
      "stateMutability": "view",
      "type": "function"
    },
    {
      "constant": true,
      "inputs": [
        {
          "name": "",
          "type": "uint256"
        }
      ],
      "name": "params",
      "outputs": [
        {
          "name": "",
          "type": "uint16"
        }
      ],
      "payable": false,
      "stateMutability": "view",
      "type": "function"
    },
    {
      "constant": false,
      "inputs": [
        {
          "name": "_operator",
          "type": "address"
        },
        {
          "name": "_approved",
          "type": "bool"
        }
      ],
      "name": "setApprovalForAll",
      "outputs": [],
      "payable": false,
      "stateMutability": "nonpayable",
      "type": "function"
    },
    {
      "constant": false,
      "inputs": [
        {
          "name": "_from",
          "type": "address"
        },
        {
          "name": "_to",
          "type": "address"
        },
        {
          "name": "_tokenId",
          "type": "uint256"
        },
        {
          "name": "_data",
          "type": "bytes"
        }
      ],
      "name": "safeTransferFrom",
      "outputs": [],
      "payable": true,
      "stateMutability": "payable",
      "type": "function"
    },
    {
      "constant": true,
      "inputs": [
        {
          "name": "",
          "type": "uint256"
        }
      ],
      "name": "monsters",
      "outputs": [
        {
          "name": "atk",
          "type": "uint8"
        },
        {
          "name": "def",
          "type": "uint8"
        },
        {
          "name": "spd",
          "type": "uint8"
        },
        {
          "name": "lvl",
          "type": "uint8"
        },
        {
          "name": "rarity",
          "type": "uint8"
        },
        {
          "name": "exp",
          "type": "uint256"
        },
        {
          "name": "busy",
          "type": "bool"
        }
      ],
      "payable": false,
      "stateMutability": "view",
      "type": "function"
    },
    {
      "constant": false,
      "inputs": [
        {
          "name": "_parameter",
          "type": "uint8"
        },
        {
          "name": "_newValue",
          "type": "uint16"
        }
      ],
      "name": "changeParameter",
      "outputs": [
        {
          "name": "",
          "type": "uint256"
        }
      ],
      "payable": false,
      "stateMutability": "nonpayable",
      "type": "function"
    },
    {
      "constant": true,
      "inputs": [
        {
          "name": "_owner",
          "type": "address"
        },
        {
          "name": "_operator",
          "type": "address"
        }
      ],
      "name": "isApprovedForAll",
      "outputs": [
        {
          "name": "",
          "type": "bool"
        }
      ],
      "payable": false,
      "stateMutability": "view",
      "type": "function"
    },
    {
      "constant": true,
      "inputs": [],
      "name": "ERC721_RECEIVED",
      "outputs": [
        {
          "name": "",
          "type": "bytes4"
        }
      ],
      "payable": false,
      "stateMutability": "view",
      "type": "function"
    },
    {
      "constant": false,
      "inputs": [
        {
          "name": "_from",
          "type": "address"
        },
        {
          "name": "_tokenId",
          "type": "uint256"
        },
        {
          "name": "_data",
          "type": "bytes"
        }
      ],
      "name": "onERC721Received",
      "outputs": [
        {
          "name": "",
          "type": "bytes4"
        }
      ],
      "payable": false,
      "stateMutability": "nonpayable",
      "type": "function"
    },
    {
      "inputs": [],
      "payable": false,
      "stateMutability": "nonpayable",
      "type": "constructor"
    },
    {
      "anonymous": false,
      "inputs": [
        {
          "indexed": true,
          "name": "_player",
          "type": "address"
        },
        {
          "indexed": false,
          "name": "_id",
          "type": "uint32"
        },
        {
          "indexed": true,
          "name": "_price",
          "type": "uint256"
        }
      ],
      "name": "ForSale",
      "type": "event"
    },
    {
      "anonymous": false,
      "inputs": [
        {
          "indexed": true,
          "name": "_attacker",
          "type": "address"
        },
        {
          "indexed": true,
          "name": "_defender",
          "type": "address"
        },
        {
          "indexed": false,
          "name": "_team1",
          "type": "uint32[20]"
        },
        {
          "indexed": false,
          "name": "_team2",
          "type": "uint32[20]"
        },
        {
          "indexed": false,
          "name": "_bonusWinner",
          "type": "uint8"
        },
        {
          "indexed": true,
          "name": "_winnerId",
          "type": "uint256"
        },
        {
          "indexed": false,
          "name": "_moneyWon",
          "type": "uint256"
        }
      ],
      "name": "Results",
      "type": "event"
    },
    {
      "anonymous": false,
      "inputs": [
        {
          "indexed": true,
          "name": "_parameter",
          "type": "uint8"
        },
        {
          "indexed": false,
          "name": "_oldValue",
          "type": "uint256"
        },
        {
          "indexed": false,
          "name": "_newValue",
          "type": "uint256"
        }
      ],
      "name": "Changed",
      "type": "event"
    },
    {
      "anonymous": false,
      "inputs": [
        {
          "indexed": false,
          "name": "_ids",
          "type": "uint32[]"
        },
        {
          "indexed": false,
          "name": "_atkMod",
          "type": "uint8[]"
        },
        {
          "indexed": false,
          "name": "_defMod",
          "type": "uint8[]"
        },
        {
          "indexed": false,
          "name": "_spdMod",
          "type": "uint8[]"
        }
      ],
      "name": "Upgraded",
      "type": "event"
    },
    {
      "anonymous": false,
      "inputs": [
        {
          "indexed": true,
          "name": "_from",
          "type": "address"
        },
        {
          "indexed": true,
          "name": "_to",
          "type": "address"
        },
        {
          "indexed": true,
          "name": "_tokenId",
          "type": "uint256"
        }
      ],
      "name": "Transfer",
      "type": "event"
    },
    {
      "anonymous": false,
      "inputs": [
        {
          "indexed": true,
          "name": "_owner",
          "type": "address"
        },
        {
          "indexed": true,
          "name": "_approved",
          "type": "address"
        },
        {
          "indexed": true,
          "name": "_tokenId",
          "type": "uint256"
        }
      ],
      "name": "Approval",
      "type": "event"
    },
    {
      "anonymous": false,
      "inputs": [
        {
          "indexed": true,
          "name": "_owner",
          "type": "address"
        },
        {
          "indexed": true,
          "name": "_operator",
          "type": "address"
        },
        {
          "indexed": false,
          "name": "_approved",
          "type": "bool"
        }
      ],
      "name": "ApprovalForAll",
      "type": "event"
    },
    {
      "anonymous": false,
      "inputs": [
        {
          "indexed": true,
          "name": "_from",
          "type": "address"
        },
        {
          "indexed": true,
          "name": "_to",
          "type": "address"
        }
      ],
      "name": "OwnershipTransferred",
      "type": "event"
    },
    {
      "constant": false,
      "inputs": [],
      "name": "unbox",
      "outputs": [],
      "payable": true,
      "stateMutability": "payable",
      "type": "function"
    },
    {
      "constant": false,
      "inputs": [
        {
          "name": "_ids",
          "type": "uint32[5]"
        },
        {
          "name": "_minBet",
          "type": "uint256"
        }
      ],
      "name": "fight",
      "outputs": [],
      "payable": true,
      "stateMutability": "payable",
      "type": "function"
    },
    {
      "constant": false,
      "inputs": [],
      "name": "stopWaiting",
      "outputs": [],
      "payable": false,
      "stateMutability": "nonpayable",
      "type": "function"
    },
    {
      "constant": false,
      "inputs": [
        {
          "name": "_id",
          "type": "uint32"
        },
        {
          "name": "_price",
          "type": "uint256"
        }
      ],
      "name": "sellMonster",
      "outputs": [],
      "payable": false,
      "stateMutability": "nonpayable",
      "type": "function"
    },
    {
      "constant": false,
      "inputs": [
        {
          "name": "_id",
          "type": "uint32"
        }
      ],
      "name": "buyMonster",
      "outputs": [],
      "payable": true,
      "stateMutability": "payable",
      "type": "function"
    },
    {
      "constant": false,
      "inputs": [],
      "name": "withdraw",
      "outputs": [
        {
          "name": "",
          "type": "uint256"
        }
      ],
      "payable": false,
      "stateMutability": "nonpayable",
      "type": "function"
    },
    {
      "constant": false,
      "inputs": [
        {
          "name": "_ids",
          "type": "uint32[]"
        },
        {
          "name": "_atkMod",
          "type": "uint8[]"
        },
        {
          "name": "_defMod",
          "type": "uint8[]"
        },
        {
          "name": "_spdMod",
          "type": "uint8[]"
        }
      ],
      "name": "lvlUp",
      "outputs": [],
      "payable": false,
      "stateMutability": "nonpayable",
      "type": "function"
    }
  ],
  "bytecode": "0x608060405261018060405190810160405280600261ffff168152602001600561ffff168152602001600861ffff168152602001600061ffff168152602001606461ffff16815260200160c861ffff168152602001600561ffff168152602001606461ffff168152602001602861ffff16815260200161017761ffff168152602001600161ffff168152602001600161ffff1681525060d390600c620000a692919062000102565b50348015620000b457600080fd5b50336000806101000a81548173ffffffffffffffffffffffffffffffffffffffff021916908373ffffffffffffffffffffffffffffffffffffffff1602179055504260d281905550620001da565b82600c600f01601090048101928215620001935791602002820160005b838211156200016157835183826101000a81548161ffff021916908361ffff16021790555092602001926002016020816001010492830192600103026200011f565b8015620001915782816101000a81549061ffff021916905560020160208160010104928301926001030262000161565b505b509050620001a29190620001a6565b5090565b620001d791905b80821115620001d357600081816101000a81549061ffff021916905550600101620001ad565b5090565b90565b615d4380620001ea6000396000f30060806040526004361061015f576000357c0100000000000000000000000000000000000000000000000000000000900463ffffffff16806301ffc9a714610164578063081812fc146101c8578063095ea7b3146102355780631627540c1461027557806318160ddd146102b857806323b872dd146102e35780633ccfd60b1461034357806342842e0e1461036e5780635fc04d5e146103ce5780636352211e1461045c5780636ae535e6146104c957806370a08231146104f357806379ba50971461054a5780638762c369146105615780638fbf9acc1461059e5780639d2f053c146105e5578063a22cb4651461062e578063a65537e71461067d578063a74ba9f8146106a3578063b88d4fde146106ad578063c0576b7314610753578063d1deddb4146107e0578063e985e9c514610832578063ea3e9412146108ad578063ecc98ce4146108c4578063f0b9e5ba1461092d578063fc236d86146109e4575b600080fd5b34801561017057600080fd5b506101ae60048036038101908080357bffffffffffffffffffffffffffffffffffffffffffffffffffffffff19169060200190929190505050610a67565b604051808215151515815260200191505060405180910390f35b3480156101d457600080fd5b506101f360048036038101908080359060200190929190505050610df5565b604051808273ffffffffffffffffffffffffffffffffffffffff1673ffffffffffffffffffffffffffffffffffffffff16815260200191505060405180910390f35b610273600480360381019080803573ffffffffffffffffffffffffffffffffffffffff16906020019092919080359060200190929190505050610e45565b005b34801561028157600080fd5b506102b6600480360381019080803573ffffffffffffffffffffffffffffffffffffffff169060200190929190505050611094565b005b3480156102c457600080fd5b506102cd611133565b6040518082815260200191505060405180910390f35b610341600480360381019080803573ffffffffffffffffffffffffffffffffffffffff169060200190929190803573ffffffffffffffffffffffffffffffffffffffff16906020019092919080359060200190929190505050611140565b005b34801561034f57600080fd5b506103586114ba565b6040518082815260200191505060405180910390f35b6103cc600480360381019080803573ffffffffffffffffffffffffffffffffffffffff169060200190929190803573ffffffffffffffffffffffffffffffffffffffff169060200190929190803590602001909291905050506115e0565b005b3480156103da57600080fd5b5061043a600480360381019080803560ff169060200190929190803560ff169060200190929190803560ff169060200190929190803560ff169060200190929190803560ff1690602001909291908035906020019092919050505061179f565b604051808263ffffffff1663ffffffff16815260200191505060405180910390f35b34801561046857600080fd5b5061048760048036038101908080359060200190929190505050611a0b565b604051808273ffffffffffffffffffffffffffffffffffffffff1673ffffffffffffffffffffffffffffffffffffffff16815260200191505060405180910390f35b6104f16004803603810190808060a00190919291929080359060200190929190505050611ab6565b005b3480156104ff57600080fd5b50610534600480360381019080803573ffffffffffffffffffffffffffffffffffffffff16906020019092919050505061229e565b6040518082815260200191505060405180910390f35b34801561055657600080fd5b5061055f612322565b005b34801561056d57600080fd5b5061059c600480360381019080803563ffffffff1690602001909291908035906020019092919050505061247f565b005b3480156105aa57600080fd5b506105cf600480360381019080803563ffffffff16906020019092919050505061262b565b6040518082815260200191505060405180910390f35b3480156105f157600080fd5b5061061060048036038101908080359060200190929190505050612643565b604051808261ffff1661ffff16815260200191505060405180910390f35b34801561063a57600080fd5b5061067b600480360381019080803573ffffffffffffffffffffffffffffffffffffffff169060200190929190803515159060200190929190505050612670565b005b6106a1600480360381019080803563ffffffff169060200190929190505050612771565b005b6106ab612b09565b005b610751600480360381019080803573ffffffffffffffffffffffffffffffffffffffff169060200190929190803573ffffffffffffffffffffffffffffffffffffffff16906020019092919080359060200190929190803590602001908201803590602001908080601f016020809104026020016040519081016040528093929190818152602001838380828437820191505050505050919291929050505061307d565b005b34801561075f57600080fd5b5061077e600480360381019080803590602001909291905050506133fa565b604051808860ff1660ff1681526020018760ff1660ff1681526020018660ff1660ff1681526020018560ff1660ff1681526020018460ff1660ff1681526020018381526020018215151515815260200197505050505050505060405180910390f35b3480156107ec57600080fd5b5061081c600480360381019080803560ff169060200190929190803561ffff169060200190929190505050613499565b6040518082815260200191505060405180910390f35b34801561083e57600080fd5b50610893600480360381019080803573ffffffffffffffffffffffffffffffffffffffff169060200190929190803573ffffffffffffffffffffffffffffffffffffffff1690602001909291905050506135ce565b604051808215151515815260200191505060405180910390f35b3480156108b957600080fd5b506108c2613662565b005b3480156108d057600080fd5b506108d9613a7b565b60405180827bffffffffffffffffffffffffffffffffffffffffffffffffffffffff19167bffffffffffffffffffffffffffffffffffffffffffffffffffffffff1916815260200191505060405180910390f35b34801561093957600080fd5b50610990600480360381019080803573ffffffffffffffffffffffffffffffffffffffff16906020019092919080359060200190929190803590602001908201803590602001919091929391929390505050613aa2565b60405180827bffffffffffffffffffffffffffffffffffffffffffffffffffffffff19167bffffffffffffffffffffffffffffffffffffffffffffffffffffffff1916815260200191505060405180910390f35b3480156109f057600080fd5b50610a65600480360381019080803590602001908201803590602001919091929391929390803590602001908201803590602001919091929391929390803590602001908201803590602001919091929391929390803590602001908201803590602001919091929391929390505050613ad2565b005b600080600060405180807f737570706f727473496e7465726661636528627974657334290000000000000081525060190190506040518091039020915060405180807f746f74616c537570706c79282900000000000000000000000000000000000000815250600d019050604051809103902060405180807f736166655472616e7366657246726f6d28616464726573732c6164647265737381526020017f2c75696e743235362c6279746573290000000000000000000000000000000000815250602f019050604051809103902060405180807f736166655472616e7366657246726f6d28616464726573732c6164647265737381526020017f2c75696e743235362900000000000000000000000000000000000000000000008152506029019050604051809103902060405180807f7472616e7366657246726f6d28616464726573732c616464726573732c75696e81526020017f74323536290000000000000000000000000000000000000000000000000000008152506025019050604051809103902060405180807f6973417070726f766564466f72416c6c28616464726573732c6164647265737381526020017f29000000000000000000000000000000000000000000000000000000000000008152506021019050604051809103902060405180807f736574417070726f76616c466f72416c6c28616464726573732c626f6f6c2900815250601f019050604051809103902060405180807f676574417070726f7665642875696e74323536290000000000000000000000008152506014019050604051809103902060405180807f617070726f766528616464726573732c75696e743235362900000000000000008152506018019050604051809103902060405180807f6f776e65724f662875696e7432353629000000000000000000000000000000008152506010019050604051809103902060405180807f62616c616e63654f662861646472657373290000000000000000000000000000815250601201905060405180910390201818181818181818189050817bffffffffffffffffffffffffffffffffffffffffffffffffffffffff1916847bffffffffffffffffffffffffffffffffffffffffffffffffffffffff19161480610dec5750807bffffffffffffffffffffffffffffffffffffffffffffffffffffffff1916847bffffffffffffffffffffffffffffffffffffffffffffffffffffffff1916145b92505050919050565b600060028054905082101515610e0a57600080fd5b60d1600083815260200190815260200160002060009054906101000a900473ffffffffffffffffffffffffffffffffffffffff169050919050565b33818173ffffffffffffffffffffffffffffffffffffffff1660cd600083815260200190815260200160002060009054906101000a900473ffffffffffffffffffffffffffffffffffffffff1673ffffffffffffffffffffffffffffffffffffffff161480610f1257508173ffffffffffffffffffffffffffffffffffffffff1660d1600083815260200190815260200160002060009054906101000a900473ffffffffffffffffffffffffffffffffffffffff1673ffffffffffffffffffffffffffffffffffffffff16145b80610fd6575060d0600060cd600084815260200190815260200160002060009054906101000a900473ffffffffffffffffffffffffffffffffffffffff1673ffffffffffffffffffffffffffffffffffffffff1673ffffffffffffffffffffffffffffffffffffffff16815260200190815260200160002060008373ffffffffffffffffffffffffffffffffffffffff1673ffffffffffffffffffffffffffffffffffffffff16815260200190815260200160002060009054906101000a900460ff165b1515610fe157600080fd5b8360d1600085815260200190815260200160002060006101000a81548173ffffffffffffffffffffffffffffffffffffffff021916908373ffffffffffffffffffffffffffffffffffffffff160217905550828473ffffffffffffffffffffffffffffffffffffffff163373ffffffffffffffffffffffffffffffffffffffff167f8c5be1e5ebec7d5bd14f71427d1e84f3dd0314c0f7b2291e5b200ac8c7c3b92560405160405180910390a450505050565b6000809054906101000a900473ffffffffffffffffffffffffffffffffffffffff1673ffffffffffffffffffffffffffffffffffffffff163373ffffffffffffffffffffffffffffffffffffffff161415156110ef57600080fd5b80600160006101000a81548173ffffffffffffffffffffffffffffffffffffffff021916908373ffffffffffffffffffffffffffffffffffffffff16021790555050565b6000600280549050905090565b33818173ffffffffffffffffffffffffffffffffffffffff1660cd600083815260200190815260200160002060009054906101000a900473ffffffffffffffffffffffffffffffffffffffff1673ffffffffffffffffffffffffffffffffffffffff16148061120d57508173ffffffffffffffffffffffffffffffffffffffff1660d1600083815260200190815260200160002060009054906101000a900473ffffffffffffffffffffffffffffffffffffffff1673ffffffffffffffffffffffffffffffffffffffff16145b806112d1575060d0600060cd600084815260200190815260200160002060009054906101000a900473ffffffffffffffffffffffffffffffffffffffff1673ffffffffffffffffffffffffffffffffffffffff1673ffffffffffffffffffffffffffffffffffffffff16815260200190815260200160002060008373ffffffffffffffffffffffffffffffffffffffff1673ffffffffffffffffffffffffffffffffffffffff16815260200190815260200160002060009054906101000a900460ff165b15156112dc57600080fd5b600073ffffffffffffffffffffffffffffffffffffffff168473ffffffffffffffffffffffffffffffffffffffff161415801561131d575060028054905083105b8015611354575060028381548110151561133357fe5b906000526020600020906003020160020160009054906101000a900460ff16155b151561135f57600080fd5b6113676141e1565b8360cd600085815260200190815260200160002060006101000a81548173ffffffffffffffffffffffffffffffffffffffff021916908373ffffffffffffffffffffffffffffffffffffffff16021790555060cf60008573ffffffffffffffffffffffffffffffffffffffff1673ffffffffffffffffffffffffffffffffffffffff1681526020019081526020016000206000815480929190600101919050555060cf60008673ffffffffffffffffffffffffffffffffffffffff1673ffffffffffffffffffffffffffffffffffffffff1681526020019081526020016000206000815480929190600190039190505550828473ffffffffffffffffffffffffffffffffffffffff168673ffffffffffffffffffffffffffffffffffffffff167fddf252ad1be2c89b69c2b068fc378daa952ba7f163c4a11628f55a4df523b3ef60405160405180910390a45050505050565b600080600060ce60003373ffffffffffffffffffffffffffffffffffffffff1673ffffffffffffffffffffffffffffffffffffffff1681526020019081526020016000205411151561150b57600080fd5b60ce60003373ffffffffffffffffffffffffffffffffffffffff1673ffffffffffffffffffffffffffffffffffffffff168152602001908152602001600020549050600060ce60003373ffffffffffffffffffffffffffffffffffffffff1673ffffffffffffffffffffffffffffffffffffffff168152602001908152602001600020819055503373ffffffffffffffffffffffffffffffffffffffff166108fc829081150290604051600060405180830381858888f193505050501580156115d8573d6000803e3d6000fd5b508091505090565b33818173ffffffffffffffffffffffffffffffffffffffff1660cd600083815260200190815260200160002060009054906101000a900473ffffffffffffffffffffffffffffffffffffffff1673ffffffffffffffffffffffffffffffffffffffff1614806116ad57508173ffffffffffffffffffffffffffffffffffffffff1660d1600083815260200190815260200160002060009054906101000a900473ffffffffffffffffffffffffffffffffffffffff1673ffffffffffffffffffffffffffffffffffffffff16145b80611771575060d0600060cd600084815260200190815260200160002060009054906101000a900473ffffffffffffffffffffffffffffffffffffffff1673ffffffffffffffffffffffffffffffffffffffff1673ffffffffffffffffffffffffffffffffffffffff16815260200190815260200160002060008373ffffffffffffffffffffffffffffffffffffffff1673ffffffffffffffffffffffffffffffffffffffff16815260200190815260200160002060009054906101000a900460ff165b151561177c57600080fd5b611798858585602060405190810160405280600081525061307d565b5050505050565b60008060009054906101000a900473ffffffffffffffffffffffffffffffffffffffff1673ffffffffffffffffffffffffffffffffffffffff163373ffffffffffffffffffffffffffffffffffffffff161415156117fc57600080fd5b600260e0604051908101604052808960ff1681526020018860ff1681526020018760ff1681526020018660ff1681526020018560ff168152602001848152602001600015158152509080600181540180825580915050906001820390600052602060002090600302016000909192909190915060008201518160000160006101000a81548160ff021916908360ff16021790555060208201518160000160016101000a81548160ff021916908360ff16021790555060408201518160000160026101000a81548160ff021916908360ff16021790555060608201518160000160036101000a81548160ff021916908360ff16021790555060808201518160000160046101000a81548160ff021916908360ff16021790555060a0820151816001015560c08201518160020160006101000a81548160ff0219169083151502179055505050503360cd6000600280549050815260200190815260200160002060006101000a81548173ffffffffffffffffffffffffffffffffffffffff021916908373ffffffffffffffffffffffffffffffffffffffff1602179055506002805490503373ffffffffffffffffffffffffffffffffffffffff16600073ffffffffffffffffffffffffffffffffffffffff167fddf252ad1be2c89b69c2b068fc378daa952ba7f163c4a11628f55a4df523b3ef60405160405180910390a460028054905090509695505050505050565b60008073ffffffffffffffffffffffffffffffffffffffff1660cd600084815260200190815260200160002060009054906101000a900473ffffffffffffffffffffffffffffffffffffffff1673ffffffffffffffffffffffffffffffffffffffff1614151515611a7b57600080fd5b60cd600083815260200190815260200160002060009054906101000a900473ffffffffffffffffffffffffffffffffffffffff169050919050565b6000806000611ac3615a35565b6000806000873410158015611b2657506064606760003373ffffffffffffffffffffffffffffffffffffffff1673ffffffffffffffffffffffffffffffffffffffff1681526020019081526020016000206000600281101515611b2257fe5b0154145b1515611b3157600080fd5b600096505b6005871015611c9c573373ffffffffffffffffffffffffffffffffffffffff1660cd60008b8a600581101515611b6857fe5b602002013563ffffffff1663ffffffff16815260200190815260200160002060009054906101000a900473ffffffffffffffffffffffffffffffffffffffff1673ffffffffffffffffffffffffffffffffffffffff16148015611c14575060028988600581101515611bd657fe5b602002013563ffffffff1663ffffffff16815481101515611bf357fe5b906000526020600020906003020160020160009054906101000a900460ff16155b1515611c1f57600080fd5b600095505b6005861015611c8f578886600581101515611c3b57fe5b602002013563ffffffff1663ffffffff168988600581101515611c5a57fe5b602002013563ffffffff1663ffffffff16141580611c7757508587145b1515611c8257600080fd5b8580600101965050611c24565b8680600101975050611b36565b600096505b6005871015611d225760028988600581101515611cba57fe5b602002013563ffffffff1663ffffffff16815481101515611cd757fe5b906000526020600020906003020160000160039054906101000a900460ff168488600581101515611d0457fe5b602002019060ff16908160ff16815250508680600101975050611ca1565b600196505b6005871015611dec578387600581101515611d3e57fe5b602002015192506001870395505b60008610158015611d7457508386600581101515611d6657fe5b602002015160ff168360ff16105b15611dbc578386600581101515611d8757fe5b60200201518460018801600581101515611d9d57fe5b602002019060ff16908160ff1681525050858060019003965050611d4c565b828460018801600581101515611dce57fe5b602002019060ff16908160ff16815250508680600101975050611d27565b6001846002600581101515611dfd57fe5b60200201510360ff16945060d36006600c81101515611e1857fe5b601091828204019190066002029054906101000a900461ffff1661ffff16851015611e6e5760d36006600c81101515611e4d57fe5b601091828204019190066002029054906101000a900461ffff1661ffff1694505b60d36006600c81101515611e7e57fe5b601091828204019190066002029054906101000a900461ffff1661ffff16850396505b60d36006600c81101515611eb157fe5b601091828204019190066002029054906101000a900461ffff1661ffff1685018711158015611ee05750606487105b15612085576000606888606481101515611ef657fe5b01541415611f0357612078565b611f1e6000606889606481101515611f1757fe5b0154614297565b91508195505b81606888606481101515611f3457fe5b01540186101561207757606887606481101515611f4d57fe5b015486811515611f5957fe5b06905034600388606481101515611f6c57fe5b0160008381526020019081526020016000206002015411158015611fb4575087600388606481101515611f9b57fe5b0160008381526020019081526020016000206003015410155b801561203057503373ffffffffffffffffffffffffffffffffffffffff16600388606481101515611fe157fe5b01600083815260200190815260200160002060000160009054906101000a900473ffffffffffffffffffffffffffffffffffffffff1673ffffffffffffffffffffffffffffffffffffffff1614155b1561206a5761206587828b60058060200260405190810160405280929190826005602002808284378201915050505050614303565b612293565b8580600101965050611f24565b5b8680600101975050611ea1565b600096505b60058710156120f857600160028a60006005811015156120a657fe5b602002013563ffffffff1663ffffffff168154811015156120c357fe5b906000526020600020906003020160020160006101000a81548160ff021916908315150217905550868060010197505061208a565b6080604051908101604052803373ffffffffffffffffffffffffffffffffffffffff1681526020018a6005806020026040519081016040528092919082600560200280828437820191505050505081526020018981526020013481525060038660648110151561216457fe5b01600060688860648110151561217657fe5b0154815260200190815260200160002060008201518160000160006101000a81548173ffffffffffffffffffffffffffffffffffffffff021916908373ffffffffffffffffffffffffffffffffffffffff1602179055506020820151816001019060056121e4929190615a58565b50604082015181600201556060820151816003015590505060688560648110151561220b57fe5b01600081548092919060010191905055506040805190810160405280868152602001600160688860648110151561223e57fe5b015403815250606760003373ffffffffffffffffffffffffffffffffffffffff1673ffffffffffffffffffffffffffffffffffffffff168152602001908152602001600020906002612291929190615afb565b505b505050505050505050565b60008073ffffffffffffffffffffffffffffffffffffffff168273ffffffffffffffffffffffffffffffffffffffff16141515156122db57600080fd5b60cf60008373ffffffffffffffffffffffffffffffffffffffff1673ffffffffffffffffffffffffffffffffffffffff168152602001908152602001600020549050919050565b600160009054906101000a900473ffffffffffffffffffffffffffffffffffffffff1673ffffffffffffffffffffffffffffffffffffffff163373ffffffffffffffffffffffffffffffffffffffff1614151561237e57600080fd5b600160009054906101000a900473ffffffffffffffffffffffffffffffffffffffff1673ffffffffffffffffffffffffffffffffffffffff166000809054906101000a900473ffffffffffffffffffffffffffffffffffffffff1673ffffffffffffffffffffffffffffffffffffffff167f8be0079c531659141344cd1fd0a4f28419497f9722a3daafe3b4186f6b6457e060405160405180910390a3600160009054906101000a900473ffffffffffffffffffffffffffffffffffffffff166000806101000a81548173ffffffffffffffffffffffffffffffffffffffff021916908373ffffffffffffffffffffffffffffffffffffffff160217905550565b60028263ffffffff1681548110151561249457fe5b906000526020600020906003020160020160009054906101000a900460ff1615806124de5750600060cc60008463ffffffff1663ffffffff16815260200190815260200160002054115b801561254e57503373ffffffffffffffffffffffffffffffffffffffff1660cd60008463ffffffff16815260200190815260200160002060009054906101000a900473ffffffffffffffffffffffffffffffffffffffff1673ffffffffffffffffffffffffffffffffffffffff16145b151561255957600080fd5b8060cc60008463ffffffff1663ffffffff168152602001908152602001600020819055506000811461258c57600161258f565b60005b60028363ffffffff168154811015156125a457fe5b906000526020600020906003020160020160006101000a81548160ff021916908315150217905550803373ffffffffffffffffffffffffffffffffffffffff167ff924003c65581b32c1ca2123e131a27f2124f08fce76c9a94c102c80c2d5b4a684604051808263ffffffff1663ffffffff16815260200191505060405180910390a35050565b60cc6020528060005260406000206000915090505481565b60d381600c8110151561265257fe5b60109182820401919006600202915054906101000a900461ffff1681565b8060d060003373ffffffffffffffffffffffffffffffffffffffff1673ffffffffffffffffffffffffffffffffffffffff16815260200190815260200160002060008473ffffffffffffffffffffffffffffffffffffffff1673ffffffffffffffffffffffffffffffffffffffff16815260200190815260200160002060006101000a81548160ff0219169083151502179055508173ffffffffffffffffffffffffffffffffffffffff163373ffffffffffffffffffffffffffffffffffffffff167f17307eab39ab6107e8899845ad3d59bd9653f200f220920489ca2b5937696c3183604051808215151515815260200191505060405180910390a35050565b600080600060cc60008563ffffffff1663ffffffff168152602001908152602001600020541180156127c2575060cc60008463ffffffff1663ffffffff168152602001908152602001600020543410155b15156127cd57600080fd5b600060cc60008563ffffffff1663ffffffff1681526020019081526020016000208190555060cd60008463ffffffff16815260200190815260200160002060009054906101000a900473ffffffffffffffffffffffffffffffffffffffff16915061271061287160d36009600c8110151561284457fe5b601091828204019190066002029054906101000a900461ffff1661ffff1634614f9c90919063ffffffff16565b81151561287a57fe5b0490506128e1816128d33460ce60008773ffffffffffffffffffffffffffffffffffffffff1673ffffffffffffffffffffffffffffffffffffffff16815260200190815260200160002054614fd490919063ffffffff16565b614ff390919063ffffffff16565b60ce60008473ffffffffffffffffffffffffffffffffffffffff1673ffffffffffffffffffffffffffffffffffffffff168152602001908152602001600020819055506129978160ce60008060009054906101000a900473ffffffffffffffffffffffffffffffffffffffff1673ffffffffffffffffffffffffffffffffffffffff1673ffffffffffffffffffffffffffffffffffffffff16815260200190815260200160002054614fd490919063ffffffff16565b60ce60008060009054906101000a900473ffffffffffffffffffffffffffffffffffffffff1673ffffffffffffffffffffffffffffffffffffffff1673ffffffffffffffffffffffffffffffffffffffff168152602001908152602001600020819055503360d160008563ffffffff16815260200190815260200160002060006101000a81548173ffffffffffffffffffffffffffffffffffffffff021916908373ffffffffffffffffffffffffffffffffffffffff1602179055508263ffffffff163373ffffffffffffffffffffffffffffffffffffffff168373ffffffffffffffffffffffffffffffffffffffff167f8c5be1e5ebec7d5bd14f71427d1e84f3dd0314c0f7b2291e5b200ac8c7c3b92560405160405180910390a4600060028463ffffffff16815481101515612acb57fe5b906000526020600020906003020160020160006101000a81548160ff021916908315150217905550612b0482338563ffffffff16611140565b505050565b60008060008060008060d36002600c81101515612b2257fe5b601091828204019190066002029054906101000a900461ffff1661ffff1634101515612b7d5760d36005600c81101515612b5857fe5b601091828204019190066002029054906101000a900461ffff1661ffff169550612c5a565b60d36001600c81101515612b8d57fe5b601091828204019190066002029054906101000a900461ffff1661ffff1634101515612be85760d36004600c81101515612bc357fe5b601091828204019190066002029054906101000a900461ffff1661ffff169550612c59565b60d36000600c81101515612bf857fe5b601091828204019190066002029054906101000a900461ffff1661ffff1634101515612c535760d36003600c81101515612c2e57fe5b601091828204019190066002029054906101000a900461ffff1661ffff169550612c58565b600080fd5b5b5b612c626141e1565b600094505b60068560ff161015612f08573360cd6000600280549050815260200190815260200160002060006101000a81548173ffffffffffffffffffffffffffffffffffffffff021916908373ffffffffffffffffffffffffffffffffffffffff160217905550612cd96000876103e803614297565b93506001841415612cf557601192506015915060039050612d38565b600b841015612d0f57600e92506011915060029050612d37565b60c8841015612d2957600b9250600e915060019050612d36565b60089250600b9150600090505b5b5b600260e060405190810160405280612d508686614297565b60ff168152602001612d628686614297565b60ff168152602001612d748686614297565b60ff168152602001600160ff1681526020018360ff16815260200160008152602001600015158152509080600181540180825580915050906001820390600052602060002090600302016000909192909190915060008201518160000160006101000a81548160ff021916908360ff16021790555060208201518160000160016101000a81548160ff021916908360ff16021790555060408201518160000160026101000a81548160ff021916908360ff16021790555060608201518160000160036101000a81548160ff021916908360ff16021790555060808201518160000160046101000a81548160ff021916908360ff16021790555060a0820151816001015560c08201518160020160006101000a81548160ff0219169083151502179055505050506002805490503373ffffffffffffffffffffffffffffffffffffffff16600073ffffffffffffffffffffffffffffffffffffffff167fddf252ad1be2c89b69c2b068fc378daa952ba7f163c4a11628f55a4df523b3ef60405160405180910390a48480600101955050612c67565b612f5b600660cf60003373ffffffffffffffffffffffffffffffffffffffff1673ffffffffffffffffffffffffffffffffffffffff16815260200190815260200160002054614fd490919063ffffffff16565b60cf60003373ffffffffffffffffffffffffffffffffffffffff1673ffffffffffffffffffffffffffffffffffffffff168152602001908152602001600020819055506130113460ce60008060009054906101000a900473ffffffffffffffffffffffffffffffffffffffff1673ffffffffffffffffffffffffffffffffffffffff1673ffffffffffffffffffffffffffffffffffffffff16815260200190815260200160002054614fd490919063ffffffff16565b60ce60008060009054906101000a900473ffffffffffffffffffffffffffffffffffffffff1673ffffffffffffffffffffffffffffffffffffffff1673ffffffffffffffffffffffffffffffffffffffff16815260200190815260200160002081905550505050505050565b600033838173ffffffffffffffffffffffffffffffffffffffff1660cd600083815260200190815260200160002060009054906101000a900473ffffffffffffffffffffffffffffffffffffffff1673ffffffffffffffffffffffffffffffffffffffff16148061314c57508173ffffffffffffffffffffffffffffffffffffffff1660d1600083815260200190815260200160002060009054906101000a900473ffffffffffffffffffffffffffffffffffffffff1673ffffffffffffffffffffffffffffffffffffffff16145b80613210575060d0600060cd600084815260200190815260200160002060009054906101000a900473ffffffffffffffffffffffffffffffffffffffff1673ffffffffffffffffffffffffffffffffffffffff1673ffffffffffffffffffffffffffffffffffffffff16815260200190815260200160002060008373ffffffffffffffffffffffffffffffffffffffff1673ffffffffffffffffffffffffffffffffffffffff16815260200190815260200160002060009054906101000a900460ff165b151561321b57600080fd5b613226878787611140565b61322f8661500f565b156133f1578573ffffffffffffffffffffffffffffffffffffffff1663f0b9e5ba8887876040518463ffffffff167c0100000000000000000000000000000000000000000000000000000000028152600401808473ffffffffffffffffffffffffffffffffffffffff1673ffffffffffffffffffffffffffffffffffffffff16815260200183815260200180602001828103825283818151815260200191508051906020019080838360005b838110156132f65780820151818401526020810190506132db565b50505050905090810190601f1680156133235780820380516001836020036101000a031916815260200191505b50945050505050602060405180830381600087803b15801561334457600080fd5b505af1158015613358573d6000803e3d6000fd5b505050506040513d602081101561336e57600080fd5b8101908080519060200190929190505050925063f0b9e5ba7c0100000000000000000000000000000000000000000000000000000000027bffffffffffffffffffffffffffffffffffffffffffffffffffffffff1916837bffffffffffffffffffffffffffffffffffffffffffffffffffffffff19161415156133f057600080fd5b5b50505050505050565b60028181548110151561340957fe5b90600052602060002090600302016000915090508060000160009054906101000a900460ff16908060000160019054906101000a900460ff16908060000160029054906101000a900460ff16908060000160039054906101000a900460ff16908060000160049054906101000a900460ff16908060010154908060020160009054906101000a900460ff16905087565b60008060009054906101000a900473ffffffffffffffffffffffffffffffffffffffff1673ffffffffffffffffffffffffffffffffffffffff163373ffffffffffffffffffffffffffffffffffffffff161415156134f657600080fd5b60008261ffff161015801561350f5750600b8360ff1611155b151561351a57600080fd5b8260ff167fd7dd2782a7cef7ee43cf5a86222e0655f51235bf832cc5859c1687c29799fa7360d38560ff16600c8110151561355157fe5b601091828204019190066002029054906101000a900461ffff1684604051808361ffff1681526020018261ffff1681526020019250505060405180910390a28160d38460ff16600c811015156135a357fe5b601091828204019190066002026101000a81548161ffff021916908361ffff16021790555092915050565b600060d060008473ffffffffffffffffffffffffffffffffffffffff1673ffffffffffffffffffffffffffffffffffffffff16815260200190815260200160002060008373ffffffffffffffffffffffffffffffffffffffff1673ffffffffffffffffffffffffffffffffffffffff16815260200190815260200160002060009054906101000a900460ff16905092915050565b6000806000606760003373ffffffffffffffffffffffffffffffffffffffff1673ffffffffffffffffffffffffffffffffffffffff16815260200190815260200160002060006002811015156136b457fe5b01549250606483141515156136c857600080fd5b606760003373ffffffffffffffffffffffffffffffffffffffff1673ffffffffffffffffffffffffffffffffffffffff168152602001908152602001600020600160028110151561371557fe5b015491506137d360038460648110151561372b57fe5b0160008481526020019081526020016000206003015460ce600060038760648110151561375457fe5b01600087815260200190815260200160002060000160009054906101000a900473ffffffffffffffffffffffffffffffffffffffff1673ffffffffffffffffffffffffffffffffffffffff1673ffffffffffffffffffffffffffffffffffffffff16815260200190815260200160002054614fd490919063ffffffff16565b60ce60006003866064811015156137e657fe5b01600086815260200190815260200160002060000160009054906101000a900473ffffffffffffffffffffffffffffffffffffffff1673ffffffffffffffffffffffffffffffffffffffff1673ffffffffffffffffffffffffffffffffffffffff16815260200190815260200160002081905550600090505b6005811015613900576000600260038560648110151561387b57fe5b0160008581526020019081526020016000206001018360058110151561389d57fe5b600891828204019190066004029054906101000a900463ffffffff1663ffffffff168154811015156138cb57fe5b906000526020600020906003020160020160006101000a81548160ff021916908315150217905550808060010191505061385f565b60038360648110151561390f57fe5b016000600160688660648110151561392357fe5b015403815260200190815260200160002060038460648110151561394357fe5b0160008481526020019081526020016000206000820160009054906101000a900473ffffffffffffffffffffffffffffffffffffffff168160000160006101000a81548173ffffffffffffffffffffffffffffffffffffffff021916908373ffffffffffffffffffffffffffffffffffffffff16021790555060018201816001019060056139d2929190615b3b565b5060028201548160020155600382015481600301559050506068836064811015156139f957fe5b0160008154809291906001900391905055506040805190810160405280606460ff168152602001600060ff16815250606760003373ffffffffffffffffffffffffffffffffffffffff1673ffffffffffffffffffffffffffffffffffffffff168152602001908152602001600020906002613a75929190615b86565b50505050565b63f0b9e5ba7c01000000000000000000000000000000000000000000000000000000000281565b600063f0b9e5ba7c0100000000000000000000000000000000000000000000000000000000029050949350505050565b6000806000888890508b8b9050148015613af157508686905089899050145b8015613b0257508484905087879050145b1515613b0d57600080fd5b600091505b8a8a905082101561411157600092503373ffffffffffffffffffffffffffffffffffffffff1660cd60008d8d868181101515613b4a57fe5b9050602002013563ffffffff1663ffffffff16815260200190815260200160002060009054906101000a900473ffffffffffffffffffffffffffffffffffffffff1673ffffffffffffffffffffffffffffffffffffffff16141515613bae57600080fd5b5b60028b8b848181101515613bbf57fe5b9050602002013563ffffffff1663ffffffff16815481101515613bde57fe5b9060005260206000209060030201600101546005600360028e8e878181101515613c0457fe5b9050602002013563ffffffff1663ffffffff16815481101515613c2357fe5b906000526020600020906003020160000160039054906101000a900460ff1660ff160a811515613c4f57fe5b0411158015613cae5750606460028c8c858181101515613c6b57fe5b9050602002013563ffffffff1663ffffffff16815481101515613c8a57fe5b906000526020600020906003020160000160039054906101000a900460ff1660ff16105b15613d565760028b8b848181101515613cc357fe5b9050602002013563ffffffff1663ffffffff16815481101515613ce257fe5b9060005260206000209060030201600001600381819054906101000a900460ff168092919060010191906101000a81548160ff021916908360ff1602179055505060d3600a600c81101515613d3357fe5b601091828204019190066002029054906101000a900461ffff1683019250613baf565b8260ff168585848181101515613d6857fe5b9050602002013560ff168888858181101515613d8057fe5b9050602002013560ff168b8b868181101515613d9857fe5b9050602002013560ff16010160ff1611151515613db457600080fd5b6014600c600b60028e8e878181101515613dca57fe5b9050602002013563ffffffff1663ffffffff16815481101515613de957fe5b906000526020600020906003020160000160039054906101000a900460ff1660ff16811515613e1457fe5b04020160ff1690508888838181101515613e2a57fe5b9050602002013560ff1660028c8c858181101515613e4457fe5b9050602002013563ffffffff1663ffffffff16815481101515613e6357fe5b906000526020600020906003020160000160009054906101000a900460ff160160ff168110158015613efe57508686838181101515613e9e57fe5b9050602002013560ff1660028c8c858181101515613eb857fe5b9050602002013563ffffffff1663ffffffff16815481101515613ed757fe5b906000526020600020906003020160000160019054906101000a900460ff160160ff168110155b8015613f7357508484838181101515613f1357fe5b9050602002013560ff1660028c8c858181101515613f2d57fe5b9050602002013563ffffffff1663ffffffff16815481101515613f4c57fe5b906000526020600020906003020160000160029054906101000a900460ff160160ff168110155b1515613f7e57600080fd5b8888838181101515613f8c57fe5b9050602002013560ff1660028c8c858181101515613fa657fe5b9050602002013563ffffffff1663ffffffff16815481101515613fc557fe5b906000526020600020906003020160000160008282829054906101000a900460ff160192506101000a81548160ff021916908360ff160217905550868683818110151561400e57fe5b9050602002013560ff1660028c8c85818110151561402857fe5b9050602002013563ffffffff1663ffffffff1681548110151561404757fe5b906000526020600020906003020160000160018282829054906101000a900460ff160192506101000a81548160ff021916908360ff160217905550848483818110151561409057fe5b9050602002013560ff1660028c8c8581811015156140aa57fe5b9050602002013563ffffffff1663ffffffff168154811015156140c957fe5b906000526020600020906003020160000160028282829054906101000a900460ff160192506101000a81548160ff021916908360ff1602179055508180600101925050613b12565b7f5f51f46544c8772e92db231d6864d556bdfadcf93a05101fb01bfd70a85ec2db8b8b8b8b8b8b8b8b604051808060200180602001806020018060200185810385528d8d82818152602001925060200280828437820191505085810384528b8b82818152602001925060200280828437820191505085810383528989828181526020019250602002808284378201915050858103825287878281815260200192506020028082843782019150509c5050505050505050505050505060405180910390a15050505050505050505050565b600060cf60003373ffffffffffffffffffffffffffffffffffffffff1673ffffffffffffffffffffffffffffffffffffffff168152602001908152602001600020541415614295576040805190810160405280606460ff168152602001600060ff16815250606760003373ffffffffffffffffffffffffffffffffffffffff1673ffffffffffffffffffffffffffffffffffffffff168152602001908152602001600020906002614293929190615b86565b505b565b60006b032e8d52117a9c0e440a72406d11be3df58d1413010e78ff33000360d2546b93945d2a0eb88aabce720bbd02018115156142d057fe5b0660d281905550818314156142e857600090506142fd565b8283830360d2548115156142f857fe5b060190505b92915050565b61430b615bcb565b614313615c11565b61431b615c11565b600080600080600080600060038d60648110151561433557fe5b0160008d8152602001908152602001600020608060405190810160405290816000820160009054906101000a900473ffffffffffffffffffffffffffffffffffffffff1673ffffffffffffffffffffffffffffffffffffffff1673ffffffffffffffffffffffffffffffffffffffff16815260200160018201600580602002604051908101604052809291908260058015614411576020028201916000905b82829054906101000a900463ffffffff1663ffffffff16815260200190600401906020826003010492830192600103820291508084116143d45790505b5050505050815260200160028201548152602001600382015481525050995060688d60648110151561443f57fe5b01600081548092919060019003919050555060038d60648110151561446057fe5b01600060688f60648110151561447257fe5b0154815260200190815260200160002060038e60648110151561449157fe5b0160008e81526020019081526020016000206000820160009054906101000a900473ffffffffffffffffffffffffffffffffffffffff168160000160006101000a81548173ffffffffffffffffffffffffffffffffffffffff021916908373ffffffffffffffffffffffffffffffffffffffff1602179055506001820181600101906005614520929190615b3b565b5060028201548160020155600382015481600301559050506040805190810160405280606460ff168152602001600060ff16815250606760008c6000015173ffffffffffffffffffffffffffffffffffffffff1673ffffffffffffffffffffffffffffffffffffffff1681526020019081526020016000209060026145a6929190615b86565b5060009c505b60058d10156148e8578a8d6005811015156145c357fe5b6020020151898e6014811015156145d657fe5b602002019063ffffffff16908163ffffffff168152505060028b8e6005811015156145fd57fe5b602002015163ffffffff1681548110151561461457fe5b906000526020600020906003020160000160009054906101000a900460ff1660ff168960058f0160148110151561464757fe5b602002019063ffffffff16908163ffffffff168152505060028b8e60058110151561466e57fe5b602002015163ffffffff1681548110151561468557fe5b906000526020600020906003020160000160019054906101000a900460ff1660ff1689600a8f016014811015156146b857fe5b602002019063ffffffff16908163ffffffff168152505060028b8e6005811015156146df57fe5b602002015163ffffffff168154811015156146f657fe5b906000526020600020906003020160000160029054906101000a900460ff1660ff1689600f8f0160148110151561472957fe5b602002019063ffffffff16908163ffffffff168152505089602001518d60058110151561475257fe5b6020020151888e60148110151561476557fe5b602002019063ffffffff16908163ffffffff168152505060028a602001518e60058110151561479057fe5b602002015163ffffffff168154811015156147a757fe5b906000526020600020906003020160000160009054906101000a900460ff1660ff168860058f016014811015156147da57fe5b602002019063ffffffff16908163ffffffff168152505060028a602001518e60058110151561480557fe5b602002015163ffffffff1681548110151561481c57fe5b906000526020600020906003020160000160019054906101000a900460ff1660ff1688600a8f0160148110151561484f57fe5b602002019063ffffffff16908163ffffffff168152505060028a602001518e60058110151561487a57fe5b602002015163ffffffff1681548110151561489157fe5b906000526020600020906003020160000160029054906101000a900460ff1660ff1688600f8f016014811015156148c457fe5b602002019063ffffffff16908163ffffffff16815250508c806001019d50506145ac565b60009c505b60058d101561495857600060028b602001518f60058110151561490c57fe5b602002015163ffffffff1681548110151561492357fe5b906000526020600020906003020160020160006101000a81548160ff0219169083151502179055508c806001019d50506148ed565b6149668b8b60200151615022565b9650600187141561498a573395508960000151945034935089606001519250614be9565b60028714156149ac578960000151955033945089606001519350349250614be8565b614a068a6060015160ce60008d6000015173ffffffffffffffffffffffffffffffffffffffff1673ffffffffffffffffffffffffffffffffffffffff16815260200190815260200160002054614fd490919063ffffffff16565b60ce60008c6000015173ffffffffffffffffffffffffffffffffffffffff1673ffffffffffffffffffffffffffffffffffffffff16815260200190815260200160002081905550614a9f3460ce60003373ffffffffffffffffffffffffffffffffffffffff1673ffffffffffffffffffffffffffffffffffffffff16815260200190815260200160002054614fd490919063ffffffff16565b60ce60003373ffffffffffffffffffffffffffffffffffffffff1673ffffffffffffffffffffffffffffffffffffffff16815260200190815260200160002081905550868a6000015173ffffffffffffffffffffffffffffffffffffffff163373ffffffffffffffffffffffffffffffffffffffff167fdeb604bc66f2db85002d49e5e9a738a68e2f5b127db21e1e4632affedb74b9d78c8c60d3600b600c81101515614b4857fe5b601091828204019190066002029054906101000a900461ffff16886040518085601460200280838360005b83811015614b8e578082015181840152602081019050614b73565b5050505090500184601460200280838360005b83811015614bbc578082015181840152602081019050614ba1565b505050509050018360ff1660ff16815260200182815260200194505050505060405180910390a4614f8d565b5b348a606001511115614bfd57349150614c05565b896060015191505b612710614c4860d36009600c81101515614c1b57fe5b601091828204019190066002029054906101000a900461ffff1661ffff1684614f9c90919063ffffffff16565b811515614c5157fe5b049050614cca84614cbc83614cae8660ce60008d73ffffffffffffffffffffffffffffffffffffffff1673ffffffffffffffffffffffffffffffffffffffff16815260200190815260200160002054614fd490919063ffffffff16565b614ff390919063ffffffff16565b614fd490919063ffffffff16565b60ce60008873ffffffffffffffffffffffffffffffffffffffff1673ffffffffffffffffffffffffffffffffffffffff16815260200190815260200160002081905550614d7182614d638560ce60008a73ffffffffffffffffffffffffffffffffffffffff1673ffffffffffffffffffffffffffffffffffffffff16815260200190815260200160002054614fd490919063ffffffff16565b614ff390919063ffffffff16565b60ce60008773ffffffffffffffffffffffffffffffffffffffff1673ffffffffffffffffffffffffffffffffffffffff16815260200190815260200160002081905550614e278160ce60008060009054906101000a900473ffffffffffffffffffffffffffffffffffffffff1673ffffffffffffffffffffffffffffffffffffffff1673ffffffffffffffffffffffffffffffffffffffff16815260200190815260200160002054614fd490919063ffffffff16565b60ce60008060009054906101000a900473ffffffffffffffffffffffffffffffffffffffff1673ffffffffffffffffffffffffffffffffffffffff1673ffffffffffffffffffffffffffffffffffffffff16815260200190815260200160002081905550868a6000015173ffffffffffffffffffffffffffffffffffffffff163373ffffffffffffffffffffffffffffffffffffffff167fdeb604bc66f2db85002d49e5e9a738a68e2f5b127db21e1e4632affedb74b9d78c8c60d3600b600c81101515614ef157fe5b601091828204019190066002029054906101000a900461ffff16886040518085601460200280838360005b83811015614f37578082015181840152602081019050614f1c565b5050505090500184601460200280838360005b83811015614f65578082015181840152602081019050614f4a565b505050509050018360ff1660ff16815260200182815260200194505050505060405180910390a45b50505050505050505050505050565b600080831415614faf5760009050614fce565b8183029050818382811515614fc057fe5b04141515614fca57fe5b8090505b92915050565b60008183019050828110151515614fea57600080fd5b80905092915050565b600082821115151561500457600080fd5b818303905092915050565b600080823b905060008111915050919050565b600080600061502f615c35565b615037615c35565b600080945060009350600090505b60058110156152895760806040519081016040528060028a8460058110151561506a57fe5b602002015163ffffffff1681548110151561508157fe5b906000526020600020906003020160000160009054906101000a900460ff1660ff16815260200160028a846005811015156150b857fe5b602002015163ffffffff168154811015156150cf57fe5b906000526020600020906003020160000160019054906101000a900460ff1660ff16815260200160028a8460058110151561510657fe5b602002015163ffffffff1681548110151561511d57fe5b906000526020600020906003020160000160029054906101000a900460ff1660ff168152602001600063ffffffff16815250838260068110151561515d57fe5b60200201819052506080604051908101604052806002898460058110151561518157fe5b602002015163ffffffff1681548110151561519857fe5b906000526020600020906003020160000160009054906101000a900460ff1660ff168152602001600289846005811015156151cf57fe5b602002015163ffffffff168154811015156151e657fe5b906000526020600020906003020160000160019054906101000a900460ff1660ff1681526020016002898460058110151561521d57fe5b602002015163ffffffff1681548110151561523457fe5b906000526020600020906003020160000160029054906101000a900460ff1660ff168152602001600063ffffffff16815250828260068110151561527457fe5b60200201819052508080600101915050615045565b600090505b60058110156157a85781816006811015156152a557fe5b60200201516040015160ff1683826006811015156152bf57fe5b60200201516040015160ff1611156153d25781816006811015156152df57fe5b60200201516020015160ff1683826006811015156152f957fe5b60200201516000015160ff16111561536e57848060010195505060d3600b600c8110151561532357fe5b601091828204019190066002029054906101000a900461ffff16836001830160068110151561534e57fe5b60200201516000018181510191509060ff16908160ff16815250506153cd565b838060010194505060d3600b600c8110151561538657fe5b601091828204019190066002029054906101000a900461ffff1682600183016006811015156153b157fe5b60200201516020018181510191509060ff16908160ff16815250505b61579b565b81816006811015156153e057fe5b60200201516040015160ff1683826006811015156153fa57fe5b60200201516040015160ff16101561550d57828160068110151561541a57fe5b60200201516020015160ff16828260068110151561543457fe5b60200201516000015160ff1611156154a957838060010194505060d3600b600c8110151561545e57fe5b601091828204019190066002029054906101000a900461ffff16826001830160068110151561548957fe5b60200201516000018181510191509060ff16908160ff1681525050615508565b848060010195505060d3600b600c811015156154c157fe5b601091828204019190066002029054906101000a900461ffff1683600183016006811015156154ec57fe5b60200201516020018181510191509060ff16908160ff16815250505b61579a565b818160068110151561551b57fe5b60200201516000015160ff16838260068110151561553557fe5b60200201516000015160ff1611156155aa57848060010195505060d3600b600c8110151561555f57fe5b601091828204019190066002029054906101000a900461ffff16836001830160068110151561558a57fe5b60200201516000018181510191509060ff16908160ff1681525050615799565b81816006811015156155b857fe5b60200201516000015160ff1683826006811015156155d257fe5b60200201516000015160ff16101561564757838060010194505060d3600b600c811015156155fc57fe5b601091828204019190066002029054906101000a900461ffff16826001830160068110151561562757fe5b60200201516020018181510191509060ff16908160ff1681525050615798565b818160068110151561565557fe5b60200201516020015160ff16838260068110151561566f57fe5b60200201516020015160ff1611156156e457848060010195505060d3600b600c8110151561569957fe5b601091828204019190066002029054906101000a900461ffff1683600183016006811015156156c457fe5b60200201516020018181510191509060ff16908160ff1681525050615797565b82816006811015156156f257fe5b60200201516020015160ff16838260068110151561570c57fe5b60200201516020015160ff16101561578157838060010194505060d3600b600c8110151561573657fe5b601091828204019190066002029054906101000a900461ffff16826001830160068110151561576157fe5b60200201516020018181510191509060ff16908160ff1681525050615796565b61578d888860016157f2565b600095506157e7565b5b5b5b5b5b808060010191505061528e565b6157d08486116157b857876157ba565b885b8587106157c757886157c9565b895b60006157f2565b8385116157de5760026157e1565b60015b60ff1695505b505050505092915050565b60008090505b6005811015615a2f5760646002858360058110151561581357fe5b602002015163ffffffff1681548110151561582a57fe5b906000526020600020906003020160000160039054906101000a900460ff1660ff1610156158f75760d36007600c8110151561586257fe5b601091828204019190066002029054906101000a900461ffff1661ffff166002858360058110151561589057fe5b602002015163ffffffff168154811015156158a757fe5b90600052602060002090600302016001015401600285836005811015156158ca57fe5b602002015163ffffffff168154811015156158e157fe5b9060005260206000209060030201600101819055505b60646002848360058110151561590957fe5b602002015163ffffffff1681548110151561592057fe5b906000526020600020906003020160000160039054906101000a900460ff1660ff161015615a22578161597c5760d36008600c8110151561595d57fe5b601091828204019190066002029054906101000a900461ffff166159a7565b60d36007600c8110151561598c57fe5b601091828204019190066002029054906101000a900461ffff165b61ffff16600284836005811015156159bb57fe5b602002015163ffffffff168154811015156159d257fe5b90600052602060002090600302016001015401600284836005811015156159f557fe5b602002015163ffffffff16815481101515615a0c57fe5b9060005260206000209060030201600101819055505b80806001019150506157f8565b50505050565b60a060405190810160405280600590602082028038833980820191505090505090565b826005600701600890048101928215615aea5791602002820160005b83821115615ab857835183826101000a81548163ffffffff021916908363ffffffff1602179055509260200192600401602081600301049283019260010302615a74565b8015615ae85782816101000a81549063ffffffff0219169055600401602081600301049283019260010302615ab8565b505b509050615af79190615c64565b5090565b8260028101928215615b2a579160200282015b82811115615b29578251825591602001919060010190615b0e565b5b509050615b379190615c97565b5090565b826005600701600890048101928215615b7557916007016008900482015b82811115615b74578254825591600101919060010190615b59565b5b509050615b829190615c64565b5090565b8260028101928215615bba579160200282015b82811115615bb9578251829060ff16905591602001919060010190615b99565b5b509050615bc79190615c97565b5090565b61010060405190810160405280600073ffffffffffffffffffffffffffffffffffffffff168152602001615bfd615cbc565b815260200160008152602001600081525090565b61028060405190810160405280601490602082028038833980820191505090505090565b610300604051908101604052806006905b615c4e615cdf565b815260200190600190039081615c465790505090565b615c9491905b80821115615c9057600081816101000a81549063ffffffff021916905550600101615c6a565b5090565b90565b615cb991905b80821115615cb5576000816000905550600101615c9d565b5090565b90565b60a060405190810160405280600590602082028038833980820191505090505090565b608060405190810160405280600060ff168152602001600060ff168152602001600060ff168152602001600063ffffffff16815250905600a165627a7a7230582033faab3c9e73ee35438dab0ea519d8be68cc65258526838074383850a5225baa0029",
  "source": "pragma solidity ^0.4.24;\n\nimport \"./AdminPanel.sol\";\nimport \"./SafeMath.sol\";\n\n\ncontract CryptoMon is AdminPanel {\n\n    using SafeMath for uint8;\n\n    constructor() public {\n        seed = now;\n    }\n\n    function unbox()\n        external\n        payable\n    {\n        uint256 _modifier;\n        if (msg.value >= params[2]) {\n            _modifier = params[5];\n        } else if (msg.value >= params[1]) {\n            _modifier = params[4];\n        } else if (msg.value >= params[0]) {\n            _modifier = params[3];\n        } else {\n            revert();\n        }\n\n        firstLogin();\n\n        for (uint8 i = 0; i < 6; i++) {\n            owner[monsters.length] = msg.sender;\n            uint256 _tmp = randInt(0, 1000-_modifier);\n            uint256 _modRarityMin;\n            uint256 _modRarityMax;\n            uint8 _rarity;\n\n            if (_tmp == 1) {\n                _modRarityMin = 17;\n                _modRarityMax = 21;\n                _rarity = 3;\n            } else if (_tmp < 11) {\n                _modRarityMin = 14;\n                _modRarityMax = 17;\n                _rarity = 2;\n            } else if (_tmp < 200) {\n                _modRarityMin = 11;\n                _modRarityMax = 14;\n                _rarity = 1;\n            } else {\n                _modRarityMin = 8;\n                _modRarityMax = 11;\n                _rarity = 0;\n            }\n\n            monsters.push(\n                Monster(\n                    uint8(randInt(_modRarityMin, _modRarityMax)),\n                    uint8(randInt(_modRarityMin, _modRarityMax)),\n                    uint8(randInt(_modRarityMin, _modRarityMax)),\n                    1,\n                    _rarity,\n                    0,\n                    false\n                )\n            );\n\n            emit Transfer(address(0), msg.sender, monsters.length);\n        }\n\n        balances[msg.sender] = balances[msg.sender].add(6);\n        money[contractOwner] = money[contractOwner].add(msg.value);\n    }\n\n    function fight(uint32[5] _ids, uint256 _minBet)\n        external\n        payable\n    {\n        //Check that you actually payed at least your minimum bet and that you are not already waiting.\n        require(msg.value >= _minBet && isWaiting[msg.sender][0] == 100);\n        for (uint256 i = 0; i < 5; i++) {\n            //Check that you own all of the monsters you want to use to attack and that they aren't busy\n            require(owner[_ids[i]] == msg.sender && !monsters[_ids[i]].busy);\n            for (uint256 j = 0; j < 5; j++) {\n                //check that there aren't any duplicates in your squad\n                require(_ids[i] != _ids[j] || i == j);\n            }\n        }\n\n        //Sets the matchmaking level.\n        uint256 _level;\n        uint8[5] memory _tmp;\n        for (i = 0; i < 5; i++)\n            _tmp[i] = monsters[_ids[i]].lvl;\n\n        //Insertion sort algorithm\n        for (i = 1; i < 5; i++) {\n            uint8 temp = _tmp[i];\n            for (j = i - 1; j >= 0 && temp < _tmp[j]; j--)\n                _tmp[j+1] = _tmp[j];\n            _tmp[j + 1] = temp;\n        }\n\n        //The waiting queue has only 100 spaces, this means that its last index is 99, not 100.\n        _level = _tmp[2] - 1;\n\n        //Used to prevent underflow. More efficient than doing other checks\n        if (_level < params[6])\n            _level = params[6];\n\n        //Checks for every level in range.\n        for (i = _level - params[6]; i <= _level + params[6] && i < 100; i++) {\n\n            //Skips current range to save gas and prevent errors when using %0\n            if (waitingLength[i] == 0)\n                continue;\n\n            //Checks for every person in the current waiting level to find someone who has the same bet range as you.\n            //Starts to check from a random position in the array, to prevent unlucky people from never playing.\n            //Note that waiting is an array of mappings, this is because arrays are broken, and .length is not\n            //reset after deleting the last element.\n            uint256 _start = randInt(0, waitingLength[i]);\n            for (j = _start; j < waitingLength[i] + _start; j++) {\n                //j needs to be \"modulized\", to loop back in front of the array.\n                uint256 j_ = j % waitingLength[i];\n\n                //If it finds someone the fight starts and the functions returns.\n                if (\n                    waiting[i][j_].minBet <= msg.value &&\n                    waiting[i][j_].bet >= _minBet &&\n                    waiting[i][j_].addr != msg.sender\n                )\n                    return computeBattleResults(i, j_, _ids);\n            }\n        }\n\n        //If the contract couldn\"t find anyone, it puts you in the waiting list.\n        //All of your monsters are marked as busy.\n        for (i = 0; i < 5; i++)\n            monsters[_ids[0]].busy = true;\n\n        waiting[_level][waitingLength[_level]] = Defender(\n            msg.sender,\n            _ids,\n            _minBet,\n            msg.value\n        );\n\n        waitingLength[_level]++;\n\n        //Sets waiting state\n        isWaiting[msg.sender] = [_level, waitingLength[_level] - 1];\n    }\n\n    function stopWaiting()\n        external\n    {\n        uint256 _x = isWaiting[msg.sender][0];\n        require(_x != 100);\n        uint256 _y = isWaiting[msg.sender][1];\n\n        money[waiting[_x][_y].addr] = money[waiting[_x][_y].addr].add(waiting[_x][_y].bet);\n\n        for (uint256 i = 0; i < 5; i++)\n            monsters[waiting[_x][_y].deck[i]].busy = false;\n\n        waiting[_x][_y] = waiting[_x][waitingLength[_x] - 1];\n        waitingLength[_x]--;\n        isWaiting[msg.sender] = [100, 0];\n    }\n\n    function sellMonster(\n        uint32 _id,\n        uint256 _price\n    )\n        external\n    {\n        require((!monsters[_id].busy || inSale[_id] > 0) && owner[_id] == msg.sender);\n        inSale[_id] = _price;\n        monsters[_id].busy = (_price == 0) ? false : true;\n        emit ForSale(msg.sender, _id, _price);\n    }\n\n    function buyMonster(uint32 _id)\n        external\n        payable\n    {\n        require(inSale[_id] > 0 && msg.value >= inSale[_id]);\n        inSale[_id] = 0;\n        address owner_ = owner[_id];\n\n        uint256 _fees = msg.value.mul(params[9]) / 10000;\n        money[owner_] = money[owner_].add(msg.value).sub(_fees);\n        money[contractOwner] = money[contractOwner].add(_fees);\n\n        approved[_id] = msg.sender;\n        emit Approval(owner_, msg.sender, _id);\n\n        monsters[_id].busy = false;\n\n        transferFrom(owner_, msg.sender, _id);\n    }\n\n    function withdraw()\n        external\n        returns(uint)\n    {\n        require(money[msg.sender] > 0);\n        uint256 _amount = money[msg.sender];\n        money[msg.sender] = 0;\n        msg.sender.transfer(_amount);\n        return _amount;\n    }\n\n    function lvlUp (\n        uint32[] _ids,\n        uint8[] _atkMod,\n        uint8[] _defMod,\n        uint8[] _spdMod\n    )\n        external\n    {\n        require(\n            _ids.length == _atkMod.length &&\n            _atkMod.length == _defMod.length &&\n            _defMod.length == _spdMod.length\n        );\n\n        uint8 _skillsAvailable;\n\n        for (uint256 i = 0; i < _ids.length; i++) {\n            _skillsAvailable = 0;\n            require(owner[_ids[i]] == msg.sender);\n\n            while (\n                ((uint256(monsters[_ids[i]].lvl)**3)/5) <= monsters[_ids[i]].exp &&\n                monsters[_ids[i]].lvl < 100\n            ) {\n                monsters[_ids[i]].lvl++;\n                _skillsAvailable += uint8(params[10]);\n            }\n\n\n            require(_atkMod[i] + _defMod[i] + _spdMod[i] <= _skillsAvailable);\n\n            uint256 _cap = monsters[_ids[i]].lvl/11*12+20;\n\n            require(\n                _cap >= monsters[_ids[i]].atk+_atkMod[i] &&\n                _cap >= monsters[_ids[i]].def+_defMod[i] &&\n                _cap >= monsters[_ids[i]].spd+_spdMod[i]\n            );\n            monsters[_ids[i]].atk += _atkMod[i];\n            monsters[_ids[i]].def += _defMod[i];\n            monsters[_ids[i]].spd += _spdMod[i];\n        }\n        emit Upgraded(\n            _ids,\n            _atkMod,\n            _defMod,\n            _spdMod\n            );\n    }\n}\n",
  "sourcePath": "/Users/nico/Documents/repo/soluzioni-futura/cryptomon-dapp/contracts/CryptoMon.sol",
  "compiler": {
    "name": "solc",
    "version": "0.4.24+commit.e67f0147.Emscripten.clang"
  },
  "schemaVersion": "2.0.1",
  "updatedAt": "2018-07-02T10:41:15.239Z"
}