{
  "contractName": "CryptoMon",
  "abi": [
    {
      "constant": true,
      "inputs": [
        {
          "name": "interfaceID",
          "type": "bytes4"
        }
      ],
      "name": "supportsInterface",
      "outputs": [
        {
          "name": "",
          "type": "bool"
        }
      ],
      "payable": false,
      "stateMutability": "view",
      "type": "function"
    },
    {
      "constant": true,
      "inputs": [
        {
          "name": "_tokenId",
          "type": "uint256"
        }
      ],
      "name": "getApproved",
      "outputs": [
        {
          "name": "",
          "type": "address"
        }
      ],
      "payable": false,
      "stateMutability": "view",
      "type": "function"
    },
    {
      "constant": false,
      "inputs": [
        {
          "name": "_approved",
          "type": "address"
        },
        {
          "name": "_tokenId",
          "type": "uint256"
        }
      ],
      "name": "approve",
      "outputs": [],
      "payable": true,
      "stateMutability": "payable",
      "type": "function"
    },
    {
      "constant": false,
      "inputs": [
        {
          "name": "_min",
          "type": "uint256"
        },
        {
          "name": "_max",
          "type": "uint256"
        }
      ],
      "name": "randInt",
      "outputs": [
        {
          "name": "",
          "type": "uint256"
        }
      ],
      "payable": false,
      "stateMutability": "nonpayable",
      "type": "function"
    },
    {
      "constant": false,
      "inputs": [
        {
          "name": "_newOwner",
          "type": "address"
        }
      ],
      "name": "nominateNewOwner",
      "outputs": [],
      "payable": false,
      "stateMutability": "nonpayable",
      "type": "function"
    },
    {
      "constant": true,
      "inputs": [],
      "name": "totalSupply",
      "outputs": [
        {
          "name": "",
          "type": "uint256"
        }
      ],
      "payable": false,
      "stateMutability": "view",
      "type": "function"
    },
    {
      "constant": false,
      "inputs": [
        {
          "name": "_from",
          "type": "address"
        },
        {
          "name": "_to",
          "type": "address"
        },
        {
          "name": "_tokenId",
          "type": "uint256"
        }
      ],
      "name": "transferFrom",
      "outputs": [],
      "payable": true,
      "stateMutability": "payable",
      "type": "function"
    },
    {
      "constant": false,
      "inputs": [
        {
          "name": "_from",
          "type": "address"
        },
        {
          "name": "_to",
          "type": "address"
        },
        {
          "name": "_tokenId",
          "type": "uint256"
        }
      ],
      "name": "safeTransferFrom",
      "outputs": [],
      "payable": true,
      "stateMutability": "payable",
      "type": "function"
    },
    {
      "constant": false,
      "inputs": [
        {
          "name": "_atk",
          "type": "uint8"
        },
        {
          "name": "_def",
          "type": "uint8"
        },
        {
          "name": "_spd",
          "type": "uint8"
        },
        {
          "name": "_lvl",
          "type": "uint8"
        },
        {
          "name": "_rarity",
          "type": "uint8"
        },
        {
          "name": "_exp",
          "type": "uint256"
        }
      ],
      "name": "createCustomMonster",
      "outputs": [
        {
          "name": "",
          "type": "uint32"
        }
      ],
      "payable": false,
      "stateMutability": "nonpayable",
      "type": "function"
    },
    {
      "constant": true,
      "inputs": [
        {
          "name": "_tokenId",
          "type": "uint256"
        }
      ],
      "name": "ownerOf",
      "outputs": [
        {
          "name": "",
          "type": "address"
        }
      ],
      "payable": false,
      "stateMutability": "view",
      "type": "function"
    },
    {
      "constant": true,
      "inputs": [
        {
          "name": "_owner",
          "type": "address"
        }
      ],
      "name": "balanceOf",
      "outputs": [
        {
          "name": "",
          "type": "uint256"
        }
      ],
      "payable": false,
      "stateMutability": "view",
      "type": "function"
    },
    {
      "constant": false,
      "inputs": [],
      "name": "acceptOwnership",
      "outputs": [],
      "payable": false,
      "stateMutability": "nonpayable",
      "type": "function"
    },
    {
      "constant": true,
      "inputs": [
        {
          "name": "",
          "type": "uint32"
        }
      ],
      "name": "inSale",
      "outputs": [
        {
          "name": "",
          "type": "uint256"
        }
      ],
      "payable": false,
      "stateMutability": "view",
      "type": "function"
    },
    {
      "constant": true,
      "inputs": [
        {
          "name": "",
          "type": "uint256"
        }
      ],
      "name": "params",
      "outputs": [
        {
          "name": "",
          "type": "uint16"
        }
      ],
      "payable": false,
      "stateMutability": "view",
      "type": "function"
    },
    {
      "constant": false,
      "inputs": [
        {
          "name": "_operator",
          "type": "address"
        },
        {
          "name": "_approved",
          "type": "bool"
        }
      ],
      "name": "setApprovalForAll",
      "outputs": [],
      "payable": false,
      "stateMutability": "nonpayable",
      "type": "function"
    },
    {
      "constant": false,
      "inputs": [
        {
          "name": "_from",
          "type": "address"
        },
        {
          "name": "_to",
          "type": "address"
        },
        {
          "name": "_tokenId",
          "type": "uint256"
        },
        {
          "name": "_data",
          "type": "bytes"
        }
      ],
      "name": "safeTransferFrom",
      "outputs": [],
      "payable": true,
      "stateMutability": "payable",
      "type": "function"
    },
    {
      "constant": true,
      "inputs": [
        {
          "name": "",
          "type": "uint256"
        }
      ],
      "name": "monsters",
      "outputs": [
        {
          "name": "atk",
          "type": "uint8"
        },
        {
          "name": "def",
          "type": "uint8"
        },
        {
          "name": "spd",
          "type": "uint8"
        },
        {
          "name": "lvl",
          "type": "uint8"
        },
        {
          "name": "rarity",
          "type": "uint8"
        },
        {
          "name": "exp",
          "type": "uint256"
        },
        {
          "name": "busy",
          "type": "bool"
        }
      ],
      "payable": false,
      "stateMutability": "view",
      "type": "function"
    },
    {
      "constant": false,
      "inputs": [
        {
          "name": "_parameter",
          "type": "uint8"
        },
        {
          "name": "_newValue",
          "type": "uint16"
        }
      ],
      "name": "changeParameter",
      "outputs": [
        {
          "name": "",
          "type": "uint256"
        }
      ],
      "payable": false,
      "stateMutability": "nonpayable",
      "type": "function"
    },
    {
      "constant": true,
      "inputs": [
        {
          "name": "_owner",
          "type": "address"
        },
        {
          "name": "_operator",
          "type": "address"
        }
      ],
      "name": "isApprovedForAll",
      "outputs": [
        {
          "name": "",
          "type": "bool"
        }
      ],
      "payable": false,
      "stateMutability": "view",
      "type": "function"
    },
    {
      "constant": true,
      "inputs": [],
      "name": "ERC721_RECEIVED",
      "outputs": [
        {
          "name": "",
          "type": "bytes4"
        }
      ],
      "payable": false,
      "stateMutability": "view",
      "type": "function"
    },
    {
      "constant": false,
      "inputs": [
        {
          "name": "_from",
          "type": "address"
        },
        {
          "name": "_tokenId",
          "type": "uint256"
        },
        {
          "name": "_data",
          "type": "bytes"
        }
      ],
      "name": "onERC721Received",
      "outputs": [
        {
          "name": "",
          "type": "bytes4"
        }
      ],
      "payable": false,
      "stateMutability": "nonpayable",
      "type": "function"
    },
    {
      "inputs": [],
      "payable": false,
      "stateMutability": "nonpayable",
      "type": "constructor"
    },
    {
      "anonymous": false,
      "inputs": [
        {
          "indexed": true,
          "name": "_player",
          "type": "address"
        },
        {
          "indexed": false,
          "name": "_ids",
          "type": "uint32[6]"
        }
      ],
      "name": "Unboxed",
      "type": "event"
    },
    {
      "anonymous": false,
      "inputs": [
        {
          "indexed": true,
          "name": "_player",
          "type": "address"
        },
        {
          "indexed": false,
          "name": "_id",
          "type": "uint32"
        },
        {
          "indexed": true,
          "name": "_price",
          "type": "uint256"
        }
      ],
      "name": "ForSale",
      "type": "event"
    },
    {
      "anonymous": false,
      "inputs": [
        {
          "indexed": true,
          "name": "_attacker",
          "type": "address"
        },
        {
          "indexed": true,
          "name": "_defender",
          "type": "address"
        },
        {
          "indexed": false,
          "name": "_team1",
          "type": "uint32[20]"
        },
        {
          "indexed": false,
          "name": "_team2",
          "type": "uint32[20]"
        },
        {
          "indexed": false,
          "name": "_bonusWinner",
          "type": "uint8"
        },
        {
          "indexed": true,
          "name": "_winnerId",
          "type": "uint256"
        },
        {
          "indexed": false,
          "name": "_moneyWon",
          "type": "uint256"
        }
      ],
      "name": "Results",
      "type": "event"
    },
    {
      "anonymous": false,
      "inputs": [
        {
          "indexed": true,
          "name": "_parameter",
          "type": "uint8"
        },
        {
          "indexed": false,
          "name": "_oldValue",
          "type": "uint256"
        },
        {
          "indexed": false,
          "name": "_newValue",
          "type": "uint256"
        }
      ],
      "name": "Changed",
      "type": "event"
    },
    {
      "anonymous": false,
      "inputs": [
        {
          "indexed": false,
          "name": "_ids",
          "type": "uint32[]"
        },
        {
          "indexed": false,
          "name": "_atkMod",
          "type": "uint8[]"
        },
        {
          "indexed": false,
          "name": "_defMod",
          "type": "uint8[]"
        },
        {
          "indexed": false,
          "name": "_spdMod",
          "type": "uint8[]"
        }
      ],
      "name": "Upgraded",
      "type": "event"
    },
    {
      "anonymous": false,
      "inputs": [
        {
          "indexed": true,
          "name": "_from",
          "type": "address"
        },
        {
          "indexed": true,
          "name": "_to",
          "type": "address"
        },
        {
          "indexed": true,
          "name": "_tokenId",
          "type": "uint256"
        }
      ],
      "name": "Transfer",
      "type": "event"
    },
    {
      "anonymous": false,
      "inputs": [
        {
          "indexed": true,
          "name": "_owner",
          "type": "address"
        },
        {
          "indexed": true,
          "name": "_approved",
          "type": "address"
        },
        {
          "indexed": true,
          "name": "_tokenId",
          "type": "uint256"
        }
      ],
      "name": "Approval",
      "type": "event"
    },
    {
      "anonymous": false,
      "inputs": [
        {
          "indexed": true,
          "name": "_owner",
          "type": "address"
        },
        {
          "indexed": true,
          "name": "_operator",
          "type": "address"
        },
        {
          "indexed": false,
          "name": "_approved",
          "type": "bool"
        }
      ],
      "name": "ApprovalForAll",
      "type": "event"
    },
    {
      "anonymous": false,
      "inputs": [
        {
          "indexed": true,
          "name": "_from",
          "type": "address"
        },
        {
          "indexed": true,
          "name": "_to",
          "type": "address"
        }
      ],
      "name": "OwnershipTransferred",
      "type": "event"
    },
    {
      "constant": false,
      "inputs": [],
      "name": "unbox",
      "outputs": [],
      "payable": true,
      "stateMutability": "payable",
      "type": "function"
    },
    {
      "constant": false,
      "inputs": [
        {
          "name": "_ids",
          "type": "uint32[5]"
        },
        {
          "name": "_minBet",
          "type": "uint256"
        }
      ],
      "name": "fight",
      "outputs": [],
      "payable": true,
      "stateMutability": "payable",
      "type": "function"
    },
    {
      "constant": false,
      "inputs": [],
      "name": "stopWaiting",
      "outputs": [],
      "payable": false,
      "stateMutability": "nonpayable",
      "type": "function"
    },
    {
      "constant": false,
      "inputs": [
        {
          "name": "_id",
          "type": "uint32"
        },
        {
          "name": "_price",
          "type": "uint256"
        }
      ],
      "name": "sellMonster",
      "outputs": [],
      "payable": false,
      "stateMutability": "nonpayable",
      "type": "function"
    },
    {
      "constant": false,
      "inputs": [
        {
          "name": "_id",
          "type": "uint32"
        }
      ],
      "name": "buyMonster",
      "outputs": [],
      "payable": true,
      "stateMutability": "payable",
      "type": "function"
    },
    {
      "constant": false,
      "inputs": [],
      "name": "withdraw",
      "outputs": [
        {
          "name": "",
          "type": "uint256"
        }
      ],
      "payable": false,
      "stateMutability": "nonpayable",
      "type": "function"
    },
    {
      "constant": false,
      "inputs": [
        {
          "name": "_ids",
          "type": "uint32[]"
        },
        {
          "name": "_atkMod",
          "type": "uint8[]"
        },
        {
          "name": "_defMod",
          "type": "uint8[]"
        },
        {
          "name": "_spdMod",
          "type": "uint8[]"
        }
      ],
      "name": "lvlUp",
      "outputs": [],
      "payable": false,
      "stateMutability": "nonpayable",
      "type": "function"
    }
  ],
  "bytecode": "0x608060405261018060405190810160405280600261ffff168152602001600561ffff168152602001600861ffff168152602001600061ffff168152602001606461ffff16815260200160c861ffff168152602001600561ffff168152602001606461ffff168152602001602861ffff16815260200161017761ffff168152602001600161ffff168152602001600161ffff1681525060d390600c620000a692919062000102565b50348015620000b457600080fd5b50336000806101000a81548173ffffffffffffffffffffffffffffffffffffffff021916908373ffffffffffffffffffffffffffffffffffffffff1602179055504260d281905550620001da565b82600c600f01601090048101928215620001935791602002820160005b838211156200016157835183826101000a81548161ffff021916908361ffff16021790555092602001926002016020816001010492830192600103026200011f565b8015620001915782816101000a81549061ffff021916905560020160208160010104928301926001030262000161565b505b509050620001a29190620001a6565b5090565b620001d791905b80821115620001d357600081816101000a81549061ffff021916905550600101620001ad565b5090565b90565b615e5b80620001ea6000396000f30060806040526004361061016a576000357c0100000000000000000000000000000000000000000000000000000000900463ffffffff16806301ffc9a71461016f578063081812fc146101d3578063095ea7b3146102405780630b15650b146102805780631627540c146102cb57806318160ddd1461030e57806323b872dd146103395780633ccfd60b1461039957806342842e0e146103c45780635fc04d5e146104245780636352211e146104b25780636ae535e61461051f57806370a082311461054957806379ba5097146105a05780638762c369146105b75780638fbf9acc146105f45780639d2f053c1461063b578063a22cb46514610684578063a65537e7146106d3578063a74ba9f8146106f9578063b88d4fde14610703578063c0576b73146107a9578063d1deddb414610836578063e985e9c514610888578063ea3e941214610903578063ecc98ce41461091a578063f0b9e5ba14610983578063fc236d8614610a3a575b600080fd5b34801561017b57600080fd5b506101b960048036038101908080357bffffffffffffffffffffffffffffffffffffffffffffffffffffffff19169060200190929190505050610abd565b604051808215151515815260200191505060405180910390f35b3480156101df57600080fd5b506101fe60048036038101908080359060200190929190505050610e4b565b604051808273ffffffffffffffffffffffffffffffffffffffff1673ffffffffffffffffffffffffffffffffffffffff16815260200191505060405180910390f35b61027e600480360381019080803573ffffffffffffffffffffffffffffffffffffffff16906020019092919080359060200190929190505050610e9b565b005b34801561028c57600080fd5b506102b560048036038101908080359060200190929190803590602001909291905050506110ea565b6040518082815260200191505060405180910390f35b3480156102d757600080fd5b5061030c600480360381019080803573ffffffffffffffffffffffffffffffffffffffff16906020019092919050505061113b565b005b34801561031a57600080fd5b506103236111da565b6040518082815260200191505060405180910390f35b610397600480360381019080803573ffffffffffffffffffffffffffffffffffffffff169060200190929190803573ffffffffffffffffffffffffffffffffffffffff169060200190929190803590602001909291905050506111e7565b005b3480156103a557600080fd5b506103ae611561565b6040518082815260200191505060405180910390f35b610422600480360381019080803573ffffffffffffffffffffffffffffffffffffffff169060200190929190803573ffffffffffffffffffffffffffffffffffffffff16906020019092919080359060200190929190505050611687565b005b34801561043057600080fd5b50610490600480360381019080803560ff169060200190929190803560ff169060200190929190803560ff169060200190929190803560ff169060200190929190803560ff16906020019092919080359060200190929190505050611846565b604051808263ffffffff1663ffffffff16815260200191505060405180910390f35b3480156104be57600080fd5b506104dd60048036038101908080359060200190929190505050611ab2565b604051808273ffffffffffffffffffffffffffffffffffffffff1673ffffffffffffffffffffffffffffffffffffffff16815260200191505060405180910390f35b6105476004803603810190808060a00190919291929080359060200190929190505050611b5d565b005b34801561055557600080fd5b5061058a600480360381019080803573ffffffffffffffffffffffffffffffffffffffff169060200190929190505050612345565b6040518082815260200191505060405180910390f35b3480156105ac57600080fd5b506105b56123c9565b005b3480156105c357600080fd5b506105f2600480360381019080803563ffffffff16906020019092919080359060200190929190505050612526565b005b34801561060057600080fd5b50610625600480360381019080803563ffffffff1690602001909291905050506126d2565b6040518082815260200191505060405180910390f35b34801561064757600080fd5b50610666600480360381019080803590602001909291905050506126ea565b604051808261ffff1661ffff16815260200191505060405180910390f35b34801561069057600080fd5b506106d1600480360381019080803573ffffffffffffffffffffffffffffffffffffffff169060200190929190803515159060200190929190505050612717565b005b6106f7600480360381019080803563ffffffff169060200190929190505050612818565b005b610701612bb0565b005b6107a7600480360381019080803573ffffffffffffffffffffffffffffffffffffffff169060200190929190803573ffffffffffffffffffffffffffffffffffffffff16906020019092919080359060200190929190803590602001908201803590602001908080601f0160208091040260200160405190810160405280939291908181526020018383808284378201915050505050509192919290505050613201565b005b3480156107b557600080fd5b506107d46004803603810190808035906020019092919050505061357e565b604051808860ff1660ff1681526020018760ff1660ff1681526020018660ff1660ff1681526020018560ff1660ff1681526020018460ff1660ff1681526020018381526020018215151515815260200197505050505050505060405180910390f35b34801561084257600080fd5b50610872600480360381019080803560ff169060200190929190803561ffff16906020019092919050505061361d565b6040518082815260200191505060405180910390f35b34801561089457600080fd5b506108e9600480360381019080803573ffffffffffffffffffffffffffffffffffffffff169060200190929190803573ffffffffffffffffffffffffffffffffffffffff169060200190929190505050613752565b604051808215151515815260200191505060405180910390f35b34801561090f57600080fd5b506109186137e6565b005b34801561092657600080fd5b5061092f613bff565b60405180827bffffffffffffffffffffffffffffffffffffffffffffffffffffffff19167bffffffffffffffffffffffffffffffffffffffffffffffffffffffff1916815260200191505060405180910390f35b34801561098f57600080fd5b506109e6600480360381019080803573ffffffffffffffffffffffffffffffffffffffff16906020019092919080359060200190929190803590602001908201803590602001919091929391929390505050613c26565b60405180827bffffffffffffffffffffffffffffffffffffffffffffffffffffffff19167bffffffffffffffffffffffffffffffffffffffffffffffffffffffff1916815260200191505060405180910390f35b348015610a4657600080fd5b50610abb600480360381019080803590602001908201803590602001919091929391929390803590602001908201803590602001919091929391929390803590602001908201803590602001919091929391929390803590602001908201803590602001919091929391929390505050613c56565b005b600080600060405180807f737570706f727473496e7465726661636528627974657334290000000000000081525060190190506040518091039020915060405180807f746f74616c537570706c79282900000000000000000000000000000000000000815250600d019050604051809103902060405180807f736166655472616e7366657246726f6d28616464726573732c6164647265737381526020017f2c75696e743235362c6279746573290000000000000000000000000000000000815250602f019050604051809103902060405180807f736166655472616e7366657246726f6d28616464726573732c6164647265737381526020017f2c75696e743235362900000000000000000000000000000000000000000000008152506029019050604051809103902060405180807f7472616e7366657246726f6d28616464726573732c616464726573732c75696e81526020017f74323536290000000000000000000000000000000000000000000000000000008152506025019050604051809103902060405180807f6973417070726f766564466f72416c6c28616464726573732c6164647265737381526020017f29000000000000000000000000000000000000000000000000000000000000008152506021019050604051809103902060405180807f736574417070726f76616c466f72416c6c28616464726573732c626f6f6c2900815250601f019050604051809103902060405180807f676574417070726f7665642875696e74323536290000000000000000000000008152506014019050604051809103902060405180807f617070726f766528616464726573732c75696e743235362900000000000000008152506018019050604051809103902060405180807f6f776e65724f662875696e7432353629000000000000000000000000000000008152506010019050604051809103902060405180807f62616c616e63654f662861646472657373290000000000000000000000000000815250601201905060405180910390201818181818181818189050817bffffffffffffffffffffffffffffffffffffffffffffffffffffffff1916847bffffffffffffffffffffffffffffffffffffffffffffffffffffffff19161480610e425750807bffffffffffffffffffffffffffffffffffffffffffffffffffffffff1916847bffffffffffffffffffffffffffffffffffffffffffffffffffffffff1916145b92505050919050565b600060028054905082101515610e6057600080fd5b60d1600083815260200190815260200160002060009054906101000a900473ffffffffffffffffffffffffffffffffffffffff169050919050565b33818173ffffffffffffffffffffffffffffffffffffffff1660cd600083815260200190815260200160002060009054906101000a900473ffffffffffffffffffffffffffffffffffffffff1673ffffffffffffffffffffffffffffffffffffffff161480610f6857508173ffffffffffffffffffffffffffffffffffffffff1660d1600083815260200190815260200160002060009054906101000a900473ffffffffffffffffffffffffffffffffffffffff1673ffffffffffffffffffffffffffffffffffffffff16145b8061102c575060d0600060cd600084815260200190815260200160002060009054906101000a900473ffffffffffffffffffffffffffffffffffffffff1673ffffffffffffffffffffffffffffffffffffffff1673ffffffffffffffffffffffffffffffffffffffff16815260200190815260200160002060008373ffffffffffffffffffffffffffffffffffffffff1673ffffffffffffffffffffffffffffffffffffffff16815260200190815260200160002060009054906101000a900460ff165b151561103757600080fd5b8360d1600085815260200190815260200160002060006101000a81548173ffffffffffffffffffffffffffffffffffffffff021916908373ffffffffffffffffffffffffffffffffffffffff160217905550828473ffffffffffffffffffffffffffffffffffffffff163373ffffffffffffffffffffffffffffffffffffffff167f8c5be1e5ebec7d5bd14f71427d1e84f3dd0314c0f7b2291e5b200ac8c7c3b92560405160405180910390a450505050565b600061f91763df27425a60d254640aa00ce320020181151561110857fe5b0660d281905550818314156111205760009050611135565b8283830360d25481151561113057fe5b060190505b92915050565b6000809054906101000a900473ffffffffffffffffffffffffffffffffffffffff1673ffffffffffffffffffffffffffffffffffffffff163373ffffffffffffffffffffffffffffffffffffffff1614151561119657600080fd5b80600160006101000a81548173ffffffffffffffffffffffffffffffffffffffff021916908373ffffffffffffffffffffffffffffffffffffffff16021790555050565b6000600280549050905090565b33818173ffffffffffffffffffffffffffffffffffffffff1660cd600083815260200190815260200160002060009054906101000a900473ffffffffffffffffffffffffffffffffffffffff1673ffffffffffffffffffffffffffffffffffffffff1614806112b457508173ffffffffffffffffffffffffffffffffffffffff1660d1600083815260200190815260200160002060009054906101000a900473ffffffffffffffffffffffffffffffffffffffff1673ffffffffffffffffffffffffffffffffffffffff16145b80611378575060d0600060cd600084815260200190815260200160002060009054906101000a900473ffffffffffffffffffffffffffffffffffffffff1673ffffffffffffffffffffffffffffffffffffffff1673ffffffffffffffffffffffffffffffffffffffff16815260200190815260200160002060008373ffffffffffffffffffffffffffffffffffffffff1673ffffffffffffffffffffffffffffffffffffffff16815260200190815260200160002060009054906101000a900460ff165b151561138357600080fd5b600073ffffffffffffffffffffffffffffffffffffffff168473ffffffffffffffffffffffffffffffffffffffff16141580156113c4575060028054905083105b80156113fb57506002838154811015156113da57fe5b906000526020600020906003020160020160009054906101000a900460ff16155b151561140657600080fd5b61140e614365565b8360cd600085815260200190815260200160002060006101000a81548173ffffffffffffffffffffffffffffffffffffffff021916908373ffffffffffffffffffffffffffffffffffffffff16021790555060cf60008573ffffffffffffffffffffffffffffffffffffffff1673ffffffffffffffffffffffffffffffffffffffff1681526020019081526020016000206000815480929190600101919050555060cf60008673ffffffffffffffffffffffffffffffffffffffff1673ffffffffffffffffffffffffffffffffffffffff1681526020019081526020016000206000815480929190600190039190505550828473ffffffffffffffffffffffffffffffffffffffff168673ffffffffffffffffffffffffffffffffffffffff167fddf252ad1be2c89b69c2b068fc378daa952ba7f163c4a11628f55a4df523b3ef60405160405180910390a45050505050565b600080600060ce60003373ffffffffffffffffffffffffffffffffffffffff1673ffffffffffffffffffffffffffffffffffffffff168152602001908152602001600020541115156115b257600080fd5b60ce60003373ffffffffffffffffffffffffffffffffffffffff1673ffffffffffffffffffffffffffffffffffffffff168152602001908152602001600020549050600060ce60003373ffffffffffffffffffffffffffffffffffffffff1673ffffffffffffffffffffffffffffffffffffffff168152602001908152602001600020819055503373ffffffffffffffffffffffffffffffffffffffff166108fc829081150290604051600060405180830381858888f1935050505015801561167f573d6000803e3d6000fd5b508091505090565b33818173ffffffffffffffffffffffffffffffffffffffff1660cd600083815260200190815260200160002060009054906101000a900473ffffffffffffffffffffffffffffffffffffffff1673ffffffffffffffffffffffffffffffffffffffff16148061175457508173ffffffffffffffffffffffffffffffffffffffff1660d1600083815260200190815260200160002060009054906101000a900473ffffffffffffffffffffffffffffffffffffffff1673ffffffffffffffffffffffffffffffffffffffff16145b80611818575060d0600060cd600084815260200190815260200160002060009054906101000a900473ffffffffffffffffffffffffffffffffffffffff1673ffffffffffffffffffffffffffffffffffffffff1673ffffffffffffffffffffffffffffffffffffffff16815260200190815260200160002060008373ffffffffffffffffffffffffffffffffffffffff1673ffffffffffffffffffffffffffffffffffffffff16815260200190815260200160002060009054906101000a900460ff165b151561182357600080fd5b61183f8585856020604051908101604052806000815250613201565b5050505050565b60008060009054906101000a900473ffffffffffffffffffffffffffffffffffffffff1673ffffffffffffffffffffffffffffffffffffffff163373ffffffffffffffffffffffffffffffffffffffff161415156118a357600080fd5b600260e0604051908101604052808960ff1681526020018860ff1681526020018760ff1681526020018660ff1681526020018560ff168152602001848152602001600015158152509080600181540180825580915050906001820390600052602060002090600302016000909192909190915060008201518160000160006101000a81548160ff021916908360ff16021790555060208201518160000160016101000a81548160ff021916908360ff16021790555060408201518160000160026101000a81548160ff021916908360ff16021790555060608201518160000160036101000a81548160ff021916908360ff16021790555060808201518160000160046101000a81548160ff021916908360ff16021790555060a0820151816001015560c08201518160020160006101000a81548160ff0219169083151502179055505050503360cd6000600280549050815260200190815260200160002060006101000a81548173ffffffffffffffffffffffffffffffffffffffff021916908373ffffffffffffffffffffffffffffffffffffffff1602179055506002805490503373ffffffffffffffffffffffffffffffffffffffff16600073ffffffffffffffffffffffffffffffffffffffff167fddf252ad1be2c89b69c2b068fc378daa952ba7f163c4a11628f55a4df523b3ef60405160405180910390a460028054905090509695505050505050565b60008073ffffffffffffffffffffffffffffffffffffffff1660cd600084815260200190815260200160002060009054906101000a900473ffffffffffffffffffffffffffffffffffffffff1673ffffffffffffffffffffffffffffffffffffffff1614151515611b2257600080fd5b60cd600083815260200190815260200160002060009054906101000a900473ffffffffffffffffffffffffffffffffffffffff169050919050565b6000806000611b6a615b4d565b6000806000873410158015611bcd57506064606760003373ffffffffffffffffffffffffffffffffffffffff1673ffffffffffffffffffffffffffffffffffffffff1681526020019081526020016000206000600281101515611bc957fe5b0154145b1515611bd857600080fd5b600096505b6005871015611d43573373ffffffffffffffffffffffffffffffffffffffff1660cd60008b8a600581101515611c0f57fe5b602002013563ffffffff1663ffffffff16815260200190815260200160002060009054906101000a900473ffffffffffffffffffffffffffffffffffffffff1673ffffffffffffffffffffffffffffffffffffffff16148015611cbb575060028988600581101515611c7d57fe5b602002013563ffffffff1663ffffffff16815481101515611c9a57fe5b906000526020600020906003020160020160009054906101000a900460ff16155b1515611cc657600080fd5b600095505b6005861015611d36578886600581101515611ce257fe5b602002013563ffffffff1663ffffffff168988600581101515611d0157fe5b602002013563ffffffff1663ffffffff16141580611d1e57508587145b1515611d2957600080fd5b8580600101965050611ccb565b8680600101975050611bdd565b600096505b6005871015611dc95760028988600581101515611d6157fe5b602002013563ffffffff1663ffffffff16815481101515611d7e57fe5b906000526020600020906003020160000160039054906101000a900460ff168488600581101515611dab57fe5b602002019060ff16908160ff16815250508680600101975050611d48565b600196505b6005871015611e93578387600581101515611de557fe5b602002015192506001870395505b60008610158015611e1b57508386600581101515611e0d57fe5b602002015160ff168360ff16105b15611e63578386600581101515611e2e57fe5b60200201518460018801600581101515611e4457fe5b602002019060ff16908160ff1681525050858060019003965050611df3565b828460018801600581101515611e7557fe5b602002019060ff16908160ff16815250508680600101975050611dce565b6001846002600581101515611ea457fe5b60200201510360ff16945060d36006600c81101515611ebf57fe5b601091828204019190066002029054906101000a900461ffff1661ffff16851015611f155760d36006600c81101515611ef457fe5b601091828204019190066002029054906101000a900461ffff1661ffff1694505b60d36006600c81101515611f2557fe5b601091828204019190066002029054906101000a900461ffff1661ffff16850396505b60d36006600c81101515611f5857fe5b601091828204019190066002029054906101000a900461ffff1661ffff1685018711158015611f875750606487105b1561212c576000606888606481101515611f9d57fe5b01541415611faa5761211f565b611fc56000606889606481101515611fbe57fe5b01546110ea565b91508195505b81606888606481101515611fdb57fe5b01540186101561211e57606887606481101515611ff457fe5b01548681151561200057fe5b0690503460038860648110151561201357fe5b016000838152602001908152602001600020600201541115801561205b57508760038860648110151561204257fe5b0160008381526020019081526020016000206003015410155b80156120d757503373ffffffffffffffffffffffffffffffffffffffff1660038860648110151561208857fe5b01600083815260200190815260200160002060000160009054906101000a900473ffffffffffffffffffffffffffffffffffffffff1673ffffffffffffffffffffffffffffffffffffffff1614155b156121115761210c87828b6005806020026040519081016040528092919082600560200280828437820191505050505061441b565b61233a565b8580600101965050611fcb565b5b8680600101975050611f48565b600096505b600587101561219f57600160028a600060058110151561214d57fe5b602002013563ffffffff1663ffffffff1681548110151561216a57fe5b906000526020600020906003020160020160006101000a81548160ff0219169083151502179055508680600101975050612131565b6080604051908101604052803373ffffffffffffffffffffffffffffffffffffffff1681526020018a6005806020026040519081016040528092919082600560200280828437820191505050505081526020018981526020013481525060038660648110151561220b57fe5b01600060688860648110151561221d57fe5b0154815260200190815260200160002060008201518160000160006101000a81548173ffffffffffffffffffffffffffffffffffffffff021916908373ffffffffffffffffffffffffffffffffffffffff16021790555060208201518160010190600561228b929190615b70565b5060408201518160020155606082015181600301559050506068856064811015156122b257fe5b0160008154809291906001019190505550604080519081016040528086815260200160016068886064811015156122e557fe5b015403815250606760003373ffffffffffffffffffffffffffffffffffffffff1673ffffffffffffffffffffffffffffffffffffffff168152602001908152602001600020906002612338929190615c13565b505b505050505050505050565b60008073ffffffffffffffffffffffffffffffffffffffff168273ffffffffffffffffffffffffffffffffffffffff161415151561238257600080fd5b60cf60008373ffffffffffffffffffffffffffffffffffffffff1673ffffffffffffffffffffffffffffffffffffffff168152602001908152602001600020549050919050565b600160009054906101000a900473ffffffffffffffffffffffffffffffffffffffff1673ffffffffffffffffffffffffffffffffffffffff163373ffffffffffffffffffffffffffffffffffffffff1614151561242557600080fd5b600160009054906101000a900473ffffffffffffffffffffffffffffffffffffffff1673ffffffffffffffffffffffffffffffffffffffff166000809054906101000a900473ffffffffffffffffffffffffffffffffffffffff1673ffffffffffffffffffffffffffffffffffffffff167f8be0079c531659141344cd1fd0a4f28419497f9722a3daafe3b4186f6b6457e060405160405180910390a3600160009054906101000a900473ffffffffffffffffffffffffffffffffffffffff166000806101000a81548173ffffffffffffffffffffffffffffffffffffffff021916908373ffffffffffffffffffffffffffffffffffffffff160217905550565b60028263ffffffff1681548110151561253b57fe5b906000526020600020906003020160020160009054906101000a900460ff1615806125855750600060cc60008463ffffffff1663ffffffff16815260200190815260200160002054115b80156125f557503373ffffffffffffffffffffffffffffffffffffffff1660cd60008463ffffffff16815260200190815260200160002060009054906101000a900473ffffffffffffffffffffffffffffffffffffffff1673ffffffffffffffffffffffffffffffffffffffff16145b151561260057600080fd5b8060cc60008463ffffffff1663ffffffff1681526020019081526020016000208190555060008114612633576001612636565b60005b60028363ffffffff1681548110151561264b57fe5b906000526020600020906003020160020160006101000a81548160ff021916908315150217905550803373ffffffffffffffffffffffffffffffffffffffff167ff924003c65581b32c1ca2123e131a27f2124f08fce76c9a94c102c80c2d5b4a684604051808263ffffffff1663ffffffff16815260200191505060405180910390a35050565b60cc6020528060005260406000206000915090505481565b60d381600c811015156126f957fe5b60109182820401919006600202915054906101000a900461ffff1681565b8060d060003373ffffffffffffffffffffffffffffffffffffffff1673ffffffffffffffffffffffffffffffffffffffff16815260200190815260200160002060008473ffffffffffffffffffffffffffffffffffffffff1673ffffffffffffffffffffffffffffffffffffffff16815260200190815260200160002060006101000a81548160ff0219169083151502179055508173ffffffffffffffffffffffffffffffffffffffff163373ffffffffffffffffffffffffffffffffffffffff167f17307eab39ab6107e8899845ad3d59bd9653f200f220920489ca2b5937696c3183604051808215151515815260200191505060405180910390a35050565b600080600060cc60008563ffffffff1663ffffffff16815260200190815260200160002054118015612869575060cc60008463ffffffff1663ffffffff168152602001908152602001600020543410155b151561287457600080fd5b600060cc60008563ffffffff1663ffffffff1681526020019081526020016000208190555060cd60008463ffffffff16815260200190815260200160002060009054906101000a900473ffffffffffffffffffffffffffffffffffffffff16915061271061291860d36009600c811015156128eb57fe5b601091828204019190066002029054906101000a900461ffff1661ffff16346150b490919063ffffffff16565b81151561292157fe5b0490506129888161297a3460ce60008773ffffffffffffffffffffffffffffffffffffffff1673ffffffffffffffffffffffffffffffffffffffff168152602001908152602001600020546150ec90919063ffffffff16565b61510b90919063ffffffff16565b60ce60008473ffffffffffffffffffffffffffffffffffffffff1673ffffffffffffffffffffffffffffffffffffffff16815260200190815260200160002081905550612a3e8160ce60008060009054906101000a900473ffffffffffffffffffffffffffffffffffffffff1673ffffffffffffffffffffffffffffffffffffffff1673ffffffffffffffffffffffffffffffffffffffff168152602001908152602001600020546150ec90919063ffffffff16565b60ce60008060009054906101000a900473ffffffffffffffffffffffffffffffffffffffff1673ffffffffffffffffffffffffffffffffffffffff1673ffffffffffffffffffffffffffffffffffffffff168152602001908152602001600020819055503360d160008563ffffffff16815260200190815260200160002060006101000a81548173ffffffffffffffffffffffffffffffffffffffff021916908373ffffffffffffffffffffffffffffffffffffffff1602179055508263ffffffff163373ffffffffffffffffffffffffffffffffffffffff168373ffffffffffffffffffffffffffffffffffffffff167f8c5be1e5ebec7d5bd14f71427d1e84f3dd0314c0f7b2291e5b200ac8c7c3b92560405160405180910390a4600060028463ffffffff16815481101515612b7257fe5b906000526020600020906003020160020160006101000a81548160ff021916908315150217905550612bab82338563ffffffff166111e7565b505050565b600080600080600080600060d36002600c81101515612bcb57fe5b601091828204019190066002029054906101000a900461ffff1661ffff1634101515612c265760d36005600c81101515612c0157fe5b601091828204019190066002029054906101000a900461ffff1661ffff169650612d03565b60d36001600c81101515612c3657fe5b601091828204019190066002029054906101000a900461ffff1661ffff1634101515612c915760d36004600c81101515612c6c57fe5b601091828204019190066002029054906101000a900461ffff1661ffff169650612d02565b60d36000600c81101515612ca157fe5b601091828204019190066002029054906101000a900461ffff1661ffff1634101515612cfc5760d36003600c81101515612cd757fe5b601091828204019190066002029054906101000a900461ffff1661ffff169650612d01565b600080fd5b5b5b612d0b614365565b600094505b6006851015612ff1573360cd6000600280549050815260200190815260200160002060006101000a81548173ffffffffffffffffffffffffffffffffffffffff021916908373ffffffffffffffffffffffffffffffffffffffff160217905550612d7f6000886103e8036110ea565b93506001841415612d9b57601192506015915060039050612dde565b600b841015612db557600e92506011915060029050612ddd565b60c8841015612dcf57600b9250600e915060019050612ddc565b60089250600b9150600090505b5b5b600260e060405190810160405280612df686866110ea565b60ff168152602001612e0886866110ea565b60ff168152602001612e1a86866110ea565b60ff168152602001600160ff1681526020018360ff16815260200160008152602001600015158152509080600181540180825580915050906001820390600052602060002090600302016000909192909190915060008201518160000160006101000a81548160ff021916908360ff16021790555060208201518160000160016101000a81548160ff021916908360ff16021790555060408201518160000160026101000a81548160ff021916908360ff16021790555060608201518160000160036101000a81548160ff021916908360ff16021790555060808201518160000160046101000a81548160ff021916908360ff16021790555060a0820151816001015560c08201518160020160006101000a81548160ff0219169083151502179055505050506001600280549050033373ffffffffffffffffffffffffffffffffffffffff16600073ffffffffffffffffffffffffffffffffffffffff167fddf252ad1be2c89b69c2b068fc378daa952ba7f163c4a11628f55a4df523b3ef60405160405180910390a46001600280549050038686600681101515612fbb57fe5b600891828204019190066004026101000a81548163ffffffff021916908363ffffffff1602179055508480600101955050612d10565b3373ffffffffffffffffffffffffffffffffffffffff167fad1f291efd41642f8dfebb6bfc7fae8725716b968743bac9010db2a02a126f458760405180826006801561307e576020028201916000905b82829054906101000a900463ffffffff1663ffffffff16815260200190600401906020826003010492830192600103820291508084116130415790505b505091505060405180910390a26130de600660cf60003373ffffffffffffffffffffffffffffffffffffffff1673ffffffffffffffffffffffffffffffffffffffff168152602001908152602001600020546150ec90919063ffffffff16565b60cf60003373ffffffffffffffffffffffffffffffffffffffff1673ffffffffffffffffffffffffffffffffffffffff168152602001908152602001600020819055506131943460ce60008060009054906101000a900473ffffffffffffffffffffffffffffffffffffffff1673ffffffffffffffffffffffffffffffffffffffff1673ffffffffffffffffffffffffffffffffffffffff168152602001908152602001600020546150ec90919063ffffffff16565b60ce60008060009054906101000a900473ffffffffffffffffffffffffffffffffffffffff1673ffffffffffffffffffffffffffffffffffffffff1673ffffffffffffffffffffffffffffffffffffffff1681526020019081526020016000208190555050505050505050565b600033838173ffffffffffffffffffffffffffffffffffffffff1660cd600083815260200190815260200160002060009054906101000a900473ffffffffffffffffffffffffffffffffffffffff1673ffffffffffffffffffffffffffffffffffffffff1614806132d057508173ffffffffffffffffffffffffffffffffffffffff1660d1600083815260200190815260200160002060009054906101000a900473ffffffffffffffffffffffffffffffffffffffff1673ffffffffffffffffffffffffffffffffffffffff16145b80613394575060d0600060cd600084815260200190815260200160002060009054906101000a900473ffffffffffffffffffffffffffffffffffffffff1673ffffffffffffffffffffffffffffffffffffffff1673ffffffffffffffffffffffffffffffffffffffff16815260200190815260200160002060008373ffffffffffffffffffffffffffffffffffffffff1673ffffffffffffffffffffffffffffffffffffffff16815260200190815260200160002060009054906101000a900460ff165b151561339f57600080fd5b6133aa8787876111e7565b6133b386615127565b15613575578573ffffffffffffffffffffffffffffffffffffffff1663f0b9e5ba8887876040518463ffffffff167c0100000000000000000000000000000000000000000000000000000000028152600401808473ffffffffffffffffffffffffffffffffffffffff1673ffffffffffffffffffffffffffffffffffffffff16815260200183815260200180602001828103825283818151815260200191508051906020019080838360005b8381101561347a57808201518184015260208101905061345f565b50505050905090810190601f1680156134a75780820380516001836020036101000a031916815260200191505b50945050505050602060405180830381600087803b1580156134c857600080fd5b505af11580156134dc573d6000803e3d6000fd5b505050506040513d60208110156134f257600080fd5b8101908080519060200190929190505050925063f0b9e5ba7c0100000000000000000000000000000000000000000000000000000000027bffffffffffffffffffffffffffffffffffffffffffffffffffffffff1916837bffffffffffffffffffffffffffffffffffffffffffffffffffffffff191614151561357457600080fd5b5b50505050505050565b60028181548110151561358d57fe5b90600052602060002090600302016000915090508060000160009054906101000a900460ff16908060000160019054906101000a900460ff16908060000160029054906101000a900460ff16908060000160039054906101000a900460ff16908060000160049054906101000a900460ff16908060010154908060020160009054906101000a900460ff16905087565b60008060009054906101000a900473ffffffffffffffffffffffffffffffffffffffff1673ffffffffffffffffffffffffffffffffffffffff163373ffffffffffffffffffffffffffffffffffffffff1614151561367a57600080fd5b60008261ffff16101580156136935750600b8360ff1611155b151561369e57600080fd5b8260ff167fd7dd2782a7cef7ee43cf5a86222e0655f51235bf832cc5859c1687c29799fa7360d38560ff16600c811015156136d557fe5b601091828204019190066002029054906101000a900461ffff1684604051808361ffff1681526020018261ffff1681526020019250505060405180910390a28160d38460ff16600c8110151561372757fe5b601091828204019190066002026101000a81548161ffff021916908361ffff16021790555092915050565b600060d060008473ffffffffffffffffffffffffffffffffffffffff1673ffffffffffffffffffffffffffffffffffffffff16815260200190815260200160002060008373ffffffffffffffffffffffffffffffffffffffff1673ffffffffffffffffffffffffffffffffffffffff16815260200190815260200160002060009054906101000a900460ff16905092915050565b6000806000606760003373ffffffffffffffffffffffffffffffffffffffff1673ffffffffffffffffffffffffffffffffffffffff168152602001908152602001600020600060028110151561383857fe5b015492506064831415151561384c57600080fd5b606760003373ffffffffffffffffffffffffffffffffffffffff1673ffffffffffffffffffffffffffffffffffffffff168152602001908152602001600020600160028110151561389957fe5b015491506139576003846064811015156138af57fe5b0160008481526020019081526020016000206003015460ce60006003876064811015156138d857fe5b01600087815260200190815260200160002060000160009054906101000a900473ffffffffffffffffffffffffffffffffffffffff1673ffffffffffffffffffffffffffffffffffffffff1673ffffffffffffffffffffffffffffffffffffffff168152602001908152602001600020546150ec90919063ffffffff16565b60ce600060038660648110151561396a57fe5b01600086815260200190815260200160002060000160009054906101000a900473ffffffffffffffffffffffffffffffffffffffff1673ffffffffffffffffffffffffffffffffffffffff1673ffffffffffffffffffffffffffffffffffffffff16815260200190815260200160002081905550600090505b6005811015613a8457600060026003856064811015156139ff57fe5b01600085815260200190815260200160002060010183600581101515613a2157fe5b600891828204019190066004029054906101000a900463ffffffff1663ffffffff16815481101515613a4f57fe5b906000526020600020906003020160020160006101000a81548160ff02191690831515021790555080806001019150506139e3565b600383606481101515613a9357fe5b0160006001606886606481101515613aa757fe5b0154038152602001908152602001600020600384606481101515613ac757fe5b0160008481526020019081526020016000206000820160009054906101000a900473ffffffffffffffffffffffffffffffffffffffff168160000160006101000a81548173ffffffffffffffffffffffffffffffffffffffff021916908373ffffffffffffffffffffffffffffffffffffffff1602179055506001820181600101906005613b56929190615c53565b506002820154816002015560038201548160030155905050606883606481101515613b7d57fe5b0160008154809291906001900391905055506040805190810160405280606460ff168152602001600060ff16815250606760003373ffffffffffffffffffffffffffffffffffffffff1673ffffffffffffffffffffffffffffffffffffffff168152602001908152602001600020906002613bf9929190615c9e565b50505050565b63f0b9e5ba7c01000000000000000000000000000000000000000000000000000000000281565b600063f0b9e5ba7c0100000000000000000000000000000000000000000000000000000000029050949350505050565b6000806000888890508b8b9050148015613c7557508686905089899050145b8015613c8657508484905087879050145b1515613c9157600080fd5b600091505b8a8a905082101561429557600092503373ffffffffffffffffffffffffffffffffffffffff1660cd60008d8d868181101515613cce57fe5b9050602002013563ffffffff1663ffffffff16815260200190815260200160002060009054906101000a900473ffffffffffffffffffffffffffffffffffffffff1673ffffffffffffffffffffffffffffffffffffffff16141515613d3257600080fd5b5b60028b8b848181101515613d4357fe5b9050602002013563ffffffff1663ffffffff16815481101515613d6257fe5b9060005260206000209060030201600101546005600360028e8e878181101515613d8857fe5b9050602002013563ffffffff1663ffffffff16815481101515613da757fe5b906000526020600020906003020160000160039054906101000a900460ff1660ff160a811515613dd357fe5b0411158015613e325750606460028c8c858181101515613def57fe5b9050602002013563ffffffff1663ffffffff16815481101515613e0e57fe5b906000526020600020906003020160000160039054906101000a900460ff1660ff16105b15613eda5760028b8b848181101515613e4757fe5b9050602002013563ffffffff1663ffffffff16815481101515613e6657fe5b9060005260206000209060030201600001600381819054906101000a900460ff168092919060010191906101000a81548160ff021916908360ff1602179055505060d3600a600c81101515613eb757fe5b601091828204019190066002029054906101000a900461ffff1683019250613d33565b8260ff168585848181101515613eec57fe5b9050602002013560ff168888858181101515613f0457fe5b9050602002013560ff168b8b868181101515613f1c57fe5b9050602002013560ff16010160ff1611151515613f3857600080fd5b6014600c600b60028e8e878181101515613f4e57fe5b9050602002013563ffffffff1663ffffffff16815481101515613f6d57fe5b906000526020600020906003020160000160039054906101000a900460ff1660ff16811515613f9857fe5b04020160ff1690508888838181101515613fae57fe5b9050602002013560ff1660028c8c858181101515613fc857fe5b9050602002013563ffffffff1663ffffffff16815481101515613fe757fe5b906000526020600020906003020160000160009054906101000a900460ff160160ff1681101580156140825750868683818110151561402257fe5b9050602002013560ff1660028c8c85818110151561403c57fe5b9050602002013563ffffffff1663ffffffff1681548110151561405b57fe5b906000526020600020906003020160000160019054906101000a900460ff160160ff168110155b80156140f75750848483818110151561409757fe5b9050602002013560ff1660028c8c8581811015156140b157fe5b9050602002013563ffffffff1663ffffffff168154811015156140d057fe5b906000526020600020906003020160000160029054906101000a900460ff160160ff168110155b151561410257600080fd5b888883818110151561411057fe5b9050602002013560ff1660028c8c85818110151561412a57fe5b9050602002013563ffffffff1663ffffffff1681548110151561414957fe5b906000526020600020906003020160000160008282829054906101000a900460ff160192506101000a81548160ff021916908360ff160217905550868683818110151561419257fe5b9050602002013560ff1660028c8c8581811015156141ac57fe5b9050602002013563ffffffff1663ffffffff168154811015156141cb57fe5b906000526020600020906003020160000160018282829054906101000a900460ff160192506101000a81548160ff021916908360ff160217905550848483818110151561421457fe5b9050602002013560ff1660028c8c85818110151561422e57fe5b9050602002013563ffffffff1663ffffffff1681548110151561424d57fe5b906000526020600020906003020160000160028282829054906101000a900460ff160192506101000a81548160ff021916908360ff1602179055508180600101925050613c96565b7f5f51f46544c8772e92db231d6864d556bdfadcf93a05101fb01bfd70a85ec2db8b8b8b8b8b8b8b8b604051808060200180602001806020018060200185810385528d8d82818152602001925060200280828437820191505085810384528b8b82818152602001925060200280828437820191505085810383528989828181526020019250602002808284378201915050858103825287878281815260200192506020028082843782019150509c5050505050505050505050505060405180910390a15050505050505050505050565b600060cf60003373ffffffffffffffffffffffffffffffffffffffff1673ffffffffffffffffffffffffffffffffffffffff168152602001908152602001600020541415614419576040805190810160405280606460ff168152602001600060ff16815250606760003373ffffffffffffffffffffffffffffffffffffffff1673ffffffffffffffffffffffffffffffffffffffff168152602001908152602001600020906002614417929190615c9e565b505b565b614423615ce3565b61442b615d29565b614433615d29565b600080600080600080600060038d60648110151561444d57fe5b0160008d8152602001908152602001600020608060405190810160405290816000820160009054906101000a900473ffffffffffffffffffffffffffffffffffffffff1673ffffffffffffffffffffffffffffffffffffffff1673ffffffffffffffffffffffffffffffffffffffff16815260200160018201600580602002604051908101604052809291908260058015614529576020028201916000905b82829054906101000a900463ffffffff1663ffffffff16815260200190600401906020826003010492830192600103820291508084116144ec5790505b5050505050815260200160028201548152602001600382015481525050995060688d60648110151561455757fe5b01600081548092919060019003919050555060038d60648110151561457857fe5b01600060688f60648110151561458a57fe5b0154815260200190815260200160002060038e6064811015156145a957fe5b0160008e81526020019081526020016000206000820160009054906101000a900473ffffffffffffffffffffffffffffffffffffffff168160000160006101000a81548173ffffffffffffffffffffffffffffffffffffffff021916908373ffffffffffffffffffffffffffffffffffffffff1602179055506001820181600101906005614638929190615c53565b5060028201548160020155600382015481600301559050506040805190810160405280606460ff168152602001600060ff16815250606760008c6000015173ffffffffffffffffffffffffffffffffffffffff1673ffffffffffffffffffffffffffffffffffffffff1681526020019081526020016000209060026146be929190615c9e565b5060009c505b60058d1015614a00578a8d6005811015156146db57fe5b6020020151898e6014811015156146ee57fe5b602002019063ffffffff16908163ffffffff168152505060028b8e60058110151561471557fe5b602002015163ffffffff1681548110151561472c57fe5b906000526020600020906003020160000160009054906101000a900460ff1660ff168960058f0160148110151561475f57fe5b602002019063ffffffff16908163ffffffff168152505060028b8e60058110151561478657fe5b602002015163ffffffff1681548110151561479d57fe5b906000526020600020906003020160000160019054906101000a900460ff1660ff1689600a8f016014811015156147d057fe5b602002019063ffffffff16908163ffffffff168152505060028b8e6005811015156147f757fe5b602002015163ffffffff1681548110151561480e57fe5b906000526020600020906003020160000160029054906101000a900460ff1660ff1689600f8f0160148110151561484157fe5b602002019063ffffffff16908163ffffffff168152505089602001518d60058110151561486a57fe5b6020020151888e60148110151561487d57fe5b602002019063ffffffff16908163ffffffff168152505060028a602001518e6005811015156148a857fe5b602002015163ffffffff168154811015156148bf57fe5b906000526020600020906003020160000160009054906101000a900460ff1660ff168860058f016014811015156148f257fe5b602002019063ffffffff16908163ffffffff168152505060028a602001518e60058110151561491d57fe5b602002015163ffffffff1681548110151561493457fe5b906000526020600020906003020160000160019054906101000a900460ff1660ff1688600a8f0160148110151561496757fe5b602002019063ffffffff16908163ffffffff168152505060028a602001518e60058110151561499257fe5b602002015163ffffffff168154811015156149a957fe5b906000526020600020906003020160000160029054906101000a900460ff1660ff1688600f8f016014811015156149dc57fe5b602002019063ffffffff16908163ffffffff16815250508c806001019d50506146c4565b60009c505b60058d1015614a7057600060028b602001518f600581101515614a2457fe5b602002015163ffffffff16815481101515614a3b57fe5b906000526020600020906003020160020160006101000a81548160ff0219169083151502179055508c806001019d5050614a05565b614a7e8b8b6020015161513a565b96506001871415614aa2573395508960000151945034935089606001519250614d01565b6002871415614ac4578960000151955033945089606001519350349250614d00565b614b1e8a6060015160ce60008d6000015173ffffffffffffffffffffffffffffffffffffffff1673ffffffffffffffffffffffffffffffffffffffff168152602001908152602001600020546150ec90919063ffffffff16565b60ce60008c6000015173ffffffffffffffffffffffffffffffffffffffff1673ffffffffffffffffffffffffffffffffffffffff16815260200190815260200160002081905550614bb73460ce60003373ffffffffffffffffffffffffffffffffffffffff1673ffffffffffffffffffffffffffffffffffffffff168152602001908152602001600020546150ec90919063ffffffff16565b60ce60003373ffffffffffffffffffffffffffffffffffffffff1673ffffffffffffffffffffffffffffffffffffffff16815260200190815260200160002081905550868a6000015173ffffffffffffffffffffffffffffffffffffffff163373ffffffffffffffffffffffffffffffffffffffff167fdeb604bc66f2db85002d49e5e9a738a68e2f5b127db21e1e4632affedb74b9d78c8c60d3600b600c81101515614c6057fe5b601091828204019190066002029054906101000a900461ffff16886040518085601460200280838360005b83811015614ca6578082015181840152602081019050614c8b565b5050505090500184601460200280838360005b83811015614cd4578082015181840152602081019050614cb9565b505050509050018360ff1660ff16815260200182815260200194505050505060405180910390a46150a5565b5b348a606001511115614d1557349150614d1d565b896060015191505b612710614d6060d36009600c81101515614d3357fe5b601091828204019190066002029054906101000a900461ffff1661ffff16846150b490919063ffffffff16565b811515614d6957fe5b049050614de284614dd483614dc68660ce60008d73ffffffffffffffffffffffffffffffffffffffff1673ffffffffffffffffffffffffffffffffffffffff168152602001908152602001600020546150ec90919063ffffffff16565b61510b90919063ffffffff16565b6150ec90919063ffffffff16565b60ce60008873ffffffffffffffffffffffffffffffffffffffff1673ffffffffffffffffffffffffffffffffffffffff16815260200190815260200160002081905550614e8982614e7b8560ce60008a73ffffffffffffffffffffffffffffffffffffffff1673ffffffffffffffffffffffffffffffffffffffff168152602001908152602001600020546150ec90919063ffffffff16565b61510b90919063ffffffff16565b60ce60008773ffffffffffffffffffffffffffffffffffffffff1673ffffffffffffffffffffffffffffffffffffffff16815260200190815260200160002081905550614f3f8160ce60008060009054906101000a900473ffffffffffffffffffffffffffffffffffffffff1673ffffffffffffffffffffffffffffffffffffffff1673ffffffffffffffffffffffffffffffffffffffff168152602001908152602001600020546150ec90919063ffffffff16565b60ce60008060009054906101000a900473ffffffffffffffffffffffffffffffffffffffff1673ffffffffffffffffffffffffffffffffffffffff1673ffffffffffffffffffffffffffffffffffffffff16815260200190815260200160002081905550868a6000015173ffffffffffffffffffffffffffffffffffffffff163373ffffffffffffffffffffffffffffffffffffffff167fdeb604bc66f2db85002d49e5e9a738a68e2f5b127db21e1e4632affedb74b9d78c8c60d3600b600c8110151561500957fe5b601091828204019190066002029054906101000a900461ffff16886040518085601460200280838360005b8381101561504f578082015181840152602081019050615034565b5050505090500184601460200280838360005b8381101561507d578082015181840152602081019050615062565b505050509050018360ff1660ff16815260200182815260200194505050505060405180910390a45b50505050505050505050505050565b6000808314156150c757600090506150e6565b81830290508183828115156150d857fe5b041415156150e257fe5b8090505b92915050565b6000818301905082811015151561510257600080fd5b80905092915050565b600082821115151561511c57600080fd5b818303905092915050565b600080823b905060008111915050919050565b6000806000615147615d4d565b61514f615d4d565b600080945060009350600090505b60058110156153a15760806040519081016040528060028a8460058110151561518257fe5b602002015163ffffffff1681548110151561519957fe5b906000526020600020906003020160000160009054906101000a900460ff1660ff16815260200160028a846005811015156151d057fe5b602002015163ffffffff168154811015156151e757fe5b906000526020600020906003020160000160019054906101000a900460ff1660ff16815260200160028a8460058110151561521e57fe5b602002015163ffffffff1681548110151561523557fe5b906000526020600020906003020160000160029054906101000a900460ff1660ff168152602001600063ffffffff16815250838260068110151561527557fe5b60200201819052506080604051908101604052806002898460058110151561529957fe5b602002015163ffffffff168154811015156152b057fe5b906000526020600020906003020160000160009054906101000a900460ff1660ff168152602001600289846005811015156152e757fe5b602002015163ffffffff168154811015156152fe57fe5b906000526020600020906003020160000160019054906101000a900460ff1660ff1681526020016002898460058110151561533557fe5b602002015163ffffffff1681548110151561534c57fe5b906000526020600020906003020160000160029054906101000a900460ff1660ff168152602001600063ffffffff16815250828260068110151561538c57fe5b6020020181905250808060010191505061515d565b600090505b60058110156158c05781816006811015156153bd57fe5b60200201516040015160ff1683826006811015156153d757fe5b60200201516040015160ff1611156154ea5781816006811015156153f757fe5b60200201516020015160ff16838260068110151561541157fe5b60200201516000015160ff16111561548657848060010195505060d3600b600c8110151561543b57fe5b601091828204019190066002029054906101000a900461ffff16836001830160068110151561546657fe5b60200201516000018181510191509060ff16908160ff16815250506154e5565b838060010194505060d3600b600c8110151561549e57fe5b601091828204019190066002029054906101000a900461ffff1682600183016006811015156154c957fe5b60200201516020018181510191509060ff16908160ff16815250505b6158b3565b81816006811015156154f857fe5b60200201516040015160ff16838260068110151561551257fe5b60200201516040015160ff16101561562557828160068110151561553257fe5b60200201516020015160ff16828260068110151561554c57fe5b60200201516000015160ff1611156155c157838060010194505060d3600b600c8110151561557657fe5b601091828204019190066002029054906101000a900461ffff1682600183016006811015156155a157fe5b60200201516000018181510191509060ff16908160ff1681525050615620565b848060010195505060d3600b600c811015156155d957fe5b601091828204019190066002029054906101000a900461ffff16836001830160068110151561560457fe5b60200201516020018181510191509060ff16908160ff16815250505b6158b2565b818160068110151561563357fe5b60200201516000015160ff16838260068110151561564d57fe5b60200201516000015160ff1611156156c257848060010195505060d3600b600c8110151561567757fe5b601091828204019190066002029054906101000a900461ffff1683600183016006811015156156a257fe5b60200201516000018181510191509060ff16908160ff16815250506158b1565b81816006811015156156d057fe5b60200201516000015160ff1683826006811015156156ea57fe5b60200201516000015160ff16101561575f57838060010194505060d3600b600c8110151561571457fe5b601091828204019190066002029054906101000a900461ffff16826001830160068110151561573f57fe5b60200201516020018181510191509060ff16908160ff16815250506158b0565b818160068110151561576d57fe5b60200201516020015160ff16838260068110151561578757fe5b60200201516020015160ff1611156157fc57848060010195505060d3600b600c811015156157b157fe5b601091828204019190066002029054906101000a900461ffff1683600183016006811015156157dc57fe5b60200201516020018181510191509060ff16908160ff16815250506158af565b828160068110151561580a57fe5b60200201516020015160ff16838260068110151561582457fe5b60200201516020015160ff16101561589957838060010194505060d3600b600c8110151561584e57fe5b601091828204019190066002029054906101000a900461ffff16826001830160068110151561587957fe5b60200201516020018181510191509060ff16908160ff16815250506158ae565b6158a58888600161590a565b600095506158ff565b5b5b5b5b5b80806001019150506153a6565b6158e88486116158d057876158d2565b885b8587106158df57886158e1565b895b600061590a565b8385116158f65760026158f9565b60015b60ff1695505b505050505092915050565b60008090505b6005811015615b475760646002858360058110151561592b57fe5b602002015163ffffffff1681548110151561594257fe5b906000526020600020906003020160000160039054906101000a900460ff1660ff161015615a0f5760d36007600c8110151561597a57fe5b601091828204019190066002029054906101000a900461ffff1661ffff16600285836005811015156159a857fe5b602002015163ffffffff168154811015156159bf57fe5b90600052602060002090600302016001015401600285836005811015156159e257fe5b602002015163ffffffff168154811015156159f957fe5b9060005260206000209060030201600101819055505b606460028483600581101515615a2157fe5b602002015163ffffffff16815481101515615a3857fe5b906000526020600020906003020160000160039054906101000a900460ff1660ff161015615b3a5781615a945760d36008600c81101515615a7557fe5b601091828204019190066002029054906101000a900461ffff16615abf565b60d36007600c81101515615aa457fe5b601091828204019190066002029054906101000a900461ffff165b61ffff1660028483600581101515615ad357fe5b602002015163ffffffff16815481101515615aea57fe5b9060005260206000209060030201600101540160028483600581101515615b0d57fe5b602002015163ffffffff16815481101515615b2457fe5b9060005260206000209060030201600101819055505b8080600101915050615910565b50505050565b60a060405190810160405280600590602082028038833980820191505090505090565b826005600701600890048101928215615c025791602002820160005b83821115615bd057835183826101000a81548163ffffffff021916908363ffffffff1602179055509260200192600401602081600301049283019260010302615b8c565b8015615c005782816101000a81549063ffffffff0219169055600401602081600301049283019260010302615bd0565b505b509050615c0f9190615d7c565b5090565b8260028101928215615c42579160200282015b82811115615c41578251825591602001919060010190615c26565b5b509050615c4f9190615daf565b5090565b826005600701600890048101928215615c8d57916007016008900482015b82811115615c8c578254825591600101919060010190615c71565b5b509050615c9a9190615d7c565b5090565b8260028101928215615cd2579160200282015b82811115615cd1578251829060ff16905591602001919060010190615cb1565b5b509050615cdf9190615daf565b5090565b61010060405190810160405280600073ffffffffffffffffffffffffffffffffffffffff168152602001615d15615dd4565b815260200160008152602001600081525090565b61028060405190810160405280601490602082028038833980820191505090505090565b610300604051908101604052806006905b615d66615df7565b815260200190600190039081615d5e5790505090565b615dac91905b80821115615da857600081816101000a81549063ffffffff021916905550600101615d82565b5090565b90565b615dd191905b80821115615dcd576000816000905550600101615db5565b5090565b90565b60a060405190810160405280600590602082028038833980820191505090505090565b608060405190810160405280600060ff168152602001600060ff168152602001600060ff168152602001600063ffffffff16815250905600a165627a7a723058201a70a235b299402f3e4b3e5e844848735f060514b102f4208076c4d3210726180029",
  "source": "pragma solidity ^0.4.24;\n\nimport \"./AdminPanel.sol\";\nimport \"./SafeMath.sol\";\n\n\ncontract CryptoMon is AdminPanel {\n\n    using SafeMath for uint8;\n\n    constructor() public {\n        seed = now;\n    }\n\n    function unbox()\n        external\n        payable\n    {\n        uint256 _modifier;\n        if (msg.value >= params[2]) {\n            _modifier = params[5];\n        } else if (msg.value >= params[1]) {\n            _modifier = params[4];\n        } else if (msg.value >= params[0]) {\n            _modifier = params[3];\n        } else {\n            revert();\n        }\n\n        firstLogin();\n\n        uint32[6] _ids;\n\n        for (uint256 i = 0; i < 6; i++) {\n            owner[monsters.length] = msg.sender;\n            uint256 _tmp = randInt(0, 1000-_modifier);\n            uint256 _modRarityMin;\n            uint256 _modRarityMax;\n            uint8 _rarity;\n\n            if (_tmp == 1) {\n                _modRarityMin = 17;\n                _modRarityMax = 21;\n                _rarity = 3;\n            } else if (_tmp < 11) {\n                _modRarityMin = 14;\n                _modRarityMax = 17;\n                _rarity = 2;\n            } else if (_tmp < 200) {\n                _modRarityMin = 11;\n                _modRarityMax = 14;\n                _rarity = 1;\n            } else {\n                _modRarityMin = 8;\n                _modRarityMax = 11;\n                _rarity = 0;\n            }\n\n            monsters.push(\n                Monster(\n                    uint8(randInt(_modRarityMin, _modRarityMax)),\n                    uint8(randInt(_modRarityMin, _modRarityMax)),\n                    uint8(randInt(_modRarityMin, _modRarityMax)),\n                    1,\n                    _rarity,\n                    0,\n                    false\n                )\n            );\n\n            emit Transfer(address(0), msg.sender, monsters.length - 1);\n            _ids[i] = uint32(monsters.length - 1);\n        }\n\n        emit Unboxed(msg.sender, _ids);\n\n        balances[msg.sender] = balances[msg.sender].add(6);\n        money[contractOwner] = money[contractOwner].add(msg.value);\n    }\n\n    function fight(uint32[5] _ids, uint256 _minBet)\n        external\n        payable\n    {\n        //Check that you actually payed at least your minimum bet and that you are not already waiting.\n        require(msg.value >= _minBet && isWaiting[msg.sender][0] == 100);\n        for (uint256 i = 0; i < 5; i++) {\n            //Check that you own all of the monsters you want to use to attack and that they aren't busy\n            require(owner[_ids[i]] == msg.sender && !monsters[_ids[i]].busy);\n            for (uint256 j = 0; j < 5; j++) {\n                //check that there aren't any duplicates in your squad\n                require(_ids[i] != _ids[j] || i == j);\n            }\n        }\n\n        //Sets the matchmaking level.\n        uint256 _level;\n        uint8[5] memory _tmp;\n        for (i = 0; i < 5; i++)\n            _tmp[i] = monsters[_ids[i]].lvl;\n\n        //Insertion sort algorithm\n        for (i = 1; i < 5; i++) {\n            uint8 temp = _tmp[i];\n            for (j = i - 1; j >= 0 && temp < _tmp[j]; j--)\n                _tmp[j+1] = _tmp[j];\n            _tmp[j + 1] = temp;\n        }\n\n        //The waiting queue has only 100 spaces, this means that its last index is 99, not 100.\n        _level = _tmp[2] - 1;\n\n        //Used to prevent underflow. More efficient than doing other checks\n        if (_level < params[6])\n            _level = params[6];\n\n        //Checks for every level in range.\n        for (i = _level - params[6]; i <= _level + params[6] && i < 100; i++) {\n\n            //Skips current range to save gas and prevent errors when using %0\n            if (waitingLength[i] == 0)\n                continue;\n\n            //Checks for every person in the current waiting level to find someone who has the same bet range as you.\n            //Starts to check from a random position in the array, to prevent unlucky people from never playing.\n            //Note that waiting is an array of mappings, this is because arrays are broken, and .length is not\n            //reset after deleting the last element.\n            uint256 _start = randInt(0, waitingLength[i]);\n            for (j = _start; j < waitingLength[i] + _start; j++) {\n                //j needs to be \"modulized\", to loop back in front of the array.\n                uint256 j_ = j % waitingLength[i];\n\n                //If it finds someone the fight starts and the functions returns.\n                if (\n                    waiting[i][j_].minBet <= msg.value &&\n                    waiting[i][j_].bet >= _minBet &&\n                    waiting[i][j_].addr != msg.sender\n                )\n                    return computeBattleResults(i, j_, _ids);\n            }\n        }\n\n        //If the contract couldn\"t find anyone, it puts you in the waiting list.\n        //All of your monsters are marked as busy.\n        for (i = 0; i < 5; i++)\n            monsters[_ids[0]].busy = true;\n\n        waiting[_level][waitingLength[_level]] = Defender(\n            msg.sender,\n            _ids,\n            _minBet,\n            msg.value\n        );\n\n        waitingLength[_level]++;\n\n        //Sets waiting state\n        isWaiting[msg.sender] = [_level, waitingLength[_level] - 1];\n    }\n\n    function stopWaiting()\n        external\n    {\n        uint256 _x = isWaiting[msg.sender][0];\n        require(_x != 100);\n        uint256 _y = isWaiting[msg.sender][1];\n\n        money[waiting[_x][_y].addr] = money[waiting[_x][_y].addr].add(waiting[_x][_y].bet);\n\n        for (uint256 i = 0; i < 5; i++)\n            monsters[waiting[_x][_y].deck[i]].busy = false;\n\n        waiting[_x][_y] = waiting[_x][waitingLength[_x] - 1];\n        waitingLength[_x]--;\n        isWaiting[msg.sender] = [100, 0];\n    }\n\n    function sellMonster(\n        uint32 _id,\n        uint256 _price\n    )\n        external\n    {\n        require((!monsters[_id].busy || inSale[_id] > 0) && owner[_id] == msg.sender);\n        inSale[_id] = _price;\n        monsters[_id].busy = (_price == 0) ? false : true;\n        emit ForSale(msg.sender, _id, _price);\n    }\n\n    function buyMonster(uint32 _id)\n        external\n        payable\n    {\n        require(inSale[_id] > 0 && msg.value >= inSale[_id]);\n        inSale[_id] = 0;\n        address owner_ = owner[_id];\n\n        uint256 _fees = msg.value.mul(params[9]) / 10000;\n        money[owner_] = money[owner_].add(msg.value).sub(_fees);\n        money[contractOwner] = money[contractOwner].add(_fees);\n\n        approved[_id] = msg.sender;\n        emit Approval(owner_, msg.sender, _id);\n\n        monsters[_id].busy = false;\n\n        transferFrom(owner_, msg.sender, _id);\n    }\n\n    function withdraw()\n        external\n        returns(uint)\n    {\n        require(money[msg.sender] > 0);\n        uint256 _amount = money[msg.sender];\n        money[msg.sender] = 0;\n        msg.sender.transfer(_amount);\n        return _amount;\n    }\n\n    function lvlUp (\n        uint32[] _ids,\n        uint8[] _atkMod,\n        uint8[] _defMod,\n        uint8[] _spdMod\n    )\n        external\n    {\n        require(\n            _ids.length == _atkMod.length &&\n            _atkMod.length == _defMod.length &&\n            _defMod.length == _spdMod.length\n        );\n\n        uint8 _skillsAvailable;\n\n        for (uint256 i = 0; i < _ids.length; i++) {\n            _skillsAvailable = 0;\n            require(owner[_ids[i]] == msg.sender);\n\n            while (\n                ((uint256(monsters[_ids[i]].lvl)**3)/5) <= monsters[_ids[i]].exp &&\n                monsters[_ids[i]].lvl < 100\n            ) {\n                monsters[_ids[i]].lvl++;\n                _skillsAvailable += uint8(params[10]);\n            }\n\n\n            require(_atkMod[i] + _defMod[i] + _spdMod[i] <= _skillsAvailable);\n\n            uint256 _cap = monsters[_ids[i]].lvl/11*12+20;\n\n            require(\n                _cap >= monsters[_ids[i]].atk+_atkMod[i] &&\n                _cap >= monsters[_ids[i]].def+_defMod[i] &&\n                _cap >= monsters[_ids[i]].spd+_spdMod[i]\n            );\n            monsters[_ids[i]].atk += _atkMod[i];\n            monsters[_ids[i]].def += _defMod[i];\n            monsters[_ids[i]].spd += _spdMod[i];\n        }\n        emit Upgraded(\n            _ids,\n            _atkMod,\n            _defMod,\n            _spdMod\n            );\n    }\n}\n",
  "sourcePath": "/Users/nico/Documents/repo/soluzioni-futura/cryptomon-dapp/contracts/CryptoMon.sol",
  "compiler": {
    "name": "solc",
    "version": "0.4.24+commit.e67f0147.Emscripten.clang"
  },
  "schemaVersion": "2.0.1",
  "updatedAt": "2018-07-02T18:26:59.993Z"
}