{
  "contractName": "ERCCore",
  "abi": [
    {
      "constant": false,
      "inputs": [
        {
          "name": "_min",
          "type": "uint256"
        },
        {
          "name": "_max",
          "type": "uint256"
        }
      ],
      "name": "randInt",
      "outputs": [
        {
          "name": "",
          "type": "uint256"
        }
      ],
      "payable": false,
      "stateMutability": "nonpayable",
      "type": "function"
    },
    {
      "constant": false,
      "inputs": [
        {
          "name": "_newOwner",
          "type": "address"
        }
      ],
      "name": "nominateNewOwner",
      "outputs": [],
      "payable": false,
      "stateMutability": "nonpayable",
      "type": "function"
    },
    {
      "constant": false,
      "inputs": [],
      "name": "acceptOwnership",
      "outputs": [],
      "payable": false,
      "stateMutability": "nonpayable",
      "type": "function"
    },
    {
      "constant": true,
      "inputs": [
        {
          "name": "",
          "type": "uint32"
        }
      ],
      "name": "inSale",
      "outputs": [
        {
          "name": "",
          "type": "uint256"
        }
      ],
      "payable": false,
      "stateMutability": "view",
      "type": "function"
    },
    {
      "constant": true,
      "inputs": [
        {
          "name": "",
          "type": "uint256"
        }
      ],
      "name": "params",
      "outputs": [
        {
          "name": "",
          "type": "uint16"
        }
      ],
      "payable": false,
      "stateMutability": "view",
      "type": "function"
    },
    {
      "constant": true,
      "inputs": [
        {
          "name": "",
          "type": "uint256"
        }
      ],
      "name": "monsters",
      "outputs": [
        {
          "name": "atk",
          "type": "uint8"
        },
        {
          "name": "def",
          "type": "uint8"
        },
        {
          "name": "spd",
          "type": "uint8"
        },
        {
          "name": "lvl",
          "type": "uint8"
        },
        {
          "name": "rarity",
          "type": "uint8"
        },
        {
          "name": "exp",
          "type": "uint256"
        },
        {
          "name": "busy",
          "type": "bool"
        }
      ],
      "payable": false,
      "stateMutability": "view",
      "type": "function"
    },
    {
      "constant": true,
      "inputs": [],
      "name": "ERC721_RECEIVED",
      "outputs": [
        {
          "name": "",
          "type": "bytes4"
        }
      ],
      "payable": false,
      "stateMutability": "view",
      "type": "function"
    },
    {
      "constant": false,
      "inputs": [
        {
          "name": "_from",
          "type": "address"
        },
        {
          "name": "_tokenId",
          "type": "uint256"
        },
        {
          "name": "_data",
          "type": "bytes"
        }
      ],
      "name": "onERC721Received",
      "outputs": [
        {
          "name": "",
          "type": "bytes4"
        }
      ],
      "payable": false,
      "stateMutability": "nonpayable",
      "type": "function"
    },
    {
      "anonymous": false,
      "inputs": [
        {
          "indexed": true,
          "name": "_player",
          "type": "address"
        },
        {
          "indexed": false,
          "name": "_ids",
          "type": "uint32[6]"
        }
      ],
      "name": "Unboxed",
      "type": "event"
    },
    {
      "anonymous": false,
      "inputs": [
        {
          "indexed": true,
          "name": "_player",
          "type": "address"
        },
        {
          "indexed": false,
          "name": "_id",
          "type": "uint32"
        },
        {
          "indexed": true,
          "name": "_price",
          "type": "uint256"
        }
      ],
      "name": "ForSale",
      "type": "event"
    },
    {
      "anonymous": false,
      "inputs": [
        {
          "indexed": true,
          "name": "_attacker",
          "type": "address"
        },
        {
          "indexed": true,
          "name": "_defender",
          "type": "address"
        },
        {
          "indexed": false,
          "name": "_team1",
          "type": "uint32[20]"
        },
        {
          "indexed": false,
          "name": "_team2",
          "type": "uint32[20]"
        },
        {
          "indexed": false,
          "name": "_bonusWinner",
          "type": "uint8"
        },
        {
          "indexed": true,
          "name": "_winnerId",
          "type": "uint256"
        },
        {
          "indexed": false,
          "name": "_moneyWon",
          "type": "uint256"
        }
      ],
      "name": "Results",
      "type": "event"
    },
    {
      "anonymous": false,
      "inputs": [
        {
          "indexed": true,
          "name": "_parameter",
          "type": "uint8"
        },
        {
          "indexed": false,
          "name": "_oldValue",
          "type": "uint256"
        },
        {
          "indexed": false,
          "name": "_newValue",
          "type": "uint256"
        }
      ],
      "name": "Changed",
      "type": "event"
    },
    {
      "anonymous": false,
      "inputs": [
        {
          "indexed": false,
          "name": "_ids",
          "type": "uint32[]"
        },
        {
          "indexed": false,
          "name": "_atkMod",
          "type": "uint8[]"
        },
        {
          "indexed": false,
          "name": "_defMod",
          "type": "uint8[]"
        },
        {
          "indexed": false,
          "name": "_spdMod",
          "type": "uint8[]"
        }
      ],
      "name": "Upgraded",
      "type": "event"
    },
    {
      "anonymous": false,
      "inputs": [
        {
          "indexed": true,
          "name": "_from",
          "type": "address"
        },
        {
          "indexed": true,
          "name": "_to",
          "type": "address"
        },
        {
          "indexed": true,
          "name": "_tokenId",
          "type": "uint256"
        }
      ],
      "name": "Transfer",
      "type": "event"
    },
    {
      "anonymous": false,
      "inputs": [
        {
          "indexed": true,
          "name": "_owner",
          "type": "address"
        },
        {
          "indexed": true,
          "name": "_approved",
          "type": "address"
        },
        {
          "indexed": true,
          "name": "_tokenId",
          "type": "uint256"
        }
      ],
      "name": "Approval",
      "type": "event"
    },
    {
      "anonymous": false,
      "inputs": [
        {
          "indexed": true,
          "name": "_owner",
          "type": "address"
        },
        {
          "indexed": true,
          "name": "_operator",
          "type": "address"
        },
        {
          "indexed": false,
          "name": "_approved",
          "type": "bool"
        }
      ],
      "name": "ApprovalForAll",
      "type": "event"
    },
    {
      "anonymous": false,
      "inputs": [
        {
          "indexed": true,
          "name": "_from",
          "type": "address"
        },
        {
          "indexed": true,
          "name": "_to",
          "type": "address"
        }
      ],
      "name": "OwnershipTransferred",
      "type": "event"
    },
    {
      "constant": true,
      "inputs": [
        {
          "name": "_owner",
          "type": "address"
        }
      ],
      "name": "balanceOf",
      "outputs": [
        {
          "name": "",
          "type": "uint256"
        }
      ],
      "payable": false,
      "stateMutability": "view",
      "type": "function"
    },
    {
      "constant": true,
      "inputs": [
        {
          "name": "_tokenId",
          "type": "uint256"
        }
      ],
      "name": "ownerOf",
      "outputs": [
        {
          "name": "",
          "type": "address"
        }
      ],
      "payable": false,
      "stateMutability": "view",
      "type": "function"
    },
    {
      "constant": false,
      "inputs": [
        {
          "name": "_from",
          "type": "address"
        },
        {
          "name": "_to",
          "type": "address"
        },
        {
          "name": "_tokenId",
          "type": "uint256"
        }
      ],
      "name": "safeTransferFrom",
      "outputs": [],
      "payable": true,
      "stateMutability": "payable",
      "type": "function"
    },
    {
      "constant": false,
      "inputs": [
        {
          "name": "_from",
          "type": "address"
        },
        {
          "name": "_to",
          "type": "address"
        },
        {
          "name": "_tokenId",
          "type": "uint256"
        },
        {
          "name": "_data",
          "type": "bytes"
        }
      ],
      "name": "safeTransferFrom",
      "outputs": [],
      "payable": true,
      "stateMutability": "payable",
      "type": "function"
    },
    {
      "constant": false,
      "inputs": [
        {
          "name": "_from",
          "type": "address"
        },
        {
          "name": "_to",
          "type": "address"
        },
        {
          "name": "_tokenId",
          "type": "uint256"
        }
      ],
      "name": "transferFrom",
      "outputs": [],
      "payable": true,
      "stateMutability": "payable",
      "type": "function"
    },
    {
      "constant": false,
      "inputs": [
        {
          "name": "_approved",
          "type": "address"
        },
        {
          "name": "_tokenId",
          "type": "uint256"
        }
      ],
      "name": "approve",
      "outputs": [],
      "payable": true,
      "stateMutability": "payable",
      "type": "function"
    },
    {
      "constant": false,
      "inputs": [
        {
          "name": "_operator",
          "type": "address"
        },
        {
          "name": "_approved",
          "type": "bool"
        }
      ],
      "name": "setApprovalForAll",
      "outputs": [],
      "payable": false,
      "stateMutability": "nonpayable",
      "type": "function"
    },
    {
      "constant": true,
      "inputs": [
        {
          "name": "_tokenId",
          "type": "uint256"
        }
      ],
      "name": "getApproved",
      "outputs": [
        {
          "name": "",
          "type": "address"
        }
      ],
      "payable": false,
      "stateMutability": "view",
      "type": "function"
    },
    {
      "constant": true,
      "inputs": [
        {
          "name": "_owner",
          "type": "address"
        },
        {
          "name": "_operator",
          "type": "address"
        }
      ],
      "name": "isApprovedForAll",
      "outputs": [
        {
          "name": "",
          "type": "bool"
        }
      ],
      "payable": false,
      "stateMutability": "view",
      "type": "function"
    },
    {
      "constant": true,
      "inputs": [],
      "name": "totalSupply",
      "outputs": [
        {
          "name": "",
          "type": "uint256"
        }
      ],
      "payable": false,
      "stateMutability": "view",
      "type": "function"
    },
    {
      "constant": true,
      "inputs": [
        {
          "name": "interfaceID",
          "type": "bytes4"
        }
      ],
      "name": "supportsInterface",
      "outputs": [
        {
          "name": "",
          "type": "bool"
        }
      ],
      "payable": false,
      "stateMutability": "view",
      "type": "function"
    }
  ],
  "bytecode": "0x608060405261018060405190810160405280600261ffff168152602001600561ffff168152602001600861ffff168152602001600061ffff168152602001606461ffff16815260200160c861ffff168152602001600561ffff168152602001606461ffff168152602001602861ffff16815260200161017761ffff168152602001600161ffff168152602001600161ffff1681525060d390600c620000a6929190620000ed565b50336000806101000a81548173ffffffffffffffffffffffffffffffffffffffff021916908373ffffffffffffffffffffffffffffffffffffffff160217905550620001c5565b82600c600f016010900481019282156200017e5791602002820160005b838211156200014c57835183826101000a81548161ffff021916908361ffff16021790555092602001926002016020816001010492830192600103026200010a565b80156200017c5782816101000a81549061ffff02191690556002016020816001010492830192600103026200014c565b505b5090506200018d919062000191565b5090565b620001c291905b80821115620001be57600081816101000a81549061ffff02191690555060010162000198565b5090565b90565b611eb980620001d56000396000f300608060405260043610610107576000357c0100000000000000000000000000000000000000000000000000000000900463ffffffff16806301ffc9a71461010c578063081812fc14610170578063095ea7b3146101dd5780630b15650b1461021d5780631627540c1461026857806318160ddd146102ab57806323b872dd146102d657806342842e0e146103365780636352211e1461039657806370a082311461040357806379ba50971461045a5780638fbf9acc146104715780639d2f053c146104b8578063a22cb46514610501578063b88d4fde14610550578063c0576b73146105f6578063e985e9c514610683578063ecc98ce4146106fe578063f0b9e5ba14610767575b600080fd5b34801561011857600080fd5b5061015660048036038101908080357bffffffffffffffffffffffffffffffffffffffffffffffffffffffff1916906020019092919050505061081e565b604051808215151515815260200191505060405180910390f35b34801561017c57600080fd5b5061019b60048036038101908080359060200190929190505050610bac565b604051808273ffffffffffffffffffffffffffffffffffffffff1673ffffffffffffffffffffffffffffffffffffffff16815260200191505060405180910390f35b61021b600480360381019080803573ffffffffffffffffffffffffffffffffffffffff16906020019092919080359060200190929190505050610bfc565b005b34801561022957600080fd5b506102526004803603810190808035906020019092919080359060200190929190505050610e4b565b6040518082815260200191505060405180910390f35b34801561027457600080fd5b506102a9600480360381019080803573ffffffffffffffffffffffffffffffffffffffff169060200190929190505050610e9c565b005b3480156102b757600080fd5b506102c0610f3b565b6040518082815260200191505060405180910390f35b610334600480360381019080803573ffffffffffffffffffffffffffffffffffffffff169060200190929190803573ffffffffffffffffffffffffffffffffffffffff16906020019092919080359060200190929190505050610f48565b005b610394600480360381019080803573ffffffffffffffffffffffffffffffffffffffff169060200190929190803573ffffffffffffffffffffffffffffffffffffffff169060200190929190803590602001909291905050506112c2565b005b3480156103a257600080fd5b506103c160048036038101908080359060200190929190505050611481565b604051808273ffffffffffffffffffffffffffffffffffffffff1673ffffffffffffffffffffffffffffffffffffffff16815260200191505060405180910390f35b34801561040f57600080fd5b50610444600480360381019080803573ffffffffffffffffffffffffffffffffffffffff16906020019092919050505061152c565b6040518082815260200191505060405180910390f35b34801561046657600080fd5b5061046f6115b0565b005b34801561047d57600080fd5b506104a2600480360381019080803563ffffffff16906020019092919050505061170d565b6040518082815260200191505060405180910390f35b3480156104c457600080fd5b506104e360048036038101908080359060200190929190505050611725565b604051808261ffff1661ffff16815260200191505060405180910390f35b34801561050d57600080fd5b5061054e600480360381019080803573ffffffffffffffffffffffffffffffffffffffff169060200190929190803515159060200190929190505050611752565b005b6105f4600480360381019080803573ffffffffffffffffffffffffffffffffffffffff169060200190929190803573ffffffffffffffffffffffffffffffffffffffff16906020019092919080359060200190929190803590602001908201803590602001908080601f0160208091040260200160405190810160405280939291908181526020018383808284378201915050505050509192919290505050611853565b005b34801561060257600080fd5b5061062160048036038101908080359060200190929190505050611bd0565b604051808860ff1660ff1681526020018760ff1660ff1681526020018660ff1660ff1681526020018560ff1660ff1681526020018460ff1660ff1681526020018381526020018215151515815260200197505050505050505060405180910390f35b34801561068f57600080fd5b506106e4600480360381019080803573ffffffffffffffffffffffffffffffffffffffff169060200190929190803573ffffffffffffffffffffffffffffffffffffffff169060200190929190505050611c6f565b604051808215151515815260200191505060405180910390f35b34801561070a57600080fd5b50610713611d03565b60405180827bffffffffffffffffffffffffffffffffffffffffffffffffffffffff19167bffffffffffffffffffffffffffffffffffffffffffffffffffffffff1916815260200191505060405180910390f35b34801561077357600080fd5b506107ca600480360381019080803573ffffffffffffffffffffffffffffffffffffffff16906020019092919080359060200190929190803590602001908201803590602001919091929391929390505050611d2a565b60405180827bffffffffffffffffffffffffffffffffffffffffffffffffffffffff19167bffffffffffffffffffffffffffffffffffffffffffffffffffffffff1916815260200191505060405180910390f35b600080600060405180807f737570706f727473496e7465726661636528627974657334290000000000000081525060190190506040518091039020915060405180807f746f74616c537570706c79282900000000000000000000000000000000000000815250600d019050604051809103902060405180807f736166655472616e7366657246726f6d28616464726573732c6164647265737381526020017f2c75696e743235362c6279746573290000000000000000000000000000000000815250602f019050604051809103902060405180807f736166655472616e7366657246726f6d28616464726573732c6164647265737381526020017f2c75696e743235362900000000000000000000000000000000000000000000008152506029019050604051809103902060405180807f7472616e7366657246726f6d28616464726573732c616464726573732c75696e81526020017f74323536290000000000000000000000000000000000000000000000000000008152506025019050604051809103902060405180807f6973417070726f766564466f72416c6c28616464726573732c6164647265737381526020017f29000000000000000000000000000000000000000000000000000000000000008152506021019050604051809103902060405180807f736574417070726f76616c466f72416c6c28616464726573732c626f6f6c2900815250601f019050604051809103902060405180807f676574417070726f7665642875696e74323536290000000000000000000000008152506014019050604051809103902060405180807f617070726f766528616464726573732c75696e743235362900000000000000008152506018019050604051809103902060405180807f6f776e65724f662875696e7432353629000000000000000000000000000000008152506010019050604051809103902060405180807f62616c616e63654f662861646472657373290000000000000000000000000000815250601201905060405180910390201818181818181818189050817bffffffffffffffffffffffffffffffffffffffffffffffffffffffff1916847bffffffffffffffffffffffffffffffffffffffffffffffffffffffff19161480610ba35750807bffffffffffffffffffffffffffffffffffffffffffffffffffffffff1916847bffffffffffffffffffffffffffffffffffffffffffffffffffffffff1916145b92505050919050565b600060028054905082101515610bc157600080fd5b60d1600083815260200190815260200160002060009054906101000a900473ffffffffffffffffffffffffffffffffffffffff169050919050565b33818173ffffffffffffffffffffffffffffffffffffffff1660cd600083815260200190815260200160002060009054906101000a900473ffffffffffffffffffffffffffffffffffffffff1673ffffffffffffffffffffffffffffffffffffffff161480610cc957508173ffffffffffffffffffffffffffffffffffffffff1660d1600083815260200190815260200160002060009054906101000a900473ffffffffffffffffffffffffffffffffffffffff1673ffffffffffffffffffffffffffffffffffffffff16145b80610d8d575060d0600060cd600084815260200190815260200160002060009054906101000a900473ffffffffffffffffffffffffffffffffffffffff1673ffffffffffffffffffffffffffffffffffffffff1673ffffffffffffffffffffffffffffffffffffffff16815260200190815260200160002060008373ffffffffffffffffffffffffffffffffffffffff1673ffffffffffffffffffffffffffffffffffffffff16815260200190815260200160002060009054906101000a900460ff165b1515610d9857600080fd5b8360d1600085815260200190815260200160002060006101000a81548173ffffffffffffffffffffffffffffffffffffffff021916908373ffffffffffffffffffffffffffffffffffffffff160217905550828473ffffffffffffffffffffffffffffffffffffffff163373ffffffffffffffffffffffffffffffffffffffff167f8c5be1e5ebec7d5bd14f71427d1e84f3dd0314c0f7b2291e5b200ac8c7c3b92560405160405180910390a450505050565b600061f91763df27425a60d254640aa00ce3200201811515610e6957fe5b0660d28190555081831415610e815760009050610e96565b8283830360d254811515610e9157fe5b060190505b92915050565b6000809054906101000a900473ffffffffffffffffffffffffffffffffffffffff1673ffffffffffffffffffffffffffffffffffffffff163373ffffffffffffffffffffffffffffffffffffffff16141515610ef757600080fd5b80600160006101000a81548173ffffffffffffffffffffffffffffffffffffffff021916908373ffffffffffffffffffffffffffffffffffffffff16021790555050565b6000600280549050905090565b33818173ffffffffffffffffffffffffffffffffffffffff1660cd600083815260200190815260200160002060009054906101000a900473ffffffffffffffffffffffffffffffffffffffff1673ffffffffffffffffffffffffffffffffffffffff16148061101557508173ffffffffffffffffffffffffffffffffffffffff1660d1600083815260200190815260200160002060009054906101000a900473ffffffffffffffffffffffffffffffffffffffff1673ffffffffffffffffffffffffffffffffffffffff16145b806110d9575060d0600060cd600084815260200190815260200160002060009054906101000a900473ffffffffffffffffffffffffffffffffffffffff1673ffffffffffffffffffffffffffffffffffffffff1673ffffffffffffffffffffffffffffffffffffffff16815260200190815260200160002060008373ffffffffffffffffffffffffffffffffffffffff1673ffffffffffffffffffffffffffffffffffffffff16815260200190815260200160002060009054906101000a900460ff165b15156110e457600080fd5b600073ffffffffffffffffffffffffffffffffffffffff168473ffffffffffffffffffffffffffffffffffffffff1614158015611125575060028054905083105b801561115c575060028381548110151561113b57fe5b906000526020600020906003020160020160009054906101000a900460ff16155b151561116757600080fd5b61116f611d5a565b8360cd600085815260200190815260200160002060006101000a81548173ffffffffffffffffffffffffffffffffffffffff021916908373ffffffffffffffffffffffffffffffffffffffff16021790555060cf60008573ffffffffffffffffffffffffffffffffffffffff1673ffffffffffffffffffffffffffffffffffffffff1681526020019081526020016000206000815480929190600101919050555060cf60008673ffffffffffffffffffffffffffffffffffffffff1673ffffffffffffffffffffffffffffffffffffffff1681526020019081526020016000206000815480929190600190039190505550828473ffffffffffffffffffffffffffffffffffffffff168673ffffffffffffffffffffffffffffffffffffffff167fddf252ad1be2c89b69c2b068fc378daa952ba7f163c4a11628f55a4df523b3ef60405160405180910390a45050505050565b33818173ffffffffffffffffffffffffffffffffffffffff1660cd600083815260200190815260200160002060009054906101000a900473ffffffffffffffffffffffffffffffffffffffff1673ffffffffffffffffffffffffffffffffffffffff16148061138f57508173ffffffffffffffffffffffffffffffffffffffff1660d1600083815260200190815260200160002060009054906101000a900473ffffffffffffffffffffffffffffffffffffffff1673ffffffffffffffffffffffffffffffffffffffff16145b80611453575060d0600060cd600084815260200190815260200160002060009054906101000a900473ffffffffffffffffffffffffffffffffffffffff1673ffffffffffffffffffffffffffffffffffffffff1673ffffffffffffffffffffffffffffffffffffffff16815260200190815260200160002060008373ffffffffffffffffffffffffffffffffffffffff1673ffffffffffffffffffffffffffffffffffffffff16815260200190815260200160002060009054906101000a900460ff165b151561145e57600080fd5b61147a8585856020604051908101604052806000815250611853565b5050505050565b60008073ffffffffffffffffffffffffffffffffffffffff1660cd600084815260200190815260200160002060009054906101000a900473ffffffffffffffffffffffffffffffffffffffff1673ffffffffffffffffffffffffffffffffffffffff16141515156114f157600080fd5b60cd600083815260200190815260200160002060009054906101000a900473ffffffffffffffffffffffffffffffffffffffff169050919050565b60008073ffffffffffffffffffffffffffffffffffffffff168273ffffffffffffffffffffffffffffffffffffffff161415151561156957600080fd5b60cf60008373ffffffffffffffffffffffffffffffffffffffff1673ffffffffffffffffffffffffffffffffffffffff168152602001908152602001600020549050919050565b600160009054906101000a900473ffffffffffffffffffffffffffffffffffffffff1673ffffffffffffffffffffffffffffffffffffffff163373ffffffffffffffffffffffffffffffffffffffff1614151561160c57600080fd5b600160009054906101000a900473ffffffffffffffffffffffffffffffffffffffff1673ffffffffffffffffffffffffffffffffffffffff166000809054906101000a900473ffffffffffffffffffffffffffffffffffffffff1673ffffffffffffffffffffffffffffffffffffffff167f8be0079c531659141344cd1fd0a4f28419497f9722a3daafe3b4186f6b6457e060405160405180910390a3600160009054906101000a900473ffffffffffffffffffffffffffffffffffffffff166000806101000a81548173ffffffffffffffffffffffffffffffffffffffff021916908373ffffffffffffffffffffffffffffffffffffffff160217905550565b60cc6020528060005260406000206000915090505481565b60d381600c8110151561173457fe5b60109182820401919006600202915054906101000a900461ffff1681565b8060d060003373ffffffffffffffffffffffffffffffffffffffff1673ffffffffffffffffffffffffffffffffffffffff16815260200190815260200160002060008473ffffffffffffffffffffffffffffffffffffffff1673ffffffffffffffffffffffffffffffffffffffff16815260200190815260200160002060006101000a81548160ff0219169083151502179055508173ffffffffffffffffffffffffffffffffffffffff163373ffffffffffffffffffffffffffffffffffffffff167f17307eab39ab6107e8899845ad3d59bd9653f200f220920489ca2b5937696c3183604051808215151515815260200191505060405180910390a35050565b600033838173ffffffffffffffffffffffffffffffffffffffff1660cd600083815260200190815260200160002060009054906101000a900473ffffffffffffffffffffffffffffffffffffffff1673ffffffffffffffffffffffffffffffffffffffff16148061192257508173ffffffffffffffffffffffffffffffffffffffff1660d1600083815260200190815260200160002060009054906101000a900473ffffffffffffffffffffffffffffffffffffffff1673ffffffffffffffffffffffffffffffffffffffff16145b806119e6575060d0600060cd600084815260200190815260200160002060009054906101000a900473ffffffffffffffffffffffffffffffffffffffff1673ffffffffffffffffffffffffffffffffffffffff1673ffffffffffffffffffffffffffffffffffffffff16815260200190815260200160002060008373ffffffffffffffffffffffffffffffffffffffff1673ffffffffffffffffffffffffffffffffffffffff16815260200190815260200160002060009054906101000a900460ff165b15156119f157600080fd5b6119fc878787610f48565b611a0586611e10565b15611bc7578573ffffffffffffffffffffffffffffffffffffffff1663f0b9e5ba8887876040518463ffffffff167c0100000000000000000000000000000000000000000000000000000000028152600401808473ffffffffffffffffffffffffffffffffffffffff1673ffffffffffffffffffffffffffffffffffffffff16815260200183815260200180602001828103825283818151815260200191508051906020019080838360005b83811015611acc578082015181840152602081019050611ab1565b50505050905090810190601f168015611af95780820380516001836020036101000a031916815260200191505b50945050505050602060405180830381600087803b158015611b1a57600080fd5b505af1158015611b2e573d6000803e3d6000fd5b505050506040513d6020811015611b4457600080fd5b8101908080519060200190929190505050925063f0b9e5ba7c0100000000000000000000000000000000000000000000000000000000027bffffffffffffffffffffffffffffffffffffffffffffffffffffffff1916837bffffffffffffffffffffffffffffffffffffffffffffffffffffffff1916141515611bc657600080fd5b5b50505050505050565b600281815481101515611bdf57fe5b90600052602060002090600302016000915090508060000160009054906101000a900460ff16908060000160019054906101000a900460ff16908060000160029054906101000a900460ff16908060000160039054906101000a900460ff16908060000160049054906101000a900460ff16908060010154908060020160009054906101000a900460ff16905087565b600060d060008473ffffffffffffffffffffffffffffffffffffffff1673ffffffffffffffffffffffffffffffffffffffff16815260200190815260200160002060008373ffffffffffffffffffffffffffffffffffffffff1673ffffffffffffffffffffffffffffffffffffffff16815260200190815260200160002060009054906101000a900460ff16905092915050565b63f0b9e5ba7c01000000000000000000000000000000000000000000000000000000000281565b600063f0b9e5ba7c0100000000000000000000000000000000000000000000000000000000029050949350505050565b600060cf60003373ffffffffffffffffffffffffffffffffffffffff1673ffffffffffffffffffffffffffffffffffffffff168152602001908152602001600020541415611e0e576040805190810160405280606460ff168152602001600060ff16815250606760003373ffffffffffffffffffffffffffffffffffffffff1673ffffffffffffffffffffffffffffffffffffffff168152602001908152602001600020906002611e0c929190611e23565b505b565b600080823b905060008111915050919050565b8260028101928215611e57579160200282015b82811115611e56578251829060ff16905591602001919060010190611e36565b5b509050611e649190611e68565b5090565b611e8a91905b80821115611e86576000816000905550600101611e6e565b5090565b905600a165627a7a72305820dab99b453df416c161d59e151d3d5d6fb243d214334f71cdcd9e536beeef9eca0029",
  "source": "pragma solidity ^0.4.24;\n\nimport \"./CoreFunctions.sol\";\nimport \"./SafeMath.sol\";\n\n\ncontract ERCCore is CoreFunctions {\n    using SafeMath for uint;\n\n    function isContract(address addr)\n        internal\n        returns(bool)\n    {\n        uint size;\n        assembly { size := extcodesize(addr) }\n        return size > 0;\n    }\n\n\n    function balanceOf(address _owner)\n        external\n        view\n        returns(uint256)\n    {\n        require(_owner != address(0));\n        return balances[_owner];\n    }\n\n    function ownerOf(uint256 _tokenId)\n        external\n        view\n    returns(address)\n    {\n        require(owner[_tokenId] != address(0));\n        return owner[_tokenId];\n    }\n\n    function safeTransferFrom(\n        address _from,\n        address _to,\n        uint256 _tokenId,\n        bytes _data\n    )\n        public\n        payable\n        isAuthorized(msg.sender, _tokenId)\n    {\n        transferFrom(_from, _to, _tokenId);\n        if (isContract(_to)) {\n            bytes4 _retval = ERC721Receiver(_to).onERC721Received(\n                _from, _tokenId, _data\n            );\n            require(_retval == ERC721_RECEIVED);\n        }\n    }\n\n    function safeTransferFrom(\n        address _from,\n        address _to,\n        uint256 _tokenId\n    )\n        external\n        payable\n        isAuthorized(msg.sender, _tokenId)\n    {\n        safeTransferFrom(_from, _to, _tokenId, \"\");\n    }\n\n    function transferFrom(\n        address _from,\n        address _to,\n        uint256 _tokenId\n    )\n        public\n        payable\n        isAuthorized(msg.sender, _tokenId)\n    {\n        require(\n            _to != address(0) &&\n            _tokenId < monsters.length &&\n            !monsters[_tokenId].busy\n        );\n\n        firstLogin();\n\n        owner[_tokenId] = _to;\n        balances[_to]++;\n        balances[_from]--;\n\n        emit Transfer(_from, _to, _tokenId);\n    }\n\n    function approve(\n        address _approved,\n        uint256 _tokenId\n    )\n        public\n        payable\n        isAuthorized(msg.sender, _tokenId)\n    {\n        approved[_tokenId] = _approved;\n        emit Approval(msg.sender, _approved, _tokenId);\n    }\n\n    function setApprovalForAll(\n        address _operator,\n        bool _approved\n    ) external {\n        approvedForAll[msg.sender][_operator] = _approved;\n        emit ApprovalForAll(msg.sender, _operator, _approved);\n    }\n\n    function getApproved(uint256 _tokenId)\n        external\n        view\n        returns(address)\n    {\n        require(_tokenId < monsters.length);\n        return approved[_tokenId];\n    }\n\n    function isApprovedForAll(\n        address _owner,\n        address _operator\n    )\n        external\n        view\n        returns(bool)\n    {\n        return approvedForAll[_owner][_operator];\n    }\n\n    function totalSupply() external view returns (uint256) {\n        return monsters.length;\n    }\n\n    function supportsInterface(bytes4 interfaceID)\n        external\n        view\n        returns (bool)\n    {\n        bytes4 interfaceSignatureERC165 =\n            bytes4(keccak256(\"supportsInterface(bytes4)\"));\n\n        bytes4 interfaceSignatureERC721 =\n            bytes4(keccak256(\"balanceOf(address)\")) ^\n            bytes4(keccak256(\"ownerOf(uint256)\")) ^\n            bytes4(keccak256(\"approve(address,uint256)\")) ^\n            bytes4(keccak256(\"getApproved(uint256)\")) ^\n            bytes4(keccak256(\"setApprovalForAll(address,bool)\")) ^\n            bytes4(keccak256(\"isApprovedForAll(address,address)\")) ^\n            bytes4(keccak256(\"transferFrom(address,address,uint256)\")) ^\n            bytes4(keccak256(\"safeTransferFrom(address,address,uint256)\")) ^\n            bytes4(keccak256(\"safeTransferFrom(address,address,uint256,bytes)\")) ^\n            bytes4(keccak256(\"totalSupply()\"));\n\n        return(\n            interfaceID == interfaceSignatureERC165 ||\n            interfaceID == interfaceSignatureERC721\n        );\n    }\n\n}\n",
  "sourcePath": "/Users/nico/Documents/repo/soluzioni-futura/cryptomon-dapp/contracts/ERCCore.sol",
  "compiler": {
    "name": "solc",
    "version": "0.4.24+commit.e67f0147.Emscripten.clang"
  },
  "schemaVersion": "2.0.1",
  "updatedAt": "2018-07-02T18:26:59.469Z"
}